:020000040800F2
:10000000288700200D02000841350008D92F00087C
:100010003D35000873040008393F00080000000067
:100020000000000000000000000000007135000822
:100030005D05000800000000453500087335000824
:1000400027020008270200082702000827020008EC
:1000500027020008270200082702000827020008DC
:1000600027020008270200082702000827020008CC
:10007000B1040008C1040008D1040008E10400082C
:1000800027020008F10400082702000827020008E0
:10009000270200082702000827020008270200089C
:1000A000270200082702000827020008270200088C
:1000B000270200082702000827020008270200087C
:1000C000270200082702000827020008270200086C
:1000D00027020008293F000827020008270200081D
:1000E000270200082702000827020008270200084C
:1000F000270200082702000827020008270200083C
:10010000270200082702000827020008270200082B
:100110005939000827020008E935000827020008BD
:100120002702000801050008110500082105000844
:1001300000F002F800F05AF80AA090E8000C82449F
:100140008344AAF10107DA4501D100F04FF8AFF27C
:10015000090EBAE80F0013F0010F18BFFB1A43F0A5
:100160000103184754760000747600000A444FF0EB
:10017000000C10F8013B13F0070408BF10F8014B06
:100180001D1108BF10F8015B641E05D010F8016B4B
:10019000641E01F8016BF9D113F0080F1EBF10F8AF
:1001A000014BAD1C0C1B09D16D1E58BF01F801CBD2
:1001B000FAD505E014F8016B01F8016B6D1EF9D555
:1001C0009142D6D37047000000230024002500266A
:1001D000103A28BF78C1FBD8520728BF30C148BFAA
:1001E0000B6070471FB51FBD10B510BD00F00CF9B6
:1001F0001146FFF7F7FF04F0C9FB00F02AF903B43A
:10020000FFF7F2FF03BC00F02DF90000094880471A
:1002100009480047FEE7FEE7FEE7FEE7FEE7FEE7E8
:10022000FEE7FEE7FEE7FEE704480549054A064B00
:1002300070470000E535000831010008287F0020E4
:10024000288700202883002028830020032A40F2EA
:10025000308010F0030C00F0158011F8013BBCF168
:10026000020F624498BF11F801CB00F8013B38BF80
:1002700011F8013BA2F1040298BF00F801CB38BF8E
:1002800000F8013B11F0030300F02580083AC0F0AC
:10029000088051F8043B083A51F804CBA0E8081054
:1002A000F5E7121D5CBF51F8043B40F8043BAFF387
:1002B0000080D20724BF11F8013B11F801CB48BFE1
:1002C00011F8012B24BF00F8013B00F801CB48BF17
:1002D00000F8012B704710B5203AC0F00B80B1E850
:1002E0001850203AA0E81850B1E81850A0E818506B
:1002F000BFF4F5AF5FEA027C24BFB1E81850A0E874
:10030000185044BF18C918C0BDE810405FEA827C8D
:1003100024BF51F8043B40F8043B08BF7047D207A4
:1003200028BF31F8023B48BF11F8012B28BF20F845
:10033000023B48BF00F8012B704702F0FF0343EA7D
:10034000032242EA024200F002B84FF00002042900
:10035000C0F0128010F0030C00F01B80CCF1040CF4
:10036000BCF1020F18BF00F8012BA8BF20F8022B28
:10037000A1EB0C0100F00DB85FEAC17C24BF00F8CE
:10038000012B00F8012B48BF00F8012B70474FF0FC
:10039000000200B5134694469646203922BFA0E8D5
:1003A0000C50A0E80C50B1F12001BFF4F7AF0907E1
:1003B00028BFA0E80C5048BF0CC05DF804EB8900D2
:1003C00028BF40F8042B08BF704748BF20F8022B15
:1003D00011F0804F18BF00F8012B7047704770472D
:1003E000704710B500F008F8006810BD10B504465D
:1003F00000F002F8046010BD00487047C87E00207D
:1004000000487047C87E00207546FFF7F9FFAE46EA
:1004100005006946534620F00700854618B020B510
:10042000FFF702FFBDE820404FF000064FF0000745
:100430004FF000084FF0000B21F00701AC46ACE88C
:10044000C009ACE8C009ACE8C009ACE8C0098D46F9
:10045000704710B50446AFF300802046BDE8104059
:10046000FFF7CDBE01491820ABBEFEE72600020013
:10047000704700BFFEE7000070B502460B46FF2440
:10048000FF25002100BF09E0565C86EA0400064E05
:10049000365C86EA0504054E355C491C9942F3DB5F
:1004A00045EA042070BD0000A0000020A00100204B
:1004B00010B5024800F09CF910BD00003006002085
:1004C00010B5024800F094F910BD00007406002039
:1004D00010B5024800F08CF910BD0000FC080020A7
:1004E00010B5024800F084F910BD0000B8080020E3
:1004F00010B5024800F07CF910BD0000B8060020DD
:1005000010B5024800F074F910BD0000FC06002090
:1005100010B5024800F06CF910BD00003008002052
:1005200010B5024800F064F910BD00007408002006
:1005300030B590F840500124AC40C56B6C60046845
:1005400063604468102C04D10468A2600468E16010
:1005500003E00468A1600468E26030BD704772B6D1
:1005600000BFFEE70146002291F82100022808D0D2
:100570000420886300BF002081F8200000BF012014
:1005800070470868006820F00E000B681860086863
:10059000006820F001000B68186091F840300120DD
:1005A0009840CB6B5860012081F8210000BF0020EB
:1005B00081F8200000BF1046E2E7000070B5044655
:1005C000002594F82100022803D00420A06301250F
:1005D000C1E02068006820F00E00216808602068F3
:1005E000006820F00100216808605C4920688842AA
:1005F00052D95A4978392068884201D1012047E010
:10060000564964392068884201D1102040E053499E
:1006100050392068884201D1801539E04F493C3972
:100620002068884201D1801432E04C492839206882
:10063000884202D14FF480302AE0484914392068BA
:10064000884202D14FF4801022E044492068884259
:1006500001D140041CE042492068884201D10120B8
:1006600016E03F4914312068884201D110200FE084
:100670003B4928312068884201D1801508E038497B
:100680003C312068884201D1801401E04FF4803071
:100690003349091F086051E03049783920688842A1
:1006A00001D1012047E02D4964392068884201D1F9
:1006B000102040E0294950392068884201D1801536
:1006C00039E026493C392068884201D1801432E063
:1006D000224928392068884202D14FF480302AE02C
:1006E0001E4914392068884202D14FF4801022E05C
:1006F0001A492068884201D140041CE0184920684A
:10070000884201D1012016E0154914312068884241
:1007100001D110200FE0124928312068884201D110
:10072000801508E00E493C312068884201D18014D0
:1007300001E04FF48030094980394860012084F895
:10074000210000BF002084F8200000BF606B10B1C2
:100750002046616B8847284670BD0000800002403B
:1007600008040240014609B9012070470868006882
:1007700020F001000A68106000200A6810600A6812
:1007800050600A6890600A68D060174A0868904212
:100790000BD2164A0868801A1422B0FBF2F08000CF
:1007A000086412480838C8630AE00F4A0868801ACB
:1007B0001422B0FBF2F0800008640B480838C863CC
:1007C00091F8402001209040CA6B50600020886260
:1007D000C86208634863886381F8210000BF81F81C
:1007E000200000BF00BFC0E708040240080002402C
:1007F00070B50446E06B05682068066894F8401000
:10080000042088402840002875D006F00400002805
:10081000FAD02068006800F0200028B9206800683D
:1008200020F0040021680860D5492068884254D926
:10083000D34978392068884201D1042049E0D04961
:1008400064392068884201D1402042E0CC495039C7
:100850002068884201D100153BE0C9493C39206835
:10086000884202D14FF4804033E0C54928392068DE
:10087000884202D14FF480202BE0C149143920680E
:10088000884202D14FF4800023E0BD4920688842AD
:1008900001D1C0041DE0BB492068884201D1042079
:1008A00017E0B84914312068884201D1402010E097
:1008B000B44928312068884201D1001509E0B149C6
:1008C0003C312068884202D14FF4804001E04FF46F
:1008D0008020AC49091F086054E0A9497839206894
:1008E000884201D104204AE0A54964392068884241
:1008F00002D1402043E04CE0A149503920688842B1
:1009000001D100153BE09E493C392068884202D164
:100910004FF4804033E09A4928392068884202D158
:100920004FF480202BE0964914392068884202D188
:100930004FF4800023E092492068884201D1C0042E
:100940001DE090492068884201D1042017E08D49BC
:1009500014312068884201D1402010E089492831B3
:100960002068884201D1001509E086493C312068A1
:10097000884202D14FF4804001E04FF4802080494A
:1009800080394860E06A002802D02046E16A884742
:10099000F4E094F84010022088402840002871D0EC
:1009A00006F002000028FAD02068006800F020005D
:1009B00040B92068006820F00A0021680860012022
:1009C00084F821006E492068884254D96C497839EE
:1009D0002068884201D1022049E0694964392068D1
:1009E000884201D1202042E0654950392068884280
:1009F00001D140153BE062493C392068884202D170
:100A00004FF4005033E05E4928392068884202D113
:100A10004FF400302BE05A4914392068884202D143
:100A20004FF4001023E056492068884201D1800429
:100A30001DE054492068884201D1022017E0514945
:100A400014312068884201D1202010E04D4928311E
:100A50002068884201D1401509E04A493C312068AC
:100A6000884202D14FF4005001E04FF40030454974
:100A7000091F086054E0424978392068884202D151
:100A800002204AE057E03E4964392068884201D19B
:100A9000202042E03A4950392068884201D140156F
:100AA0003BE037493C392068884202D14FF400507E
:100AB00033E0334928392068884202D14FF40030AE
:100AC0002BE02F4914392068884202D14FF40010DE
:100AD00023E02B492068884201D180041DE0294988
:100AE0002068884201D1022017E02649143120688D
:100AF000884201D1202010E0224928312068884214
:100B000001D1401509E01F493C312068884202D1DB
:100B10004FF4005001E04FF400301949803948602B
:100B200000BF002084F8200000BFA06A30B3204638
:100B3000A16A884722E094F84010082088402840A5
:100B4000E0B106F00800C8B12068006820F00E008F
:100B50002168086094F8401001208840E16B4860EB
:100B60000120A06384F8210000BF002084F8200049
:100B700000BF206B10B12046216B884770BD00007C
:100B800080000240080402400146002209B9012009
:100B900070471E4B086898420BD21D4B0868C01A5C
:100BA0001423B0FBF3F08000086419480838C863C8
:100BB0000AE0164B0868C01A1423B0FBF3F080005B
:100BC000086412480838C863022081F821000868C8
:100BD000026843F6F0708243D1E901031843CB6801
:100BE00018430B6918434B6918438B691843CB6949
:100BF000184302430868026000208863012081F8DE
:100C00002100002081F8200000BFC1E70804024055
:100C10000800024010B50346002400BF93F82000EE
:100C2000012801D1022010BD012083F8200000BF5F
:100C300093F82100012812D131B1012906D00229EF
:100C400006D0032908D105E09A6207E0DA6205E0E0
:100C50001A6303E05A6301E0012400BF00E00124AD
:100C600000BF002083F8200000BF2046DBE72DE90D
:100C7000F04104460D4616461F464FF0000800BFDF
:100C800094F82000012802D10220BDE8F081012063
:100C900084F8200000BF94F8210001282CD1022004
:100CA00084F821000020A0632068006820F0010083
:100CB000216808603B46324629462046FFF738FC4B
:100CC000E06A30B12068006840F00E0021680860DA
:100CD0000BE02068006820F00400216808602068AC
:100CE000006840F00A00216808602068006840F051
:100CF00001002168086006E000BF002084F82000A1
:100D000000BF4FF002084046BFE7000070B5044640
:100D100000F06AFA06462546681C10B104480078BF
:100D2000054400BF00F060FA801BA842FAD370BDF2
:100D3000080000202DE9F04102460B4600208CE01F
:100D40000127874007EA030100296FD0464F4FEA89
:100D5000900C57F82C4087074FEA177C0F2707FAAB
:100D60000CF73C40414FBA4201D1002719E0404FF7
:100D7000BA4201D1012714E03E4FBA4201D1022705
:100D80000FE03D4FBA4201D103270AE03B4FBA4280
:100D900001D1042705E03A4FBA4201D1052700E00E
:100DA00006274FEA807C4FEA1C7C07FA0CF7A74223
:100DB00032D1344F3F688F43DFF8C8C0CCF80070A1
:100DC0000CF104073F688F430CF1040CCCF8007061
:100DD0002C4F0C373F688F43DFF8A8C00CF10C0C88
:100DE000CCF80070ACF104073F688F43ACF1040C01
:100DF000CCF8007087074FEA177C0F2707FA0CF42E
:100E0000194F4FEA900C57F82C70A743DFF858C0E1
:100E10004FEA90084CF82870FF2901D8174600E0E7
:100E2000171D3D46FF2902D8870003E014E0A0F11A
:100E30000807BF003E462F684FF00F0C0CFA06FC67
:100E400027EA0C074FF0040C0CFA06FC47EA0C07E3
:100E50002F60D7688F43D760401C23FA00F7002F1C
:100E60007FF46EAFBDE8F08108000140000801404A
:100E7000000C014000100140001401400018014026
:100E8000001C0140000401402DE9F8470246002300
:100E90009C467BE14FF0010808FA03F4D1F800808A
:100EA00008EA0400A0427DD1DFF8F4A2D1F8048062
:100EB000A8EB0A09D0453AD014DCB8F1030F50D0A2
:100EC00009DCB8F1000F31D0B8F1010F1CD0B8F136
:100ED000020F49D120E0B8F1110F18D0B8F1120F6C
:100EE00042D11EE0B9F5881F25D006DCB9F5803F58
:100EF00020D0B9F5801F37D11AE0B9F5001F18D0FE
:100F0000B9F5041F30D117E0D1F80CC02DE0D1F8AD
:100F10000C8008F1040C28E0D1F80C8008F1080CD2
:100F200023E0D1F80C8008F10C0C1EE000BF00BFDC
:100F300000BF00BF00BF00BFD1F80880B8F1000FAC
:100F400002D14FF0040C0BE0D1F80880B8F1010F8A
:100F500003D14FF0080C146102E04FF0080C54610B
:100F600003E04FF0000C00E000BF00BFFF2801D8F5
:100F7000904601E002F104084646FF2802D84FEAF5
:100F8000830803E0A3F108084FEA88084746D6F82B
:100F900000804FF00F0909FA07F928EA09080CFA4E
:100FA00007F900E07AE048EA0908C6F80080D1F8BD
:100FB000048008F08058B8F1805F6FD100BFDFF87F
:100FC000E481D8F8188048F00108DFF8D891C9F812
:100FD0001880C846D8F8188008F00108CDF80080BD
:100FE00000BF00BF4FEAB9384FEA930958F82950BB
:100FF0004FEA83784FEA18794FF00F0808FA09F89A
:1010000025EA0805DFF8A081424502D14FF000082B
:1010100024E0DFF89881424502D14FF001081DE03D
:10102000DFF88C81424502D14FF0020816E0DFF86C
:101030008481424502D14FF003080FE0DFF8788148
:10104000424502D14FF0040808E0DFF870814245C4
:1010500002D14FF0050801E04FF006084FEA83790E
:101060004FEA197908FA09F848EA0505DFF85081CE
:101070004FEA930948F82950D1F8048008F4801801
:10108000B8F5801F0BD1DFF83C81D8F8008048EA22
:101090000008DFF83091C9F800800AE075E0DFF859
:1010A0002481D8F8008028EA0008DFF81891C9F8F0
:1010B0000080D1F8048008F40018B8F5001F0ED1A4
:1010C000DFF8008108F10408D8F8008048EA000839
:1010D000DFF8F09009F10409C9F800800DE0DFF8AD
:1010E000E48008F10408D8F8008028EA0008DFF856
:1010F000D49009F10409C9F80080D1F8048008F4FB
:101100000038B8F5003F0ED1DFF8B880A8F1040828
:10111000D8F8008048EA0008DFF8A890A9F104098F
:10112000C9F800800DE0DFF89C80A8F10408D8F829
:10113000008028EA0008DFF88C90A9F10409C9F8BA
:101140000080D1F8048008F48038B8F5803F0ED1D3
:10115000DFF87080A8F10808D8F8008048EA000895
:10116000DFF86090A9F10809C9F800800DE0DFF808
:101170005480A8F10808D8F8008028EA0008DFF8B1
:101180004490A9F10809C9F800805B1CD1F80080DF
:1011900028FA03F8B8F1000F7FF47CAEBDE8F887B9
:1011A000000011100010024000080140000C014036
:1011B000001001400014014000180140001C0140D3
:1011C000080001400804014010B5C26821EA02038A
:1011D00002EA010443EA0443036110BD0AB101615C
:1011E00001E00B040361704701480068704700008C
:1011F0000000002070B504460CB9012070BD4CF60B
:10120000CC402168086045F2555021680860D4E957
:10121000001048602168A0688860FFF7E5FF054678
:101220000BE0FFF7E1FF401B272806D92068C068C4
:1012300000F0030008B10320E0E72068C06800F078
:1012400003000028EDD14AF6AA202168086000209A
:10125000D4E701464AF6AA200A68106000207047C9
:101260000348006803490978084401490860704749
:10127000000000200800002010B50848006840F079
:10128000100006490860032000F0CAF80F2000F0A3
:1012900007F800F02BF8002010BD000000200240ED
:1012A00070B504460E4800784FF47A71B1FBF0F047
:1012B0000C490968B1FBF0F5284600F01BFC08B1A9
:1012C000012070BD102C07D200222146501E00F0D4
:1012D00069F80548046001E00120F2E70020F0E72A
:1012E000080000200C0000200400002008B500BF0A
:1012F0001148806940F001000F4988610846806903
:1013000000F00100009000BF00BF00BF0846C069A8
:1013100040F08050C8610846C06900F080500090DD
:1013200000BF00BF00BF0549486820F0E06040F002
:101330000070486000BF08BD00100240000001407E
:1013400010B501460846002817DB00F01F030122F4
:101350009A400B4B440943F8242000BF00BF00BF54
:10136000BFF34F8F00BF00BF00BF00BF00BF00BF73
:10137000BFF36F8F00BF00BF00BF00BF10BD0000F4
:1013800080E100E001460846002809DB00F01F0369
:1013900001229A4043099B0003F1E023C3F8002196
:1013A00000BF70472DE9F05F80460D4616460027C6
:1013B00002F0C4FD074639462A46334601F00700CD
:1013C000C0F1070ABAF1040F02D94FF0040A01E094
:1013D000C0F1070AD14600F1040ABAF1070F02D2A0
:1013E0004FF0000A01E0A0F1030AD4464FF0010AD1
:1013F0000AFA09FAAAF1010A0AEA020A0AFA0CFA36
:101400004FF0010B0BFA0CFBABF1010B0BEA030BDA
:101410004AEA0B042146404602F098FDBDE8F09FE1
:1014200000BF00F00702064B19684FF6FF03194092
:10143000044B0B4343EA0221014B196000BF704784
:101440000CED00E00000FA0570B504460D460CB93D
:10145000012070BD5A48006800F00700A8420ED273
:101460005748006820F0070028435549086008469F
:10147000006800F00700A84201D00120E9E72078C9
:1014800000F0020002281DD1207800F0040004289A
:1014900005D14C48406840F4E0604A4948602078F3
:1014A00000F00800082805D14648406840F4605024
:1014B000444948604348406820F0F000A168084370
:1014C00040494860207800F0010078B36068012846
:1014D00006D13C48006800F4003090B90120B8E71C
:1014E0006068022806D13748006800F0007040B9F3
:1014F0000120AEE73348006800F0020008B901207F
:10150000A7E73048406820F00300616808432D4990
:101510004860FFF769FE064609E0FFF765FE801B9D
:1015200041F28831884202D9032092E707E025483A
:10153000406800F00C006168B0EB810FEDD12048ED
:10154000006800F00700A8420ED91D48006820F08E
:10155000070028431A4908600846006800F00700A1
:10156000A84201D0012074E7207800F0040004288C
:1015700007D11448406820F4E060E168084311494D
:101580004860207800F00800082808D10D4840681D
:1015900020F46050216940EAC1000A49486000F027
:1015A0003FF808494968C1F30311074A515CC84034
:1015B0000649086006480068FFF772FE002048E709
:1015C0000020024000100240A07700080C0000201C
:1015D0000400002001480068704700000C00002053
:1015E00000B5FFF7F7FF04494968C1F30221034A38
:1015F000515CC84000BD000000100240B0770008F8
:1016000000B5FFF7E7FF04494968C1F3C221034A67
:10161000515CC84000BD000000100240B0770008D7
:1016200070B500210022002400230020134D6968BA
:1016300001F00C05F5B1042D02D0082D19D101E0FF
:101640000F4819E00F4DC1F38346AB5D01F48035BF
:1016500055B10A4D6D68C5F340450B4E725D084D9E
:101660005D43B5FBF2F402E0084D03FB05F42046B0
:1016700002E000BF024800BF00BF70BD0010024082
:1016800000127A008E7700089E77000800093D005E
:10169000F8B504460CB90120F8BD207800F001002F
:1016A000002878D0F848406800F00C0004280CD0DE
:1016B000F548406800F00C00082811D1F248406855
:1016C00000F48030B0F5803F0AD1EF48006800F4A4
:1016D000003000285FD0606800285CD10120DBE783
:1016E00000BF6068B0F5803F06D1E748006840F46D
:1016F0008030E549086028E0606858B9E248006831
:1017000020F48030E04908600846006820F480201A
:1017100008601AE06068B0F5A02F0BD1DA480068C5
:1017200040F48020D84908600846006840F48030C2
:1017300008600AE0D448006820F48030D24908608C
:101740000846006820F48020086000BF606888B107
:10175000FFF74AFD054606E0FFF746FD401B6428FB
:1017600001D9032098E7C848006800F40030002839
:10177000F2D010E0FFF738FD054606E0FFF734FD34
:10178000401B642801D9032086E7BF48006800F4A5
:1017900000300028F2D1207800F00200022857D152
:1017A000B948406800F00C0050B1B748406800F0FC
:1017B0000C00082818D1B448406800F4803098B96B
:1017C000B148006800F0020020B12069012801D072
:1017D000012061E7AC48006820F0F800616940EA48
:1017E000C100A949086033E02069E8B10120A74998
:1017F0000860FFF7F9FC054606E0FFF7F5FC401B23
:10180000022801D9032047E79F48006800F0020042
:101810000028F2D09C48006820F0F800616940EA96
:10182000C1009949086013E0002098490860FFF75B
:10183000DBFC054606E0FFF7D7FC401B022801D978
:10184000032029E79048006800F002000028F2D148
:10185000207800F0080008282DD1A069B8B1012037
:101860008B490860FFF7C0FC054606E0FFF7BCFCAB
:10187000401B022801D903200EE78348406A00F08C
:1018800002000028F2D0012001F05EFE13E00020EB
:101890007F490860FFF7A8FC054606E0FFF7A4FCB7
:1018A000401B022801D90320F6E67748406A00F081
:1018B00002000028F2D1207800F00400042873D13F
:1018C00000277148C06900F0805070B900BF6E48B1
:1018D000C06940F080506C49C8610846C06900F09A
:1018E0008050009000BF00BF01276A48006800F4E4
:1018F0008070B0B96748006840F48070654908603E
:10190000FFF772FC054606E0FFF76EFC401B6428FB
:1019100001D90320C0E65F48006800F48070002809
:10192000F2D000BFE068012806D15748006A40F0B5
:1019300001005549086227E0E06858B95248006A3A
:1019400020F00100504908620846006A20F00400B7
:10195000086219E0E06805280BD14B48006A40F0A6
:101960000400494908620846006A40F00100086224
:101970000AE04548006A20F0010043490862084631
:10198000006A20F00400086200BFE068A0B1FFF721
:101990002BFC054609E0FFF727FC401B41F288318C
:1019A000884202D9032077E622E03748006A00F037
:1019B00002000028EFD012E0FFF716FC054608E011
:1019C000FFF712FC401B41F28831884201D9032005
:1019D00062E62D48006A00F002000028F0D1012FD5
:1019E00005D12948C06920F080502749C86100BF4F
:1019F000E069C8B32448406800F00C00082860D0B3
:101A0000E069022848D1002020490866FFF7ECFB76
:101A1000054606E0FFF7E8FB401B022801D903203A
:101A20003AE61948006800F000700028F2D1206AF8
:101A3000B0F5803F07D11448406820F40030A16819
:101A4000084311494860D4E9080108430E49496830
:101A500021F4741108430C49486001200B490866C1
:101A6000FFF7C2FB054607E03DE0FFF7BDFB401B6B
:101A7000022801D903200FE60348006800F0007037
:101A80000028F2D02FE00000001002400000424287
:101A90008004424200700040002014490866FFF7AD
:101AA000A3FB054606E0FFF79FFB401B022801D978
:101AB0000320F1E50E48006800F000700028F2D124
:101AC00011E0E069012800D1E6E50948466806F41E
:101AD0008031206A814204D106F47011606A81422B
:101AE00001D00120D8E50020D6E5000000004242E8
:101AF0000010024070B504462546681EB0F1807F94
:101B000001D301200FE0681E4FF0E02148610F2152
:101B10004FF0FF3002F01AFA00204FF0E021886108
:101B200007200861002070BD7047704770470000B3
:101B300030B502460B4600BF92F83C00012801D1A7
:101B4000022030BD012082F83C0000BF022082F854
:101B50003D00106844681068816824F070041868BB
:101B6000044310684460144D1068A84213D0134D0C
:101B70001068A8420FD01068B0F1804F0BD0104D04
:101B80001068A84207D00F4D1068A84203D00E4D30
:101B90001068A84205D121F08001586801431068FF
:101BA0008160012082F83D0000BF002082F83C00E7
:101BB00000BF00BFC5E70000002C01400034014019
:101BC0000004004000080040000C004010B504462E
:101BD0000CB9012010BD94F83D0060B9002084F8D4
:101BE0003C00204601F058FEA06C08B91448A064DF
:101BF0002046A16C8847022084F83D00211D206802
:101C000001F0FAFC012084F8460000BF84F83E0091
:101C100001213F200155402001554120015500BFC1
:101C200000BF012084F842004320015544200155A3
:101C30004520015500BF012084F83D000020C9E780
:101C4000451C000838B504462068B0F1804F2AD101
:101C500000BF6F48C06940F001006D49C861084687
:101C6000C06900F00100009000BF00BF69486A49E8
:101C70000860102048600021674881608021C160B1
:101C80004900016189004161002181614FF44051A7
:101C9000C161FEF779FF08B1FEF761FC00BF5E4845
:101CA00020624462B2E05D492068884230D100BFC2
:101CB0005748C06940F002005549C8610846C069EC
:101CC00000F00200009000BF00BF52481430544999
:101CD0000860102048600021514881608021C16067
:101CE0004900016189004161002181614FF4405147
:101CF000C161FEF749FF08B1FEF731FC00BF48495A
:101D000021630846446200BF00BF206244627DE058
:101D10004449206888422BD100BF3D48C06940F04B
:101D200004003B49C8610846C06900F00400009007
:101D300000BF00BF374864303B490860102048604E
:101D40000021394881608021C1604900016189001A
:101D50004161002181614FF44051C161FEF714FFE0
:101D600008B1FEF7FCFB00BF2F48206244624DE043
:101D70002E49206888422FD100BF2548C06940F015
:101D800008002349C8610846C06900F008000090B7
:101D900000BF00BF26482749086010204860002186
:101DA000244881608021C16049000161890041614E
:101DB000002181614FF44051C161FEF7E5FE08B199
:101DC000FEF7CDFB00BF1B49E1620846446200BF3D
:101DD00000BF2062446219E017492068884215D18B
:101DE00000BF0B48C06940F010000949C8610846AF
:101DF000C06900F01000009000BF00BF0022012168
:101E00003620FFF7CFFA3620FFF7BCFA38BD0000C6
:101E1000001002401C000240300600200004004078
:101E20007406002000080040B8060020000C0040A6
:101E30001C040240FC06002000100040014691F8FE
:101E40003D00012801D001207047022081F83D00AB
:101E5000164B0868984213D0154B086898420FD06B
:101E60000868B0F1804F0BD0124B0868984207D039
:101E7000114B0868984203D0104B086898420CD167
:101E80000868806800F00702062A0CD0086800681D
:101E900040F001000B68186005E00868006840F039
:101EA00001000B6818600020CEE70000002C014004
:101EB000003401400004004000080040000C0040D5
:101EC000014691F83D00012801D001207047022011
:101ED00081F83D000868C06840F001000B68D860D8
:101EE000164B0868984213D0154B086898420FD0DB
:101EF0000868B0F1804F0BD0124B0868984207D0A9
:101F0000114B0868984203D0104B086898420CD1D6
:101F10000868806800F00702062A0CD0086800688C
:101F200040F001000B68186005E00868006840F0A8
:101F300001000B6818600020C8E70000002C014079
:101F4000003401400004004000080040000C004044
:101F50002DE9F04104460D46002700BF94F83C00EF
:101F6000012802D10220BDE8F081012084F83C0064
:101F700000BF022084F83D002068866826F07706BE
:101F800026F47F46206886602868502833D00CDC11
:101F9000202850D004DC00284BD0102851D149E033
:101FA000302849D040284CD139E060282DD0702805
:101FB00007D0B0F5805F03D0B0F5005F41D10DE0F0
:101FC00041E0D5E902136A68206801F074FB2068DB
:101FD000866846F077062068866034E0D5E902130B
:101FE0006A68206801F067FB2068806840F48040E0
:101FF0002168886027E0EA686968206801F084FC4D
:102000005021206801F062FB1DE0EA6869682068E1
:1020100001F08DFC6021206801F058FB13E0EA68B4
:102020006968206801F070FC4021206801F04EFBD7
:1020300009E000BF00BF00BF2968206801F046FB2F
:1020400001E0012700BF00BF012084F83D0000BF70
:10205000002084F83C0000BF384684E77047704792
:10206000704710B5044620680069C0F34000F0B125
:102070002068C068C0F34000C8B16FF0020021685A
:102080000861012020772068806900F0030020B1FA
:102090002046D4F89010884707E02046D4F89810DE
:1020A00088472046D4F89C10884700202077206875
:1020B0000069C0F38000F0B12068C068C0F3800000
:1020C000C8B16FF004002168086102202077206801
:1020D000806900F4407020B12046D4F89010884701
:1020E00007E02046D4F8981088472046D4F89C1082
:1020F00088470020207720680069C0F3C000F0B155
:102100002068C068C0F3C000C8B16FF00800216843
:102110000861042020772068C06900F0030020B126
:102120002046D4F89010884707E02046D4F898104D
:1021300088472046D4F89C108847002020772068E4
:102140000069C0F30010F0B12068C068C0F300104F
:10215000C8B16FF01000216808610820207720685E
:10216000C06900F4407020B12046D4F89010884730
:1021700007E02046D4F8981088472046D4F89C10F1
:102180008847002020772068006900F0010060B1D6
:102190002068C06800F0010038B16FF001002168CC
:1021A00008612046D4F88010884720680069C0F391
:1021B000C01060B12068C068C0F3C01038B16FF0C3
:1021C0008000216808612046D4F8B0108847206854
:1021D0000069C0F3801060B12068C068C0F380104F
:1021E00038B16FF04000216808612046D4F88810AB
:1021F000884720680069C0F3401060B12068C0685B
:10220000C0F3401038B16FF020002168086120460B
:10221000D4F8A810884710BD10B586B00446002039
:1022200002900390049005902068B0F1804F21D176
:1022300000BF3A48806940F0080038498861084684
:10224000806900F00800019000BF00BF08200290E4
:1022500002200390059002A93148FEF715FE00BF49
:102260003049486820F4407040F0E06040F48070ED
:10227000486051E02C492068884217D100BF2748A8
:10228000806940F00800254988610846806900F0AF
:102290000800019000BF00BF0120029002200390BF
:1022A000059002A91E48FEF7EFFD35E01F492068A2
:1022B000884217D100BF1948806940F008001749CB
:1022C00088610846806900F00800019000BF00BFE7
:1022D0004020029002200390059002A91048FEF7CA
:1022E000D3FD19E012492068884215D100BF0B4880
:1022F000806940F00400094988610846806900F05F
:102300000400019000BF00BF0220029003900590DE
:1023100002A90848FEF7B8FD06B010BD0010024043
:10232000000C014000000140000400400008004093
:10233000000C0040000801402DE9F04104460E4623
:102340001546002700BF94F83C00012802D1022066
:10235000BDE8F081012084F83C0000BF35B1042DB8
:1023600009D0082D0CD00C2D14D10EE03146206878
:1023700001F0B6F910E03146206801F0E9F90BE010
:102380003146206801F022FA06E03146206801F06B
:1023900059FA01E0012700BF00BF00BF002084F808
:1023A0003C0000BF3846D3E77047000070B50446D4
:1023B0000D4615B994F83E000BE0042D02D13F20E4
:1023C000005D06E0082D02D14020005D01E04120C3
:1023D000005D012801D0012070BD1DB9022084F8E4
:1023E0003E000EE0042D03D102213F20015508E0FC
:1023F000082D03D102214020015502E00221412095
:10240000015501222946206801F044F91F4920683E
:10241000884203D01E492068884201D1012000E093
:10242000002028B12068406C40F4004021684864D6
:1024300016492068884213D01549206888420FD079
:102440002068B0F1804F0BD012492068884207D035
:1024500011492068884203D01049206888420CD175
:102460002068806800F00706062E0CD020680068FF
:1024700040F001002168086005E02068006840F035
:102480000100216808600020A6E70000002C014040
:10249000003401400004004000080040000C0040EF
:1024A00030B504460D4600222946206801F0F2F8B6
:1024B00023492068884203D022492068884201D1FC
:1024C000012000E0002090B100BF2068006A41F2C6
:1024D0001111084050B92068006A8910084028B9D5
:1024E0002068406C20F400402168486400BF00BFB1
:1024F0002068006A41F21111084050B92068006A52
:102500008910084028B92068006820F0010021687F
:10251000086000BF1DB9012084F83E000EE0042DC4
:1025200003D101213F20015508E0082D03D10121ED
:102530004020015502E0012141200155002030BD1D
:10254000002C0140003401402DE9F04104460D46C5
:102550001646002700BF94F83C00012802D1022053
:10256000BDE8F081012084F83C0000BF36B1042EA4
:102570001BD0082E31D00C2E5ED145E029462068B4
:1025800001F0AEF82068806940F008002168886199
:102590002068806920F004002168886120688069D3
:1025A000296908432168886148E02946206801F0CC
:1025B000CFF82068806940F4006021688861206855
:1025C000806920F4806021688861206880692969B9
:1025D00040EA01202168886130E02946206801F046
:1025E000F5F82068C06940F008002168C8612068DB
:1025F000C06920F004002168C8612068C0692969A9
:1026000008432168C86119E02946206801F01AF9D9
:102610002068C06940F400602168C8612068C06912
:1026200020F480602168C8612068C069296940EA97
:1026300001202168C86101E0012700BF00BF00BF81
:10264000002084F83C0000BF384689E710B50446F6
:102650000CB9012010BD94F83D0060B9002084F849
:102660003C00204601F018F9206E08B91448206695
:102670002046216E8847022084F83D00211D2068F5
:1026800000F0BAFF012084F8460000BF84F83E0045
:1026900001213F200155402001554120015500BF37
:1026A00000BF012084F84200432001554420015519
:1026B0004520015500BF012084F83D000020C9E7F6
:1026C000C52600087047704770477047704710B5BF
:1026D000034600240AB9012010BD93F83D000128EB
:1026E00057D11B2952D2DFE801F00E101214161830
:1026F0001A1C1E20222426282A2D303336393C3F2E
:102700004245484B4E009A6442E0DA6440E01A6564
:102710003EE05A653CE09A653AE0DA6538E01A66D0
:1027200036E05A6634E09A6632E0DA6630E01A67DC
:102730002EE05A672CE09A672AE0DA6728E0C3F8AF
:10274000802025E0C3F8842022E0C3F888201FE021
:10275000C3F88C201CE0C3F8902019E0C3F8942043
:1027600016E0C3F8982013E0C3F89C2010E0C3F8EB
:10277000A0200DE0C3F8A4200AE0C3F8A82007E0D9
:10278000C3F8AC2004E0C3F8B02001E0012400BF8E
:102790002DE093F83D0048BB0E2924D2DFE801F07C
:1027A00007090B0D0F11131517191B1D1F219A6413
:1027B0001BE0DA6419E01A6517E05A6515E09A65BE
:1027C00013E0DA6511E01A660FE05A660DE09A66CA
:1027D0000BE0DA6609E01A6707E05A6705E09A67D6
:1027E00003E0DA6701E0012400BF00E00124204695
:1027F00072E770477047F8B504460E46174694F8DE
:10280000420020282ED106B10FB90120F8BD0120C9
:102810002063002060633A463146204601F0F0FA1A
:102820000546EDB9206B012819D100BF00200090AA
:1028300020680068009020684068009000BF00BFDA
:1028400000BF00BF21680C3151E8001F41F01000AB
:1028500021680C3141E80002002AF3D100E0012593
:102860002846D3E70220D1E770477047704770478A
:10287000704700002DE9F84F04462068056820687D
:10288000C668206847694FF00009CA4605F00F097D
:10289000B9F1000F0AD105F0200038B106F0200090
:1028A00020B1204601F0B0F9BDE8F88FB9F1000F72
:1028B0007BD007F0010018B906F49070002874D09E
:1028C00005F0010030B106F4807018B1606C40F082
:1028D0000100606405F0040030B107F0010018B198
:1028E000606C40F00200606405F0020030B107F057
:1028F000010018B1606C40F00400606405F008004D
:1029000048B106F0200010B907F0010018B1606C62
:1029100040F008006064606C002845D005F020009D
:1029200028B106F0200010B1204601F06DF92068B2
:102930004069C0F3801A606C00F0080010B9BAF169
:10294000000F2CD0204601F0E0F82068406900F02C
:10295000400000B300BF00BF2168143151E8001FE0
:1029600021F040002168143141E80002002AF3D12F
:1029700000BFE06B50B17748E16B4863E06BFDF757
:102980001DFE88B1E06B416B88470DE02046A16DCC
:10299000884709E009E02046A16D884704E0204609
:1029A000A16D8847002060647EE7206B012877D105
:1029B00005F01000002873D006F010000028FAD0AF
:1029C00000BF0020009020680068009020684068E8
:1029D000009000BF00BF2068406900F04000002860
:1029E0005FD0E06B006840681FFA80F8B8F1000F14
:1029F00055D0A08D404552DDA4F82E80E06B806953
:102A0000202843D000BF00BF21680C3151E8001FCF
:102A100021F4807021680C3141E80002002AF3D1D2
:102A200000BF00BF00BF2168143151E8001F21F032
:102A300001002168143141E80002002AF3D100BFEF
:102A400000BF00BF2168143151E8001F21F0400091
:102A50002168143141E80002002AF3D100BF202090
:102A600084F842000020206300BF00BF21680C31C1
:102A700051E8001F21F0100021680C3141E80002EC
:102A8000002AF3D100BFE06BFDF76CFD022060630C
:102A9000A08DE38DC01A81B22046E26E904703E715
:102AA00042E0A08DE18D401A1FFA80F8E08DD0B38E
:102AB000B8F1000F37D000BF00BF21680C3151E8DA
:102AC000001F21F4907021680C3141E80002002AB7
:102AD000F3D100BF00BF00BF2168143151E8001FCF
:102AE00021F001002168143141E80002002AF3D1ED
:102AF00000BF202084F842000020206300BF00BFF8
:102B000021680C3151E8001F21F0100021680C31C0
:102B100041E80002002AF3D100BF02206063414671
:102B20002046E26E9047BFE605F0800030B106F027
:102B3000800018B1204601F0C7F9B5E605F0400065
:102B400030B106F0400018B1204601F014F8ABE6B1
:102B500000BFA9E66939000810B504460CB9012088
:102B600010BDA06900B100E000BF94F8410060B959
:102B7000002084F84000204601F020F8206F08B9BA
:102B8000164820672046216F8847242084F841009A
:102B90002068C06820F400502168C860204601F019
:102BA000B1F82068006920F490402168086120682D
:102BB000406920F02A00216848612068C06840F41C
:102BC00000502168C86000206064202084F8410023
:102BD00084F842000020606300BFC1E75D2C00085C
:102BE00010B5044618492068884214D11748C069B6
:102BF00020F400201549C8614FF440611448FEF7E5
:102C000099F8E06BFDF7AEFDA06BFDF7ABFD34204E
:102C1000FEF796FB17E00F492068884213D10B4856
:102C2000806920F48040094988614FF4C0610A48F6
:102C3000FEF780F8E06BFDF795FDA06BFDF792FDC8
:102C40002520FEF77DFB10BD004C00400010024027
:102C500000100140003801400008014010B586B066
:102C6000044600200290039004900590704920686B
:102C700088426BD100BF6F48C06940F400206D49A5
:102C8000C8610846C06900F40020019000BF00BF81
:102C900000BF0846806940F01000886108468069DE
:102CA00000F01000019000BF00BF08150290022044
:102CB00003900320059002A95F48FEF7E5F84FF462
:102CC00000600290002003900120049002A95A485D
:102CD000FEF7DAF859485A49086000204860002198
:102CE000574881608021C16000210161416181619B
:102CF000C161FDF749FF08B1FDF731FC00BF504845
:102D0000E063446200BF4D4828304E4908601020FF
:102D1000486000214B4881608021C1600021016131
:102D200041618161C161FDF72FFF08B1FDF717FC1B
:102D300000BF4448A063446200BF00221146342013
:102D4000FEF730FB3420FEF71DFB6EE03E492068A5
:102D500088426AD100BF3748806940F480403549D5
:102D600088610846806900F48040019000BF00BF80
:102D700000BF0846806940F0040088610846806909
:102D800000F00400019000BF00BF4815029002202F
:102D900003900320059002A92C48FEF775F84FF424
:102DA00080600290002003900120049002A927482F
:102DB000FEF76AF82648274908600020486000218D
:102DC000244881608021C1600021016141618161ED
:102DD000C161FDF7D9FE08B1FDF7C1FB00BF1D4879
:102DE000E063446200BF1A4814381B490860102091
:102DF00048600021184881608021C1600021016184
:102E000041618161C161FDF7BFFE08B1FDF7A7FB1C
:102E100000BF1148A063446200BF002201212520A9
:102E2000FEF7C0FA2520FEF7ADFA06B010BD00008F
:102E3000004C0040001002400010014030040240ED
:102E400030080020740800200038014000080140CC
:102E500058000240B8080020FC08002010B50346C6
:102E600000242AB9586C40F020005864012010BD9D
:102E700093F84100202825D10D291CD2DFE801F06C
:102E800007090B0D0F1113151B1B1B1719009A6453
:102E900017E0DA6415E01A6513E05A6511E09A65E7
:102EA0000FE0DA650DE01A660BE05A6609E01A6772
:102EB00007E05A6705E0586C40F020005864012490
:102EC00000BF17E093F8410078B90B2902D00C2914
:102ED00004D101E01A6707E05A6705E0586C40F03A
:102EE00020005864012400BF04E0586C40F020002A
:102EF000586401242046BAE70246002329B9506CE1
:102F000040F0200050640120704700BF92F840005C
:102F1000012801D10220F7E7012082F8400000BF1C
:102F200092F84100202801D1D16604E0506C40F0B5
:102F300020005064012300BF002082F8400000BF41
:102F40001846E1E770477047F7B50446154694F810
:102F50004100202836D1019800B10DB90120FEBDF5
:102F600001982062A584E58400206064212084F813
:102F700041001548A16B88621448A16BC8621448CF
:102F8000A16B08630020A16B486301AE23681A1D82
:102F900031682B46A06BFDF76AFE6FF04000216898
:102FA000086000BF00BF2168143151E8001F41F0E4
:102FB00080002168143141E80002002AF3D100BFEB
:102FC0000020CCE70220CAE7A53A0008FD3A000835
:102FD0007D3900087047704700BFFEE770B50646B0
:102FE0000D4614462946304604F098F901D2284689
:102FF00070BD2146304604F091FA01D22046F7E731
:103000003046F5E708B500BF2D48406940F00100A3
:103010002B4948610846406900F00100009000BF5C
:1030200000BF00BF0846406940F002004861084602
:10303000406900F00200009000BF00BF002205219F
:103040000C20FEF7AFF90C20FEF79CF900220521B9
:103050000D20FEF7A7F90D20FEF794F900220521B7
:103060000E20FEF79FF90E20FEF78CF900220521B5
:103070000F20FEF797F90F20FEF784F900220521B3
:103080001120FEF78FF91120FEF77CF900220521AF
:103090003920FEF787F93920FEF774F9002211462E
:1030A0003A20FEF77FF93A20FEF76CF9002211462C
:1030B0003B20FEF777F93B20FEF764F908BD0000DE
:1030C0000010024000B585B00020019002900390EE
:1030D000049000BF3A48806940F020003849886178
:1030E0000846806900F02000009000BF00BF00BFCC
:1030F0000846806940F0040088610846806900F055
:103100000400009000BF00BF00BF0846806940F087
:10311000100088610846806900F01000009000BF30
:1031200000BF00BF0846806940F00800886108467B
:10313000806900F00800009000BF00BF002240F648
:103140003C012048FEF74AF80122C0211D48FEF745
:1031500045F8012230211C48FEF740F801220221E7
:103160001A48FEF73BF8002204211848FEF736F80B
:1031700040F6FC0001900120029000200390022004
:10318000049001A90F48FDF77FFE30200190012037
:103190000290002003900220049001A90A48FDF744
:1031A00073FE06200190012002900020039002206F
:1031B000049001A90548FDF767FE05B000BD0000B9
:1031C000001002400008014000100140000C0140C6
:1031D00010B50748074908600420486040F2712193
:1031E00004488160FEF706F808B1FDF7B8F910BD94
:1031F00000300040A002002000B58DB000200990F2
:103200000A900B900C90079008901C216846FDF7DF
:10321000BEF84FF080401E490860472048600021FA
:103220001B488160C160016180218161FEF7CEFC95
:1032300008B1FDF794F94FF48050099009A914489A
:10324000FEF786FE08B1FDF78AF91148FFF7FEF98F
:1032500008B1FDF784F900200790089007A90C48F1
:10326000FEF766FC08B1FDF77AF9602000900020B7
:10327000019002900490042269460548FFF764F922
:1032800008B1FDF76CF90248FEF7C6FF0DB000BDAE
:10329000AC02002000B58DB0002009900A900B9080
:1032A0000C90079008901C216846FDF770F82048A4
:1032B000204908600020486000211E4881604FF6C8
:1032C000FF71C1600021016180218161FEF77EFCF8
:1032D00008B1FDF744F94FF48050099009A9154849
:1032E000FEF736FE08B1FDF73AF91248FFF7AEF9DE
:1032F00008B1FDF734F900200790089007A90D48A0
:10330000FEF716FC08B1FDF72AF9602000900020B6
:10331000019002900490082269460648FFF714F9CC
:1033200008B1FDF71CF90348FEF776FF0DB000BDAC
:10333000000400406003002000B58DB0002009901B
:103340000A900B900C90079008901C216846FDF79E
:103350001EF82048204908600020486000211E48CF
:1033600081604FF6FF71C160002101618161FEF74C
:103370002DFC08B1FDF7F3F84FF48050099009A92E
:103380001548FEF7E5FD08B1FDF7E9F81248FFF72B
:103390005DF908B1FDF7E3F800200790089007A950
:1033A0000D48FEF7C5FB08B1FDF7D9F86020009085
:1033B0000020019002900490002269460648FFF721
:1033C000C3F808B1FDF7CBF80348FEF725FF0DB0B1
:1033D00000BD0000000800401404002000B58DB0BE
:1033E000002009900A900B900C90079008901C21E7
:1033F0006846FCF7CCFF2048204908600020486060
:1034000000211E4881604FF6FF71C16000210161FB
:103410008161FEF7DBFB08B1FDF7A1F84FF48050A6
:10342000099009A91548FEF793FD08B1FDF797F833
:103430001248FFF70BF908B1FDF791F8002007904B
:10344000089007A90D48FEF773FB08B1FDF787F850
:1034500060200090002001900290049004226946B0
:103460000648FFF771F808B1FDF779F80348FEF751
:10347000D3FE0DB000BD0000000C0040C8040020C9
:103480001CB50020009001900E480F4908604720AD
:10349000486000210C48816040F2F311C1600021B6
:1034A0008161FEF793FB08B1FDF759F80020009009
:1034B000019069460448FEF73BFB08B1FDF74FF861
:1034C0001CBD0000001000407C05002010B50B481A
:1034D0000B4908604FF4E1304860002108488160E2
:1034E000C16001610C21416100218161C161FFF76F
:1034F00033FB08B1FDF733F810BD0000004C00406D
:103500004007002010B50B480B4908604FF4E1302C
:103510004860002108488160C16001610C2141615F
:1035200000218161C161FFF717FB08B1FDF717F8B2
:1035300010BD000000380140B807002000BFFEE7C2
:1035400000BFFEE77047000008B508490968C908D0
:103550004FF47A72B1FBF2F14143009100BF00BF1A
:1035600000994A1E00920029F9D108BD0C000020E4
:10357000704710B5FDF774FE10BD00B58FB028215F
:1035800005A8FCF704FF14216846FCF700FF09209A
:1035900005904FF48030069000200790012009909C
:1035A0000B9002200C90C1030D914FF4E0110E918D
:1035B00005A8FEF76DF808B1FCF7D1FF0F200090C9
:1035C00002200190002002904FF4806003900020C0
:1035D000049002216846FDF737FF08B1FCF7BFFFF2
:1035E0000FB000BD7047000010B50248FEF739FD6E
:1035F00010BD00007C05002010B50268204B9842E9
:103600000ED0204B98420BD0B0F1804F08D01E4B0B
:10361000984205D01D4B984202D01D4B984203D1D1
:1036200022F070024B681A43154B98420ED0154B8E
:1036300098420BD0B0F1804F08D0134B984205D080
:10364000124B984202D0124B984203D122F440729E
:10365000CB681A4322F080034C6943EA04020260FB
:103660008B68C3620B688362054B984202D0054B9E
:10367000984201D10B6903630123436110BD00002F
:10368000002C0140003401400004004000080040CC
:10369000000C004030B501F01F05012404FA05F3C9
:1036A000046A9C430462046A01F01F0502FA05F5EE
:1036B0002C43046230BD30B50C46816821F47F4153
:1036C00042EA032525432943816030BD0A468168CB
:1036D00021F0700142F00703194381607047000038
:1036E00030B5026A056A25F0010505624368846900
:1036F00024F0700424F003040D682C4322F002022D
:103700008D682A43104DA84200D103E00F4DA84216
:1037100006D100BF22F00802CD682A4322F004023D
:10372000094DA84202D0094DA84207D123F4807365
:1037300023F400734D692B438D692B4343608461EF
:103740004D684563026230BD002C014000340140E9
:1037500030B5026A056A25F0100505624368846980
:1037600024F4E04424F440740D6844EA052422F073
:1037700020028D6842EA0512124DA84200D103E0F2
:10378000114DA84207D100BF22F08002CD6842EA65
:10379000051222F040020B4DA84202D00A4DA84269
:1037A00009D123F4806323F400634D6943EA850360
:1037B0008D6943EA8503436084614D6885630262D5
:1037C00030BD0000002C01400034014030B5026AD9
:1037D000056A25F4807505624368C46924F07004A5
:1037E00024F003040D682C4322F400728D6842EA31
:1037F0000522124DA84200D103E0114DA84207D185
:1038000000BF22F40062CD6842EA052222F4806201
:103810000A4DA84202D00A4DA84209D123F4805390
:1038200023F400534D6943EA05138D6943EA0513F8
:103830004360C4614D68C563026230BD002C014025
:103840000034014030B5036A056A25F480550562ED
:103850004468C26922F4E04222F440720D6842EAF0
:10386000052223F400538D6843EA0533084DA8422E
:1038700002D0084DA84204D124F480444D6944EAA2
:1038800085144460C2614D680564036230BD000068
:10389000002C0140003401400E4940F8801F0E49C1
:1038A00041600E4981600E49C1600E4901610E49B7
:1038B00041610E4981610E49C1610E4901620E49A3
:1038C00041620E4981620E49C1620E49016380382E
:1038D00070470000CB260008CD260008F32700081B
:1038E000F52700085F20000861200008A9230008D0
:1038F000C7260008C92600085D2000082B1B000809
:103900002D1B0008291B000830B50B461446026A1F
:10391000056A25F001050562816921F0F00141EA9F
:10392000041122F00A021A438161026230BD30B5EF
:103930000B461446026A056A25F010050562816986
:1039400021F4704141EA043122F0A00242EA03125C
:103950008161026230BD000010B50248FEF78AFFA7
:1039600010BD00004007002070B505466C6A0020BD
:10397000E085E0842046A16D884770BD70B505469E
:1039800000266C6A20684069C0F3C01694F84100B4
:10399000212805D126B10020E084204600F0FBF864
:1039A00020684069C0F3801694F84200222805D1AF
:1039B00026B10020E085204600F0A7F8606C40F0BA
:1039C000100060642046A16D884770BD70B5054643
:1039D0006C6A2868006800F02000002842D1E08569
:1039E00000BF00BF21680C3151E8001F21F4807036
:1039F00021680C3141E80002002AF3D100BF00BF6A
:103A000000BF2168143151E8001F21F00100216836
:103A1000143141E80002002AF3D100BF00BF00BF0B
:103A20002168143151E8001F21F040002168143151
:103A300041E80002002AF3D100BF202084F84200B0
:103A4000206B01280ED100BF00BF21680C3151E866
:103A5000001F21F0100021680C3141E80002002A0B
:103A6000F3D100BF00206063206B012804D1A18D39
:103A70002046E26E904702E02046616D884770BDA7
:103A800070B505466C6A01206063206B012805D182
:103A9000A08D41082046E26E904702E02046216D4D
:103AA000884770BD70B505466C6A2868006800F0EC
:103AB0002000F8B90020E08400BF00BF2168143165
:103AC00051E8001F21F080002168143141E8000214
:103AD000002AF3D100BF00BF00BF21680C3151E8BC
:103AE000001F41F0400021680C3141E80002002A2B
:103AF000F3D102E02046E16C884770BD70B5044602
:103B0000656A2846A96C884770BD00BF00BF02687F
:103B10000C3252E8002F22F4907102680C3242E815
:103B20000013002BF3D100BF00BF00BF02681432A6
:103B300052E8002F22F001010268143242E800131B
:103B4000002BF3D100BF016B01290ED100BF00BFD4
:103B500002680C3252E8002F22F0100102680C3289
:103B600042E80013002BF3D100BF202180F842105F
:103B700000210163704710B504462068C06820F03A
:103B800040002168C860202084F841002046E16C94
:103B90008847002010BD00BF00BF02680C3252E809
:103BA000002F22F0C00102680C3242E80013002B03
:103BB000F3D100BF202180F841107047094981648A
:103BC0000949C16409490165094941650949816596
:103BD0000949C16509490166094941660949C16642
:103BE00070470000D72F0008D52F0008472F000886
:103BF000452F0008712800086B2800086F2800086E
:103C00006D28000869280008F8B5044694F84200B9
:103C1000222875D1A068B0F5805F0CD1206950B919
:103C20000025A66A20684068C0F308003080A06ABA
:103C3000801CA06215E0A56A0026A068B0F5805F30
:103C400003D0A06828B9206918B920684068287096
:103C500004E02068406800F07F002870A06A401CE3
:103C6000A062E08D401E80B2E085002846D1206829
:103C7000C06820F020002168C8602068C06820F477
:103C800080702168C8602068406920F001002168C8
:103C90004861202084F8420000206063206B0128E6
:103CA00026D10020206300BF00BF21680C3151E8FD
:103CB000001F21F0100021680C3141E80002002AA9
:103CC000F3D100BF2068006800F0100010280AD16E
:103CD00000BF0020009020680068009020684068C5
:103CE000009000BF00BFA18D2046E26E904702E029
:103CF0002046616D88470020F8BD01E00020FBE709
:103D00000220F9E770B504462168096921F44051A1
:103D1000E2681143226811612269A1681143626956
:103D200041EA02052168C96841F20C6291432943C6
:103D30002268D1602168496921F44071A269114368
:103D4000226851612D4A2168914202D1FDF758FC49
:103D500001E0FDF745FC00EBC00101EB00116268DA
:103D60009200B1FBF2F100EBC00202EB00126368BB
:103D70009B00B2FBF3F26423B2FBF3F202EBC2034B
:103D800003EB0212A1EB8201322202EB0111642249
:103D9000B1FBF2F101F0F00100EBC00202EB001206
:103DA00063689B00B2FBF3F26423B2FBF3F201EB16
:103DB000021200EBC00101EB001163689B00B1FB34
:103DC000F3F100EBC00303EB00136668B600B3FB2E
:103DD000F6F36426B3FBF6F303EBC30606EB03131B
:103DE000A1EB8301322303EB01116423B1FBF3F157
:103DF00001F00F0111442268916070BD003801404C
:103E000077B581B0044615460298A062A5850020CA
:103E10006064222084F842002848E16B88622848C8
:103E2000E16BC8622748E16B08630020E16B4863DF
:103E300002AE32682368191D2B46E06BFCF717FFB2
:103E400000BF002000902068006800902068406853
:103E5000009000BF00BF206970B100BF00BF2168A3
:103E60000C3151E8001F41F4807021680C3141E8A9
:103E70000002002AF3D100BF00BF00BF2168143147
:103E800051E8001F41F001002168143141E80002AF
:103E9000002AF3D100BF00BF00BF2168143151E8F0
:103EA000001F41F040002168143141E80002002A5F
:103EB000F3D100BF002004B070BD0000CD39000870
:103EC000813A00087D390008014691F84100212817
:103ED00028D18868B0F5805F0BD1086948B90A6AB3
:103EE0001088C0F308000B685860086A801C0862DC
:103EF00005E00B6A581C086218780B685860C88C7B
:103F0000401E80B2C88458B90868C06820F080009C
:103F10000B68D8600868C06840F040000B68D86043
:103F2000002070470220FCE710B50248FEF7A2FC13
:103F300010BD0000B807002000BFFEE7024800687F
:103F4000C0F30220704700000CED00E010B500281F
:103F500004DB0A07130E054A135406E00A07140E81
:103F6000034A00F00F031B1FD45410BD00E400E00F
:103F700018ED00E00748007828B1074800780549A7
:103F80000978884203DB002003490870704701204C
:103F9000FCE70000220000201C0000202DE9F04179
:103FA00004460E46174622480078002838D120786B
:103FB000062801DBBDE8F081002519E020781D49C5
:103FC00001EB05110978884211D1607804280ED1DF
:103FD000A08805280BD1FDF707F9164901EB05115B
:103FE0008860144800EB0511D4F80700C8606D1C08
:103FF000042DE3DB207810490978884215D16078D8
:10400000042812D1A08809280FD1FDF7EDF80A493C
:104010008860D4F80720CA60D4F80B00086104E077
:104020003A463146054800F015FE00BFC2E70000E1
:10403000400900204C0900208C090020680C002059
:10404000F8B54648007808B90020F8BDFFF792FFA0
:1040500008B90020F9E7424800F078FE05464148DB
:1040600041490978445C0226022D16D101212046DF
:1040700002F084F83A4800F0B5FE384801783A4832
:10408000007802F0EBF8384908700846007808B963
:10409000002000E0022006465DE0314890F8AC00C8
:1040A000022816D10021204602F068F82C4800F0C2
:1040B00099FE2A4801782C48007802F0CFF82A4966
:1040C00008700846007808B9002000E00220064683
:1040D00041E0234800F02EFE00283CD1022120467A
:1040E00002F04CF801270122D1022048FDF776F8B2
:1040F000042C09DC022000230422214600901848E9
:1041000000F040FF074608E0042000230246214655
:104110000090134800F036FF0746DFB100224FF44D
:1041200000611248FDF75AF80121204602F026F8F6
:104130000B4800F057FE094801780B48007802F060
:104140008DF8094908700846007808B9002000E099
:104150000220064600BF304677E70000220000201C
:10416000A00900201D0000201C00002000080140C4
:1041700000201C4908701C480021016001710020CA
:104180001A49087000BF17E0194901EB001149787E
:1041900061B9174901EB00110978134A114B1B78DB
:1041A000D15410490978491C0E4A1170104901EB8D
:1041B00000110022CA60401C0428E5DB0D4840784D
:1041C00050B90C4801780848064A127881540548CD
:1041D0000078401C0349087006480021C160016155
:1041E00070470000220000201D0000201C0000205D
:1041F0004C0900208C09002010B5044600224FF421
:1042000000610248FCF7EAFF10BD00000008014011
:104210000A48807A28B90A480088401C0849088062
:1042200002E000200649088005480088B0F5FA6FD2
:1042300003DD00200349087048707047180D002006
:104240004C0000202C00002004490A6802604A68E3
:1042500042600A890281897A817270474009002090
:1042600010B50E4A0E490F4800F01CFE0E490D48CD
:1042700000F06EFE0D4A0E490E4800F06DFC012064
:1042800005E0411E0C4B03EB01110870401C052892
:10429000F7DB05200949087010BD00009D3F0008AC
:1042A000B8070020A0090020F94100086543000874
:1042B00040070020680C00204C0900208C090020D9
:1042C0000EB56846FFF7C0FF1D48009901600199CF
:1042D0004160BDF8081001819DF80A108172FFF756
:1042E00097FF1748807A012820D101F041FF144838
:1042F000007890B90120134908700020487000BF71
:1043000008E00F49491C01EB400109880E4A22F8D8
:104310001010401C0428F4DB11E009480078012843
:104320000DD1002007490870487008E00448807AE1
:10433000022804D100F05EF908B901F019FF0EBDA2
:10434000180D00202C0000202400002010B5034888
:1043500000F00EFE024800F065FC10BDA009002030
:10436000680C00202DE9F04188B004460E46FCF7A9
:104370003BFF96490968401A95490860FCF734FFED
:104380009249086004219348FCF71EFF9248007888
:1043900000287DD13246214601A800F06FFA05467B
:1043A000002D60D101208C4988729DF804000128FD
:1043B00058D1002008709DF8060000F0010080F040
:1043C0000100864948709DF80600012121EA50014C
:1043D000824841749DF80600012121EA90017F483E
:1043E00080F821109DF80600012121EAD0017B48C8
:1043F00080F831109DF80600012121EA101078495B
:10440000487000202CE0022202EB40030DF106026E
:10441000D35C012202EB40070DF10602D25D43EAB4
:10442000022141F27072914200DD114630B1012843
:1044300008D002280AD0032810D10BE0664AA2F85F
:1044400001100BE0644AA2F8031007E0624AA2F8E8
:10445000051003E0604AA2F8071000BF00BF401C2F
:104460000428D0DB2CE0082E24D12078102821D17C
:10447000607806281ED1A078E0B9E078D0B920791C
:10448000C0B96079B0B9A0798A2813D1E07900E089
:1044900017E08B280ED101204F49087002E001205F
:1044A000FCF734FC324621464E4800F0D3FB00288E
:1044B000F5D102E002204849887208B0BDE8F081D9
:1044C00082E04548007801287ED120780F286CD101
:1044D0006078062869D1E078A17840EA01200128B7
:1044E00063D106212046FBF7C7FFE179A27941EAB3
:1044F0000221884255D1012037498872487260797B
:1045000000F0010080F001003449887060790121D9
:1045100021EA5001314881746079012121EA90013A
:104520002E4880F822106079012121EAD0012B4821
:1045300080F8321000252CE00027B84635B1012D57
:1045400008D0022D0AD0032D10D10BE0264F4FF0DA
:1045500040080BE0244F4FF0800807E0234F4FF056
:10456000100803E0214F4FF0200800BF00BF1B4898
:1045700000EB05108078012805D10022414638461D
:10458000FCF72CFE04E0012241463846FCF726FEEB
:104590006D1C042DD0DB32462146124800F05AFB38
:1045A00012E002200C4988720EE001200A4988724C
:1045B000002048720122D1020B48FCF70FFE324660
:1045C00021460B4800F046FB00BF76E710000020B4
:1045D00014000020000C0140400900204C0900207C
:1045E0008C090020680C00200008014000100140E8
:1045F000A009002010B500231A46F021014800F060
:1046000087F910BD680C002010B5002007E00B49A9
:104610000B4A02EB0012D26841F82020401C04280B
:10462000F5DB0649074AD2E90302C1E904020B4659
:1046300018220221044800F06BF910BD000D002083
:104640004C0900208C090020680C002010B500F0F7
:104650000FFDFFF705FE034A0349044800F0FEF989
:1046600010BD0000714600087C05002030000020CD
:1046700010B5FFF725FE23480078012839D12148DD
:10468000407830B101280AD0022816D003282ED154
:1046900021E0FFF76DFD01201A49487028E0FFF77F
:1046A000CFFC48B9FCF7A0FD17490968401A174923
:1046B00008600220134948701AE0FFF7A5FF48B9C7
:1046C000FCF792FD10490968401A1149086003205F
:1046D0000C4948700CE0002406E00E4A32F8141031
:1046E000E0B201F0BBFC641C042CF6DB00E000BF70
:1046F00007E0002403E0E0B201F0E6FC641C042CB7
:10470000F9DB10BD2C000020100000203C00002030
:10471000380000202400002010B5FFF717FE0248E3
:1047200000F0C4F910BD0000300000202DE9F04178
:1047300014461D4606460F4601F0E7FE00F07040A5
:10474000B0F1005F0FD0201C18BF0120284320F0DB
:104750000040C0F17F6000F1E040C00F02BF204682
:104760002946BDE8F08130463946BDE8F0812DE9A3
:10477000F04114461D4606460F4601F0C6FE00F005
:104780007040B0F1004F0FD0201C18BF012028430B
:1047900020F00040C0F17F6000F1E040C00F02BF98
:1047A00020462946BDE8F08130463946BDE8F08113
:1047B0002DE9F84F05460026284602F09BFD0746E6
:1047C000114902F04DFC04461049204602F0DAFD82
:1047D00021460090204602F0D5FD83460C4902F0A8
:1047E000D1FD8246009902F0CDFB8146094902F0D5
:1047F00059FF8046044902F0C5FD074602F042FD1C
:1048000086B23046BDE8F88F000020413466803F14
:104810002FBDA2B6145A663F2DE9F04104460D465D
:1048200004B135B94FF4C8712846FBF78EFDBDE8D9
:10483000F081A68A2EB94FF4C8712846FBF785FD92
:10484000F5E7C82E01D3C82000E030468046A6EB2D
:10485000080707B900274FF4C8712846FBF775FD14
:10486000002007E03A1804F1160131F8121025F87B
:104870001010401C4045F5D300BFD8E72DE9F05F8C
:1048800080460D461746062F02DA0220BDE8F09F4B
:10489000002409E0285D5A2804D1601C285CA52862
:1048A00000D104E0601C84B2781EA042F2DC00BF9C
:1048B000781EA04201DC0120E8E7E01C2E5C06F136
:1048C000060A04EB0A00B84201DD0220DEE7311DD2
:1048D0002819FBF7D1FD8146601D3044295C201D5D
:1048E0003044285C41EA002BD94501D00320CDE7B4
:1048F000A01C285C88F8000088F80160201D291899
:10490000324608F10200FBF7A1FC0020BEE70000E0
:104910002DE9F0478146884615461E46182D02DDD2
:104920000120BDE8F08700245A222146641C164865
:104930004254A5222146641C42542146641C00F8BE
:1049400001802146641C4554002D06DD2EB1014630
:1049500008192A463146FBF779FC601984B22146D2
:104960000948FBF789FD07463A0A2046611C8CB2CC
:1049700005490A542046611C8CB203490F54224653
:10498000484600F067F9CCE73C7D0020FCF774FC5A
:10499000FEF7F3FDFEF796FBFEF734FBFEF718FC7F
:1049A000FEF72AFCFEF776FCFEF7C6FCFEF716FDC6
:1049B000FEF766FDFEF78AFDFEF7A4FDFFF746FE53
:1049C000FFF7AAFE05E00348FCF743FC0120FCF7D3
:1049D0009DF9F8E7A00200200146194A08689042B4
:1049E00001D1012070470868B0F1804F01D1022049
:1049F000F8E7144A0868904201D10320F2E7124A0E
:104A00000868904201D10420ECE7104A08689042FF
:104A100001D10520E6E70E4A0868904201D1062040
:104A2000E0E70C4A0868904201D10720DAE70A4A19
:104A30000868904201D10820D4E70020D2E70000A6
:104A4000002C01400004004000080040000C004021
:104A500000100040001400400034014070B50446CE
:104A60000D461646256066602846FFF7B5FF0449E7
:104A700041F82040034A0E212846FDF728FE70BD6C
:104A80008C7E0020894A000870B505462846FFF74D
:104A9000A3FF0446044850F8240020B1024951F80D
:104AA00024104868804770BD8C7E002010B50446F5
:104AB0002068FDF705FA10BD70B504460D46207B51
:104AC00008B9012000E000202073A4F89450606829
:104AD00058B1E9B2237B0BB9012600E0002604F1AE
:104AE0000D0303EB861062689047204600F09AF8A9
:104AF000FCF77AFBC4F8900070BD000070B5054665
:104B0000284600F00DF80446044850F8240020B16F
:104B1000024951F8240000F04BF870BD607E00207F
:104B200001460A4A0868904201D101207047084AAC
:104B30000868904201D10220F8E7064A08689042CE
:104B400001D10320F2E70020F0E700000038014027
:104B500000440040004800402DE9F04104460D4665
:104B6000164625602846FFF7DBFF07460A4840F84F
:104B7000274006B1666009492846FEF7BDF9084A94
:104B800001212846FEF76AF9064A04212846FEF765
:104B900065F9BDE8F0810000607E0020FD4B000853
:104BA000854C0008FD4A000801B181607047000093
:104BB00010B50446206800B910BD00202168486483
:104BC00000BF216881F8400000BF2068FEF708F8A8
:104BD0002068FEF743F807492068FEF78DF9064A7A
:104BE00004212068FEF73AF9204600F01BF800BFC8
:104BF000E2E70000FD4B0008FD4A000870B50546DD
:104C00000E462846FFF78CFF0446054850F824005E
:104C100028B1034951F824003146FFF74DFF70BD1C
:104C2000607E002010B50446237B04F10D0202EBE8
:104C3000831140222068FDF7DEFD84F8960020688D
:104C4000C06B0068006820F004002168C96B096827
:104C5000086010BD70B504460D4616462068806B8E
:104C600090F82100012807D1324629462068FEF736
:104C70006BF984F8970002E0012084F8970094F81B
:104C8000970070BD70B505462846FFF749FF0446FA
:104C9000074850F8240050B1054850F824008068B7
:104CA00028B1034850F8240081682846884770BD21
:104CB000607E00202DE9F04781460C4615461F46D0
:104CC0000CB105B117B90120BDE8F0872078F728AD
:104CD00002DC6078042801D00120F5E7A088FD28D7
:104CE00001DD0420F0E7002622783146761C6A5464
:104CF00062783146761C6A54A088002807DDA288B5
:104D0000A819A11DFBF7A2FAA088304486B231464B
:104D10002846FBF7B1FB80464FEA18223046711C4B
:104D20008EB22A543046711C8EB205F800803E8047
:104D30000020C9E7014609B90020704791F8AC008E
:104D4000012800D1F9E70020F7E700002DE9F04144
:104D5000044614B90120BDE8F081FCF745FA054688
:104D600094F8AC0001282ED1A434E068281A206001
:104D7000206802F0BFFA064617480168304602F084
:104D800001F91549086015484FF07E510768006821
:104D900002F0F8F811493E46086031460E480068B6
:104DA00002F05EF90E490860D4E90001A43C884293
:104DB0000FD3032084F8AC00D4F8C402401CC4F81C
:104DC000C4020220C7E794F8AC00042801D10520F2
:104DD000C1E70020BFE700009800002094000020F9
:104DE0009C00002010B5044674B1002084F8AC008B
:104DF0004FF4827104F1B400FBF7A7FA4FF482710B
:104E000004F5DC70FBF7A1FA10BD2DE9F041044672
:104E10000D4616461F461CB115B1D4F89C0008B9C2
:104E2000BDE8F0813A4631462846D4F89C30984790
:104E300000BFF5E72DE9F04781460D4616461C46B2
:104E400015B10CB1042E02DA0420BDE8F087701E03
:104E5000295CB01E285C41EA0027B11E2846FBF7FA
:104E60000BFB8046474501D00320EEE74FF48271EB
:104E70002046FBF76AFA2878207068786070301F47
:104E8000A080A088002809DDA088FD2801DD04207D
:104E9000DBE7A288A91CA01DFBF7D8F967800020DA
:104EA000D3E7000070B504460D46164604B10DB9AF
:104EB000012070BD4FF432712046FBF768FA903440
:104EC00044F8905CA560E6600520A0610020207792
:104ED000FCF78AF92062903C04480460044A2946A1
:104EE0002046FFF739FE0020E3E700009000002095
:104EF000515000082DE9F04105460E4617463C4644
:104F00000CB105B10EB9BDE8F081104B324629460F
:104F10002046FFF78FFF8046B8F1000F14D14FF401
:104F200082720A4904F1B400FBF790F9022084F878
:104F3000AC00D4F8C002401CC4F8C00233462A4674
:104F400002492046FFF761FF00BFDCE75A7D0020E1
:104F500070B504460D460CB9012070BD0DB1C4F802
:104F6000A0502046D4F8A010FFF71EFE0020F4E762
:104F700010B504460CB9012010BD2046FFF752FEC3
:104F80000020F9E72DE9F047ADF5027D04460D4616
:104F9000174698468A9E5CB1042F09D145B1F72D7A
:104FA00006DC2EB17D2E03DC2046FFF7C3FE20B1C8
:104FB00001200DF5027DBDE8F0874FF4827141A814
:104FC000FBF7E5F98DF804518DF805710420ADF873
:104FD00008014FEA18208DF80A018DF80B81310A7B
:104FE00041A8017246726B4601AA41A92046FFF70B
:104FF00061FE8246BAF1000F01D05046D9E7BDF8F4
:10500000002001A92046FFF725FE8146B9F1000FD7
:1050100009D0D4F8C402401CC4F8C402042084F8A7
:10502000AC000520C5E74FF4827241A904F1B40039
:10503000FBF70CF9012084F8AC00FCF7D5F8C4F8B4
:10504000B000D4F8BC02401CC4F8BC020020B0E799
:1050500070B504460D460548006828B10348294646
:1050600002682046FFF746FF70BD00009000002058
:1050700008B504200F4B02460F490090002000F0B5
:1050800001FB08200B4B02460C490090012000F068
:10509000F9FA1020074B002209490090022000F085
:1050A000F1FA2020034B042206490090032000F06F
:1050B000E9FA08BD00080140AC02002060030020AE
:1050C00014040020C804002010B50446042C00DBA2
:1050D00010BD40F2E36262430F4B03EB820241F6E4
:1050E00078331A44928991B240F2E36262430A4BE8
:1050F00003EB820241F678331A4490680022FCF7F1
:105100006DF8002140F2E3606043034A02EB800047
:10511000816000BFDCE70000240D002070B505466B
:1051200001200C490860002410E040F2E360604375
:10513000094901EB800641F678308059006AA8429F
:1051400002D1204600F0C8FF601CC4B2042CECDB86
:1051500070BD00008C000020240D00202DE9F041DE
:1051600005461DB141F67830405908B9BDE8F081D7
:1051700041F678304659346A04B9F7E794F82100CB
:1051800002280ED12046FBF7EDF9074647B120680B
:10519000006820F0010021680860012084F82100E7
:1051A0000BE094F8401001208840E16B48603068C3
:1051B000C06820F480703168C86000BFD6E7000086
:1051C0002DE9F84F06462D480068401C2B49086021
:1051D00000254DE040F2E3606843294901EB80047B
:1051E00041F678300059006AB04240D141F688302B
:1051F000005DD8BBFBF7F8FF224951F82510401A93
:10520000214941F82500022041F6883121444870A7
:105210000120607041F6783109590968C96A88B27D
:1052200002F068F881464FF07E5101F0ABFE074670
:1052300041F6783109590968886A02F05BF84FF045
:105240007E51009001F09EFE834659460F4801F0C2
:1052500007FF82460E4901F003FF81460D4902F027
:1052600091F88046394601F0FBFEA06002E06D1C1B
:10527000042DAFDB00BFBDE8F88F000088000020E0
:10528000240D0020547B0020647B00204054894C76
:105290000000C845000070422DE9F04707468A46E5
:1052A000904699463B480068401C3A490860042FE4
:1052B00005DABAF1000F02D0B8F1000F02D10120D7
:1052C000BDE8F08740F2E3607843334901EB8005A5
:1052D00041F678304659346A0CB90120F0E7284687
:1052E000FFF73CFF41F67830284441683046FDF72F
:1052F000D7F8B9F1010F01D1202100E00021A1610F
:105300000021A1608021E160490021618900616183
:10531000102060602046FBF737FC08B10120CFE782
:105320001E4A00212046FBF775FC1D4A022120463B
:10533000FBF770FC002141F678304059006841626B
:105340003068C06840F480703168C8603046FCF74F
:1053500075FD306800F12C02434651462046FBF7AC
:1053600086FC08B10120ABE741F67830284441685B
:105370003046FDF71BF808B10120A1E741F688305F
:1053800000F80590012041F688312944487000203A
:1053900096E7000084000020240D0020C151000881
:1053A0001D51000810B50446042C00DB10BD40F26E
:1053B000E36262430B4B03EB820241F678331A44FB
:1053C000928991B240F2E3626243064B03EB8202A0
:1053D00041F678331A4490680122FBF7FFFE00BFC4
:1053E000E4E70000240D00202DE9F04F8DB0824647
:1053F000884640F2E3600AFB00F0954901EB800427
:10540000A4F81080404601F075FF0646914901F06E
:10541000B9FF0C90608A0B902046FFF79FFE41F683
:10542000583104F11600FAF790FF8B490C9801F0FF
:10543000A9FF07900B9801F05DFF4FF07E5104909B
:1054400001F0A0FD06463146844801F009FE84497A
:10545000059001F097FF0690079901F001FE4FF0CB
:105460007E51089002F01EF98346584601F05EFD19
:10547000CDE9040100F0A8FECDE9060101F014FA1F
:105480000A900A9801F01EFF0646594602F077F886
:1054900009907449099801F075FF064601F046FD30
:1054A000CDE9040100F090FECDE9060101F0FCF920
:1054B0000746384601F027FA02460B46CDE90201BD
:1054C00000206949FFF753F902460B46CDE9040174
:1054D00000206649FFF72AF9CDE9060101F0E4F959
:1054E0000746002005E0624A0A9942F82010411C54
:1054F000C8B20728F7DB002512E0002F07DD5C4863
:1055000050F82500401C5A4941F8250006E058484B
:1055100050F82500401E564941F82500681CC5B2C8
:10552000381E01DB014600E04142A942E5DC0026CD
:1055300019E04F4951F8260001F0C4FE4D4A4E498A
:105540000790FDF74BFD089001F080FE484941F8B7
:105550002600084630F8260081B204F1160020F833
:105560001610701CC6B2072EE3DB4FF000090026B0
:1055700057E004F1160131F8160001F0BBFE4FF0C0
:105580007E51069001F0FEFC08900B9801F0B2FEEF
:105590004FF07E51039001F0F5FC014604902F4836
:1055A00001F05EFD2C49059001F05AFD2C49069052
:1055B00001F0E8FE0790089901F052FD2F4941F8EB
:1055C000260004F1160131F8160001F093FE4FF0A9
:1055D0007E51049001F0D6FC06900B9801F08AFEF3
:1055E0004FF07E51019001F0CDFC014602901B4826
:1055F00001F036FD1849039001F032FD184904907E
:1056000001F0C0FE0590069901F02AFD15490790AA
:1056100001F026FD4946089001F0B4FC8146701C5B
:10562000C6B2072EA5DBC4F808900721A18241F677
:10563000783000590068C06A11490860A28A0123C5
:1056400004F116015046FFF727FE0DB0BDE8F08FBC
:10565000240D0020CDCCCC3D0000C8454054894CE1
:10566000000070420000E04000001C4000001CC030
:10567000207D002000FF7F470000C842047D0020FD
:10568000800000202DE9F04104460D4616461F46D5
:10569000DDF8188040F2E36060432F4901F82040B4
:1056A000002140F2E36060432B4A02EB800041702E
:1056B00040F2E360604302EB8000816040F2E3610E
:1056C000614302EB810101F1160041F65831FAF70E
:1056D0003CFE002140F2E36060431F4A02EB800081
:1056E000018240F2E3606043114601EB800000F567
:1056F0008050C0F8785B40F2E360604301EB8000CB
:1057000041F678310844466040F2E3606043114658
:1057100001EB800041F678310844876040F2E36095
:105720006043114601EB800041F678310844C0F82F
:105730000C80002140F2E360604302EB8000C16016
:1057400040F2E360604302EB80000171204600F00C
:10575000C3FCBDE8F0810000240D00202DE9FF4FBF
:1057600093B007469046FE480068401CFC4908601C
:10577000149801F0BFFD8346FA4901F003FE129030
:10578000404601F0B7FD8346F64901F0FBFD11905C
:1057900040F2E3607843F44901EB8004A4F8108000
:1057A000608A10902046FFF7D9FC109801F0A2FD06
:1057B0004FF07E51079001F0E5FB83465946EB48D8
:1057C00001F04EFC4FF08F41089001F049FCE84990
:1057D0000860E849129801F0D5FD8346E64901F0DA
:1057E0003FFC0F90E349119801F0CCFD8346E2495C
:1057F00001F036FC0E90DDE90E0101F053FF0D9033
:105800000021119801F0EEFC05D13846FFF75CFC51
:1058100017B0BDE8F08F00210D9801F07FFE01D296
:10582000012001E04FF0FF300C900C9801F04AFD90
:105830008346169901F0A6FD81460C9801F042FDC1
:1058400041F6703108510D9801F070FB21F00041D4
:105850000022CA4BCDE9040100F0CEFECDE90601DD
:1058600000F048FD834600F02FFD824651464FF080
:10587000804001F087FD0B905146504601F082FDBB
:105880004FF07C510890484601F07CFD0790089944
:1058900001F078FD83460F9901F074FB0A90B4483B
:1058A00001680A9801F03AFD02D2B14800680A90F6
:1058B0000F9809900026002541F6583104F1160092
:1058C000FAF743FDAA480168099801F027FD4ED276
:1058D000A7480999006801F0E5FE4FF0804101906A
:1058E00001F050FD0290169901F0BAFB039001F00F
:1058F0001DFBCDE9040100F0C1FCCDE9060100F07B
:10590000F9FC08909E49089801F008FD01D29C48D6
:1059100000E008980890964800680990109801F0F7
:10592000E9FC4FF07E51029001F02CFB0146039000
:105930008E4801F095FB0490099901F091FB4FF01E
:105940007E51059001F0AEFE8E4A8F490690FDF71C
:1059500045FB079001F096FC1FFA80FB2946681C66
:1059600085B204F1160020F811B0089E00BF23E1B3
:105970004FF07E50099901F073FB0890304608996A
:1059800001F000FB06465146304601F0C7FC13D239
:105990003146304601F0F6FC4FF07C510590484608
:1059A00001F0F0FC0490059901F0ECFC06900F99D1
:1059B00001F0E8FA099030E05146484601F0E2FC77
:1059C0005146049001F0DEFC494606904FF08040BD
:1059D00001F0D8FC5146019001F0D4FC3146029010
:1059E00001F0D0FC494604904FF07C5001F0CAFC15
:1059F0003146009001F0C6FC3146019001F0C2FC36
:105A000002900F9901F0BBFD0390049901F0BAFADE
:105A10000590069901F046FE09900C98401C98B933
:105A20000E9801F083FACDE90201099801F07EFA9F
:105A3000CDE90001DDE90223FEF778FECDE904019E
:105A400000F058FC099013E04948006801F06EFA34
:105A5000CDE90201099801F069FACDE90001DDE91B
:105A60000223FEF763FECDE9040100F043FC099038
:105A7000109801F03FFC4FF07E51019001F082FA46
:105A800001460290394801F0EBFA0390099901F0C0
:105A9000E7FA4FF07E51049001F004FE394A3A498A
:105AA0000590FDF79BFA069001F0ECFB1FFA80FBD6
:105AB0002946681C85B204F1160020F811B058463A
:105AC00001F018FC4FF07E51049001F05BFA069053
:105AD000109801F00FFC4FF07E51019001F052FA46
