:020000040800F2
:10000000B88600200D020008AD3400086D2F0008EE
:10001000A934000873040008A53E00080000000091
:10002000000000000000000000000000DD340008B7
:100030005D05000800000000B1340008DF3400084E
:1000400027020008270200082702000827020008EC
:1000500027020008270200082702000827020008DC
:1000600027020008270200082702000827020008CC
:10007000B1040008C1040008D1040008E10400082C
:1000800027020008F10400082702000827020008E0
:10009000270200082702000827020008270200089C
:1000A000270200082702000827020008270200088C
:1000B000270200082702000827020008270200087C
:1000C000270200082702000827020008270200086C
:1000D00027020008953E00082702000827020008B2
:1000E000270200082702000827020008270200084C
:1000F000270200082702000827020008270200083C
:10010000270200082702000827020008270200082B
:10011000C5380008270200085535000827020008E6
:100120002702000801050008110500082105000844
:1001300000F002F800F05AF80AA090E8000C82449F
:100140008344AAF10107DA4501D100F04FF8AFF27C
:10015000090EBAE80F0013F0010F18BFFB1A43F0A5
:100160000103184788740000A87400000A444FF087
:10017000000C10F8013B13F0070408BF10F8014B06
:100180001D1108BF10F8015B641E05D010F8016B4B
:10019000641E01F8016BF9D113F0080F1EBF10F8AF
:1001A000014BAD1C0C1B09D16D1E58BF01F801CBD2
:1001B000FAD505E014F8016B01F8016B6D1EF9D555
:1001C0009142D6D37047000000230024002500266A
:1001D000103A28BF78C1FBD8520728BF30C148BFAA
:1001E0000B6070471FB51FBD10B510BD00F00CF9B6
:1001F0001146FFF7F7FF04F033FB00F02AF903B4D0
:10020000FFF7F2FF03BC00F02DF90000094880471A
:1002100009480047FEE7FEE7FEE7FEE7FEE7FEE7E8
:10022000FEE7FEE7FEE7FEE704480549054A064B00
:10023000704700005135000831010008B87E0020E9
:10024000B8860020B8820020B8820020032A40F23D
:10025000308010F0030C00F0158011F8013BBCF168
:10026000020F624498BF11F801CB00F8013B38BF80
:1002700011F8013BA2F1040298BF00F801CB38BF8E
:1002800000F8013B11F0030300F02580083AC0F0AC
:10029000088051F8043B083A51F804CBA0E8081054
:1002A000F5E7121D5CBF51F8043B40F8043BAFF387
:1002B0000080D20724BF11F8013B11F801CB48BFE1
:1002C00011F8012B24BF00F8013B00F801CB48BF17
:1002D00000F8012B704710B5203AC0F00B80B1E850
:1002E0001850203AA0E81850B1E81850A0E818506B
:1002F000BFF4F5AF5FEA027C24BFB1E81850A0E874
:10030000185044BF18C918C0BDE810405FEA827C8D
:1003100024BF51F8043B40F8043B08BF7047D207A4
:1003200028BF31F8023B48BF11F8012B28BF20F845
:10033000023B48BF00F8012B704702F0FF0343EA7D
:10034000032242EA024200F002B84FF00002042900
:10035000C0F0128010F0030C00F01B80CCF1040CF4
:10036000BCF1020F18BF00F8012BA8BF20F8022B28
:10037000A1EB0C0100F00DB85FEAC17C24BF00F8CE
:10038000012B00F8012B48BF00F8012B70474FF0FC
:10039000000200B5134694469646203922BFA0E8D5
:1003A0000C50A0E80C50B1F12001BFF4F7AF0907E1
:1003B00028BFA0E80C5048BF0CC05DF804EB8900D2
:1003C00028BF40F8042B08BF704748BF20F8022B15
:1003D00011F0804F18BF00F8012B7047704770472D
:1003E000704710B500F008F8006810BD10B504465D
:1003F00000F002F8046010BD00487047587E0020ED
:1004000000487047587E00207546FFF7F9FFAE465A
:1004100005006946534620F00700854618B020B510
:10042000FFF702FFBDE820404FF000064FF0000745
:100430004FF000084FF0000B21F00701AC46ACE88C
:10044000C009ACE8C009ACE8C009ACE8C0098D46F9
:10045000704710B50446AFF300802046BDE8104059
:10046000FFF7CDBE01491820ABBEFEE72600020013
:10047000704700BFFEE7000070B502460B46FF2440
:10048000FF25002100BF09E0565C86EA0400064E05
:10049000365C86EA0504054E355C491C9942F3DB5F
:1004A00045EA042070BD00006000002060010020CB
:1004B00010B5024800F09CF910BD0000E4050020D2
:1004C00010B5024800F094F910BD00002806002085
:1004D00010B5024800F08CF910BD0000B0080020F3
:1004E00010B5024800F084F910BD00006C0800202F
:1004F00010B5024800F07CF910BD00006C06002029
:1005000010B5024800F074F910BD0000B0060020DC
:1005100010B5024800F06CF910BD0000E40700209F
:1005200010B5024800F064F910BD00002808002052
:1005300030B590F840500124AC40C56B6C60046845
:1005400063604468102C04D10468A2600468E16010
:1005500003E00468A1600468E26030BD704772B6D1
:1005600000BFFEE70146002291F82100022808D0D2
:100570000420886300BF002081F8200000BF012014
:1005800070470868006820F00E000B681860086863
:10059000006820F001000B68186091F840300120DD
:1005A0009840CB6B5860012081F8210000BF0020EB
:1005B00081F8200000BF1046E2E7000070B5044655
:1005C000002594F82100022803D00420A06301250F
:1005D000C1E02068006820F00E00216808602068F3
:1005E000006820F00100216808605C4920688842AA
:1005F00052D95A4978392068884201D1012047E010
:10060000564964392068884201D1102040E053499E
:1006100050392068884201D1801539E04F493C3972
:100620002068884201D1801432E04C492839206882
:10063000884202D14FF480302AE0484914392068BA
:10064000884202D14FF4801022E044492068884259
:1006500001D140041CE042492068884201D10120B8
:1006600016E03F4914312068884201D110200FE084
:100670003B4928312068884201D1801508E038497B
:100680003C312068884201D1801401E04FF4803071
:100690003349091F086051E03049783920688842A1
:1006A00001D1012047E02D4964392068884201D1F9
:1006B000102040E0294950392068884201D1801536
:1006C00039E026493C392068884201D1801432E063
:1006D000224928392068884202D14FF480302AE02C
:1006E0001E4914392068884202D14FF4801022E05C
:1006F0001A492068884201D140041CE0184920684A
:10070000884201D1012016E0154914312068884241
:1007100001D110200FE0124928312068884201D110
:10072000801508E00E493C312068884201D18014D0
:1007300001E04FF48030094980394860012084F895
:10074000210000BF002084F8200000BF606B10B1C2
:100750002046616B8847284670BD0000800002403B
:1007600008040240014609B9012070470868006882
:1007700020F001000A68106000200A6810600A6812
:1007800050600A6890600A68D060174A0868904212
:100790000BD2164A0868801A1422B0FBF2F08000CF
:1007A000086412480838C8630AE00F4A0868801ACB
:1007B0001422B0FBF2F0800008640B480838C863CC
:1007C00091F8402001209040CA6B50600020886260
:1007D000C86208634863886381F8210000BF81F81C
:1007E000200000BF00BFC0E708040240080002402C
:1007F00070B50446E06B05682068066894F8401000
:10080000042088402840002875D006F00400002805
:10081000FAD02068006800F0200028B9206800683D
:1008200020F0040021680860D5492068884254D926
:10083000D34978392068884201D1042049E0D04961
:1008400064392068884201D1402042E0CC495039C7
:100850002068884201D100153BE0C9493C39206835
:10086000884202D14FF4804033E0C54928392068DE
:10087000884202D14FF480202BE0C149143920680E
:10088000884202D14FF4800023E0BD4920688842AD
:1008900001D1C0041DE0BB492068884201D1042079
:1008A00017E0B84914312068884201D1402010E097
:1008B000B44928312068884201D1001509E0B149C6
:1008C0003C312068884202D14FF4804001E04FF46F
:1008D0008020AC49091F086054E0A9497839206894
:1008E000884201D104204AE0A54964392068884241
:1008F00002D1402043E04CE0A149503920688842B1
:1009000001D100153BE09E493C392068884202D164
:100910004FF4804033E09A4928392068884202D158
:100920004FF480202BE0964914392068884202D188
:100930004FF4800023E092492068884201D1C0042E
:100940001DE090492068884201D1042017E08D49BC
:1009500014312068884201D1402010E089492831B3
:100960002068884201D1001509E086493C312068A1
:10097000884202D14FF4804001E04FF4802080494A
:1009800080394860E06A002802D02046E16A884742
:10099000F4E094F84010022088402840002871D0EC
:1009A00006F002000028FAD02068006800F020005D
:1009B00040B92068006820F00A0021680860012022
:1009C00084F821006E492068884254D96C497839EE
:1009D0002068884201D1022049E0694964392068D1
:1009E000884201D1202042E0654950392068884280
:1009F00001D140153BE062493C392068884202D170
:100A00004FF4005033E05E4928392068884202D113
:100A10004FF400302BE05A4914392068884202D143
:100A20004FF4001023E056492068884201D1800429
:100A30001DE054492068884201D1022017E0514945
:100A400014312068884201D1202010E04D4928311E
:100A50002068884201D1401509E04A493C312068AC
:100A6000884202D14FF4005001E04FF40030454974
:100A7000091F086054E0424978392068884202D151
:100A800002204AE057E03E4964392068884201D19B
:100A9000202042E03A4950392068884201D140156F
:100AA0003BE037493C392068884202D14FF400507E
:100AB00033E0334928392068884202D14FF40030AE
:100AC0002BE02F4914392068884202D14FF40010DE
:100AD00023E02B492068884201D180041DE0294988
:100AE0002068884201D1022017E02649143120688D
:100AF000884201D1202010E0224928312068884214
:100B000001D1401509E01F493C312068884202D1DB
:100B10004FF4005001E04FF400301949803948602B
:100B200000BF002084F8200000BFA06A30B3204638
:100B3000A16A884722E094F84010082088402840A5
:100B4000E0B106F00800C8B12068006820F00E008F
:100B50002168086094F8401001208840E16B4860EB
:100B60000120A06384F8210000BF002084F8200049
:100B700000BF206B10B12046216B884770BD00007C
:100B800080000240080402400146002209B9012009
:100B900070471E4B086898420BD21D4B0868C01A5C
:100BA0001423B0FBF3F08000086419480838C863C8
:100BB0000AE0164B0868C01A1423B0FBF3F080005B
:100BC000086412480838C863022081F821000868C8
:100BD000026843F6F0708243D1E901031843CB6801
:100BE00018430B6918434B6918438B691843CB6949
:100BF000184302430868026000208863012081F8DE
:100C00002100002081F8200000BFC1E70804024055
:100C10000800024010B50346002400BF93F82000EE
:100C2000012801D1022010BD012083F8200000BF5F
:100C300093F82100012812D131B1012906D00229EF
:100C400006D0032908D105E09A6207E0DA6205E0E0
:100C50001A6303E05A6301E0012400BF00E00124AD
:100C600000BF002083F8200000BF2046DBE72DE90D
:100C7000F04104460D4616461F464FF0000800BFDF
:100C800094F82000012802D10220BDE8F081012063
:100C900084F8200000BF94F8210001282CD1022004
:100CA00084F821000020A0632068006820F0010083
:100CB000216808603B46324629462046FFF738FC4B
:100CC000E06A30B12068006840F00E0021680860DA
:100CD0000BE02068006820F00400216808602068AC
:100CE000006840F00A00216808602068006840F051
:100CF00001002168086006E000BF002084F82000A1
:100D000000BF4FF002084046BFE7000070B5044640
:100D100000F06AFA06462546681C10B104480078BF
:100D2000054400BF00F060FA801BA842FAD370BDF2
:100D3000080000202DE9F04102460B4600208CE01F
:100D40000127874007EA030100296FD0464F4FEA89
:100D5000900C57F82C4087074FEA177C0F2707FAAB
:100D60000CF73C40414FBA4201D1002719E0404FF7
:100D7000BA4201D1012714E03E4FBA4201D1022705
:100D80000FE03D4FBA4201D103270AE03B4FBA4280
:100D900001D1042705E03A4FBA4201D1052700E00E
:100DA00006274FEA807C4FEA1C7C07FA0CF7A74223
:100DB00032D1344F3F688F43DFF8C8C0CCF80070A1
:100DC0000CF104073F688F430CF1040CCCF8007061
:100DD0002C4F0C373F688F43DFF8A8C00CF10C0C88
:100DE000CCF80070ACF104073F688F43ACF1040C01
:100DF000CCF8007087074FEA177C0F2707FA0CF42E
:100E0000194F4FEA900C57F82C70A743DFF858C0E1
:100E10004FEA90084CF82870FF2901D8174600E0E7
:100E2000171D3D46FF2902D8870003E014E0A0F11A
:100E30000807BF003E462F684FF00F0C0CFA06FC67
:100E400027EA0C074FF0040C0CFA06FC47EA0C07E3
:100E50002F60D7688F43D760401C23FA00F7002F1C
:100E60007FF46EAFBDE8F08108000140000801404A
:100E7000000C014000100140001401400018014026
:100E8000001C0140000401402DE9F8470246002300
:100E90009C467BE14FF0010808FA03F4D1F800808A
:100EA00008EA0400A0427DD1DFF8F4A2D1F8048062
:100EB000A8EB0A09D0453AD014DCB8F1030F50D0A2
:100EC00009DCB8F1000F31D0B8F1010F1CD0B8F136
:100ED000020F49D120E0B8F1110F18D0B8F1120F6C
:100EE00042D11EE0B9F5881F25D006DCB9F5803F58
:100EF00020D0B9F5801F37D11AE0B9F5001F18D0FE
:100F0000B9F5041F30D117E0D1F80CC02DE0D1F8AD
:100F10000C8008F1040C28E0D1F80C8008F1080CD2
:100F200023E0D1F80C8008F10C0C1EE000BF00BFDC
:100F300000BF00BF00BF00BFD1F80880B8F1000FAC
:100F400002D14FF0040C0BE0D1F80880B8F1010F8A
:100F500003D14FF0080C146102E04FF0080C54610B
:100F600003E04FF0000C00E000BF00BFFF2801D8F5
:100F7000904601E002F104084646FF2802D84FEAF5
:100F8000830803E0A3F108084FEA88084746D6F82B
:100F900000804FF00F0909FA07F928EA09080CFA4E
:100FA00007F900E07AE048EA0908C6F80080D1F8BD
:100FB000048008F08058B8F1805F6FD100BFDFF87F
:100FC000E481D8F8188048F00108DFF8D891C9F812
:100FD0001880C846D8F8188008F00108CDF80080BD
:100FE00000BF00BF4FEAB9384FEA930958F82950BB
:100FF0004FEA83784FEA18794FF00F0808FA09F89A
:1010000025EA0805DFF8A081424502D14FF000082B
:1010100024E0DFF89881424502D14FF001081DE03D
:10102000DFF88C81424502D14FF0020816E0DFF86C
:101030008481424502D14FF003080FE0DFF8788148
:10104000424502D14FF0040808E0DFF870814245C4
:1010500002D14FF0050801E04FF006084FEA83790E
:101060004FEA197908FA09F848EA0505DFF85081CE
:101070004FEA930948F82950D1F8048008F4801801
:10108000B8F5801F0BD1DFF83C81D8F8008048EA22
:101090000008DFF83091C9F800800AE075E0DFF859
:1010A0002481D8F8008028EA0008DFF81891C9F8F0
:1010B0000080D1F8048008F40018B8F5001F0ED1A4
:1010C000DFF8008108F10408D8F8008048EA000839
:1010D000DFF8F09009F10409C9F800800DE0DFF8AD
:1010E000E48008F10408D8F8008028EA0008DFF856
:1010F000D49009F10409C9F80080D1F8048008F4FB
:101100000038B8F5003F0ED1DFF8B880A8F1040828
:10111000D8F8008048EA0008DFF8A890A9F104098F
:10112000C9F800800DE0DFF89C80A8F10408D8F829
:10113000008028EA0008DFF88C90A9F10409C9F8BA
:101140000080D1F8048008F48038B8F5803F0ED1D3
:10115000DFF87080A8F10808D8F8008048EA000895
:10116000DFF86090A9F10809C9F800800DE0DFF808
:101170005480A8F10808D8F8008028EA0008DFF8B1
:101180004490A9F10809C9F800805B1CD1F80080DF
:1011900028FA03F8B8F1000F7FF47CAEBDE8F887B9
:1011A000000011100010024000080140000C014036
:1011B000001001400014014000180140001C0140D3
:1011C000080001400804014010B5C26821EA02038A
:1011D00002EA010443EA0443036110BD0AB101615C
:1011E00001E00B040361704701480068704700008C
:1011F00000000020034800680349097808440149B9
:1012000008607047000000200800002010B5084862
:10121000006840F0100006490860032000F0CAF89A
:101220000F2000F007F800F02BF8002010BD0000A0
:101230000020024070B504460E4800784FF47A71E1
:10124000B1FBF0F00C490968B1FBF0F5284600F05D
:101250001BFC08B1012070BD102C07D200222146D2
:10126000501E00F069F80548046001E00120F2E733
:101270000020F0E7080000200C00002004000020FF
:1012800008B500BF1148806940F001000F4988612E
:101290000846806900F00100009000BF00BF00BF59
:1012A0000846C06940F08050C8610846C06900F037
:1012B0008050009000BF00BF00BF0549486820F083
:1012C000E06040F00070486000BF08BD00100240C0
:1012D0000000014010B501460846002817DB00F069
:1012E0001F0301229A400B4B440943F8242000BFFE
:1012F00000BF00BFBFF34F8F00BF00BF00BF00BFE4
:1013000000BF00BFBFF36F8F00BF00BF00BF00BFB3
:1013100010BD000080E100E001460846002809DB1E
:1013200000F01F0301229A4043099B0003F1E023D0
:10133000C3F8002100BF70472DE9F05F80460D46DD
:101340001646002702F0B0FD074639462A463346C6
:1013500001F00700C0F1070ABAF1040F02D94FF0FB
:10136000040A01E0C0F1070AD14600F1040ABAF10B
:10137000070F02D24FF0000A01E0A0F1030AD446A1
:101380004FF0010A0AFA09FAAAF1010A0AEA020A66
:101390000AFA0CFA4FF0010B0BFA0CFBABF1010B44
:1013A0000BEA030B4AEA0B042146404602F084FD97
:1013B000BDE8F09F00BF00F00702064B19684FF62A
:1013C000FF031940044B0B4343EA0221014B196010
:1013D00000BF70470CED00E00000FA0570B5044650
:1013E0000D460CB9012070BD5A48006800F0070096
:1013F000A8420ED25748006820F0070028435549FC
:1014000008600846006800F00700A84201D00120EB
:10141000E9E7207800F0020002281DD1207800F0D2
:101420000400042805D14C48406840F4E0604A4973
:101430004860207800F00800082805D14648406838
:1014400040F46050444948604348406820F0F00050
:10145000A168084340494860207800F0010078B353
:101460006068012806D13C48006800F4003090B95B
:101470000120B8E76068022806D13748006800F00C
:10148000007040B90120AEE73348006800F0020068
:1014900008B90120A7E73048406820F003006168E0
:1014A00008432D494860FFF79FFE064609E0FFF715
:1014B0009BFE801B41F28831884202D9032092E7CB
:1014C00007E02548406800F00C006168B0EB810F30
:1014D000EDD12048006800F00700A8420ED91D4851
:1014E000006820F0070028431A4908600846006891
:1014F00000F00700A84201D0012074E7207800F036
:101500000400042807D11448406820F4E060E16832
:10151000084311494860207800F00800082808D1E5
:101520000D48406820F46050216940EAC1000A4932
:10153000486000F03FF808494968C1F30311074AC1
:10154000515CC8400649086006480068FFF772FE13
:10155000002048E70020024000100240D475000837
:101560000C000020040000200148006870470000C3
:101570000C00002000B5FFF7F7FF04494968C1F3EC
:101580000221034A515CC84000BD00000010024027
:10159000E475000800B5FFF7E7FF04494968C1F3A7
:1015A000C221034A515CC84000BD00000010024047
:1015B000E475000870B500210022002400230020FB
:1015C000134D696801F00C05F5B1042D02D0082D0A
:1015D00019D101E00F4819E00F4DC1F38346AB5D0F
:1015E00001F4803555B10A4D6D68C5F340450B4E89
:1015F000725D084D5D43B5FBF2F402E0084D03FB5C
:1016000005F4204602E000BF024800BF00BF70BDE5
:101610000010024000127A00C2750008D27500085E
:1016200000093D00F8B504460CB90120F8BD20784A
:1016300000F00100002878D0F848406800F00C0065
:1016400004280CD0F548406800F00C00082811D19F
:10165000F248406800F48030B0F5803F0AD1EF488E
:10166000006800F4003000285FD0606800285CD17A
:101670000120DBE700BF6068B0F5803F06D1E74896
:10168000006840F48030E549086028E0606858B997
:10169000E248006820F48030E049086008460068AD
:1016A00020F4802008601AE06068B0F5A02F0BD10C
:1016B000DA48006840F48020D8490860084600688D
:1016C00040F4803008600AE0D448006820F480309C
:1016D000D24908600846006820F48020086000BFF6
:1016E000606888B1FFF780FD054606E0FFF77CFDE6
:1016F000401B642801D9032098E7C848006800F41B
:1017000000300028F2D010E0FFF76EFD054606E03D
:10171000FFF76AFD401B642801D9032086E7BF4814
:10172000006800F400300028F2D1207800F00200B8
:10173000022857D1B948406800F00C0050B1B748B2
:10174000406800F00C00082818D1B448406800F444
:10175000803098B9B148006800F0020020B12069DB
:10176000012801D0012061E7AC48006820F0F800B2
:10177000616940EAC100A949086033E02069E8B125
:101780000120A7490860FFF72FFD054606E0FFF797
:101790002BFD401B022801D9032047E79F48006822
:1017A00000F002000028F2D09C48006820F0F80009
:1017B000616940EAC1009949086013E00020984936
:1017C0000860FFF711FD054606E0FFF70DFD401B21
:1017D000022801D9032029E79048006800F00200A0
:1017E0000028F2D1207800F0080008282DD1A06947
:1017F000B8B101208B490860FFF7F6FC054606E00A
:10180000FFF7F2FC401B022801D903200EE78348B2
:10181000406A00F002000028F2D0012001F04AFEE8
:1018200013E000207F490860FFF7DEFC054606E074
:10183000FFF7DAFC401B022801D90320F6E67748BF
:10184000406A00F002000028F2D1207800F0040085
:10185000042873D100277148C06900F0805070B926
:1018600000BF6E48C06940F080506C49C8610846AE
:10187000C06900F08050009000BF00BF01276A4897
:10188000006800F48070B0B96748006840F4807068
:1018900065490860FFF7A8FC054606E0FFF7A4FCD1
:1018A000401B642801D90320C0E65F48006800F4AB
:1018B00080700028F2D000BFE068012806D15748A8
:1018C000006A40F001005549086227E0E06858B915
:1018D0005248006A20F00100504908620846006A38
:1018E00020F00400086219E0E06805280BD14B489D
:1018F000006A40F00400494908620846006A40F066
:10190000010008620AE04548006A20F001004349EE
:1019100008620846006A20F00400086200BFE06820
:10192000A0B1FFF761FC054609E0FFF75DFC401B35
:1019300041F28831884202D9032077E622E0374815
:10194000006A00F002000028EFD012E0FFF74CFC24
:10195000054608E0FFF748FC401B41F28831884209
:1019600001D9032062E62D48006A00F00200002839
:10197000F0D1012F05D12948C06920F080502749B6
:10198000C86100BFE069C8B32448406800F00C009B
:10199000082860D0E069022848D100202049086664
:1019A000FFF722FC054606E0FFF71EFC401B02285D
:1019B00001D903203AE61948006800F000700028B9
:1019C000F2D1206AB0F5803F07D11448406820F476
:1019D0000030A168084311494860D4E90801084370
:1019E0000E49496821F4741108430C4948600120EC
:1019F0000B490866FFF7F8FB054607E03DE0FFF7F7
:101A0000F3FB401B022801D903200FE603480068BE
:101A100000F000700028F2D02FE00000001002401B
:101A200000004242800442420070004000201449FD
:101A30000866FFF7D9FB054606E0FFF7D5FB401B1C
:101A4000022801D90320F1E50E48006800F000707B
:101A50000028F2D111E0E069012800D1E6E509484B
:101A6000466806F48031206A814204D106F4701180
:101A7000606A814201D00120D8E50020D6E500004F
:101A8000000042420010024070B504462546681E20
:101A9000B0F1807F01D301200FE0681E4FF0E021FC
:101AA00048610F214FF0FF3002F006FA00204FF09E
:101AB000E021886107200861002070BD70477047F1
:101AC0007047000030B502460B4600BF92F83C005C
:101AD000012801D1022030BD012082F83C0000BF66
:101AE000022082F83D00106844681068816824F084
:101AF00070041868044310684460144D1068A842CC
:101B000013D0134D1068A8420FD01068B0F1804F69
:101B10000BD0104D1068A84207D00F4D1068A84296
:101B200003D00E4D1068A84205D121F080015868FD
:101B3000014310688160012082F83D0000BF002051
:101B400082F83C0000BF00BFC5E70000002C014048
:101B5000003401400004004000080040000C004038
:101B600010B504460CB9012010BD94F83D0060B9D1
:101B7000002084F83C00204601F044FEA06C08B927
:101B80001448A0642046A16C8847022084F83D00D8
:101B9000211D206801F0E6FC012084F8460000BF0A
:101BA00084F83E0001213F2001554020015541208D
:101BB000015500BF00BF012084F8420043200155B9
:101BC000442001554520015500BF012084F83D0007
:101BD0000020C9E7D91B000838B504462068B0F1D9
:101BE000804F2AD100BF6F48C06940F001006D49A5
:101BF000C8610846C06900F00100009000BF00BF46
:101C000069486A490860102048600021674881607F
:101C10008021C16049000161890041610021816129
:101C20004FF44051C161FEF7AFFF08B1FEF797FCDA
:101C300000BF5E4820624462B2E05D49206888428D
:101C400030D100BF5748C06940F002005549C86113
:101C50000846C06900F00200009000BF00BF524873
:101C600014305449086010204860002151488160B8
:101C70008021C160490001618900416100218161C9
:101C80004FF44051C161FEF77FFF08B1FEF767FCDA
:101C900000BF484921630846446200BF00BF20627C
:101CA00044627DE04449206888422BD100BF3D4812
:101CB000C06940F004003B49C8610846C06900F0B3
:101CC0000400009000BF00BF374864303B49086003
:101CD000102048600021394881608021C16049009E
:101CE000016189004161002181614FF44051C1616E
:101CF000FEF74AFF08B1FEF732FC00BF2F48206212
:101D000044624DE02E49206888422FD100BF25480B
:101D1000C06940F008002349C8610846C06900F066
:101D20000800009000BF00BF264827490860102027
:101D300048600021244881608021C1604900016120
:101D400089004161002181614FF44051C161FEF77A
:101D50001BFF08B1FEF703FC00BF1B49E162084608
:101D6000446200BF00BF2062446219E01749206846
:101D7000884215D100BF0B48C06940F010000949E6
:101D8000C8610846C06900F01000009000BF00BFA5
:101D900000220E213620FFF7CFFA3620FFF7BCFADB
:101DA00038BD0000001002401C000240E405002085
:101DB0000004004028060020000800406C060020B7
:101DC000000C00401C040240B0060020001000403F
:101DD000014691F83D00012801D001207047022002
:101DE00081F83D00164B0868984213D0154B0868DF
:101DF00098420FD00868B0F1804F0BD0124B0868A2
:101E0000984207D0114B0868984203D0104B0868DD
:101E100098420CD10868806800F00702062A0CD0AE
:101E20000868006840F001000B68186005E0086869
:101E3000006840F001000B6818600020CEE7000049
:101E4000002C014000340140000400400008004024
:101E5000000C0040014691F83D00012801D001200E
:101E60007047022081F83D000868C06840F001001A
:101E70000B68D860164B0868984213D0154B086859
:101E800098420FD00868B0F1804F0BD0124B086811
:101E9000984207D0114B0868984203D0104B08684D
:101EA00098420CD10868806800F00702062A0CD01E
:101EB0000868006840F001000B68186005E00868D9
:101EC000006840F001000B6818600020C8E70000BF
:101ED000002C014000340140000400400008004094
:101EE000000C00402DE9F04104460D46002700BFDC
:101EF00094F83C00012802D10220BDE8F0810120C5
:101F000084F83C0000BF022084F83D002068866809
:101F100026F0770626F47F462068866028685028D9
:101F200033D00CDC202850D004DC00284BD0102803
:101F300051D149E0302849D040284CD139E06028BF
:101F40002DD0702807D0B0F5805F03D0B0F5005FCA
:101F500041D10DE041E0D5E902136A68206801F043
:101F600060FB2068866846F077062068866034E06B
:101F7000D5E902136A68206801F053FB2068806885
:101F800040F480402168886027E0EA68696820683A
:101F900001F070FC5021206801F04EFB1DE0EA6862
:101FA0006968206801F079FC6021206801F044FB39
:101FB00013E0EA686968206801F05CFC4021206851
:101FC00001F03AFB09E000BF00BF00BF29682068AC
:101FD00001F032FB01E0012700BF00BF012084F8BF
:101FE0003D0000BF002084F83C0000BF384684E775
:101FF00070477047704710B5044620680069C0F309
:102000004000F0B12068C068C0F34000C8B16FF074
:10201000020021680861012020772068806900F0B3
:10202000030020B12046D4F89010884707E02046EE
:10203000D4F8981088472046D4F89C108847002090
:10204000207720680069C0F38000F0B12068C06884
:10205000C0F38000C8B16FF004002168086102205D
:1020600020772068806900F4407020B12046D4F8C1
:102070009010884707E02046D4F8981088472046FB
:10208000D4F89C1088470020207720680069C0F3AE
:10209000C000F0B12068C068C0F3C000C8B16FF0E4
:1020A000080021680861042020772068C06900F0DA
:1020B000030020B12046D4F89010884707E020465E
:1020C000D4F8981088472046D4F89C108847002000
:1020D000207720680069C0F30010F0B12068C06864
:1020E000C0F30010C8B16FF010002168086108202B
:1020F00020772068C06900F4407020B12046D4F8F1
:102100009010884707E02046D4F89810884720466A
:10211000D4F89C108847002020772068006900F0E0
:10212000010060B12068C06800F0010038B16FF0B4
:102130000100216808612046D4F880108847206893
:102140000069C0F3C01060B12068C068C0F3C0105F
:1021500038B16FF08000216808612046D4F8B010D3
:10216000884720680069C0F3801060B12068C068AB
:10217000C0F3801038B16FF040002168086120463C
:10218000D4F88810884720680069C0F3401060B117
:102190002068C068C0F3401038B16FF0200021689B
:1021A00008612046D4F8A810884710BD10B586B045
:1021B0000446002002900390049005902068B0F13E
:1021C000804F21D100BF3A48806940F0080038496B
:1021D00088610846806900F00800019000BF00BFD8
:1021E0000820029002200390059002A93148FEF7D2
:1021F0004BFE00BF3049486820F4407040F0E0607A
:1022000040F48070486051E02C492068884217D122
:1022100000BF2748806940F00800254988610846CA
:10222000806900F00800019000BF00BF012002900B
:1022300002200390059002A91E48FEF725FE35E016
:102240001F492068884217D100BF1948806940F0B3
:102250000800174988610846806900F0080001906D
:1022600000BF00BF4020029002200390059002A909
:102270001048FEF709FE19E012492068884215D17E
:1022800000BF0B48806940F0040009498861084696
:10229000806900F00400019000BF00BF022002909E
:1022A0000390059002A90848FEF7EEFD06B010BDA8
:1022B00000100240000C01400000014000040040FA
:1022C00000080040000C0040000801402DE9F041EA
:1022D00004460E461546002700BF94F83C0001282E
:1022E00002D10220BDE8F081012084F83C0000BF4B
:1022F00035B1042D09D0082D0CD00C2D14D10EE0D1
:102300003146206801F0A2F910E03146206801F062
:10231000D5F90BE03146206801F00EFA06E03146AF
:10232000206801F045FA01E0012700BF00BF00BFAF
:10233000002084F83C0000BF3846D3E77047000017
:1023400070B504460D4615B994F83E000BE0042D17
:1023500002D13F20005D06E0082D02D14020005D43
:1023600001E04120005D012801D0012070BD1DB9B0
:10237000022084F83E000EE0042D03D102213F200C
:10238000015508E0082D03D102214020015502E04B
:1023900002214120015501222946206801F030F92F
:1023A0001F492068884203D01E492068884201D115
:1023B000012000E0002028B12068406C40F400407B
:1023C0002168486416492068884213D0154920685E
:1023D00088420FD02068B0F1804F0BD0124920689E
:1023E000884207D011492068884203D010492068EC
:1023F00088420CD12068806800F00706062E0CD0B9
:102400002068006840F001002168086005E020684D
:10241000006840F00100216808600020A6E7000085
:10242000002C01400034014000040040000800403E
:10243000000C004030B504460D46002229462068B5
:1024400001F0DEF823492068884203D02249206841
:10245000884201D1012000E0002090B100BF206837
:10246000006A41F21111084050B92068006A8910D1
:10247000084028B92068406C20F400402168486476
:1024800000BF00BF2068006A41F21111084050B936
:102490002068006A8910084028B92068006820F088
:1024A00001002168086000BF1DB9012084F83E00CA
:1024B0000EE0042D03D101213F20015508E0082D35
:1024C00003D101214020015502E0012141200155A5
:1024D000002030BD002C0140003401402DE9F041C6
:1024E00004460D461646002700BF94F83C0001281C
:1024F00002D10220BDE8F081012084F83C0000BF39
:1025000036B1042E1BD0082E31D00C2E5ED145E002
:102510002946206801F09AF82068806940F0080098
:10252000216888612068806920F004002168886142
:1025300020688069296908432168886148E0294644
:10254000206801F0BBF82068806940F400602168D1
:1025500088612068806920F4806021688861206833
:102560008069296940EA01202168886130E02946B4
:10257000206801F0E1F82068C06940F00800216897
:10258000C8612068C06920F004002168C861206823
:10259000C069296908432168C86119E02946206893
:1025A00001F006F92068C06940F400602168C86144
:1025B0002068C06920F480602168C8612068C06913
:1025C000296940EA01202168C86101E0012700BFB4
:1025D00000BF00BF002084F83C0000BF384689E7F8
:1025E00010B504460CB9012010BD94F83D0060B947
:1025F000002084F83C00204601F004F9206E08B960
:10260000144820662046216E8847022084F83D0049
:10261000211D206800F0A6FF012084F8460000BFBD
:1026200084F83E0001213F20015540200155412002
:10263000015500BF00BF012084F84200432001552E
:10264000442001554520015500BF012084F83D007C
:102650000020C9E759260008704770477047704747
:10266000704710B5034600240AB9012010BD93F845
:102670003D00012857D11B2952D2DFE801F00E108E
:10268000121416181A1C1E20222426282A2D303334
:1026900036393C3F4245484B4E009A6442E0DA648A
:1026A00040E01A653EE05A653CE09A653AE0DA653A
:1026B00038E01A6636E05A6634E09A6632E0DA6646
:1026C00030E01A672EE05A672CE09A672AE0DA6752
:1026D00028E0C3F8802025E0C3F8842022E0C3F876
:1026E00088201FE0C3F88C201CE0C3F8902019E07C
:1026F000C3F8942016E0C3F8982013E0C3F89C2098
:1027000010E0C3F8A0200DE0C3F8A4200AE0C3F84D
:10271000A82007E0C3F8AC2004E0C3F8B02001E033
:10272000012400BF2DE093F83D0048BB0E2924D2C0
:10273000DFE801F007090B0D0F11131517191B1D09
:102740001F219A641BE0DA6419E01A6517E05A65E4
:1027500015E09A6513E0DA6511E01A660FE05A6633
:102760000DE09A660BE0DA6609E01A6707E05A673F
:1027700005E09A6703E0DA6701E0012400BF00E0AA
:102780000124204672E770477047F8B504460E46AC
:10279000174694F8420020282ED106B10FB9012027
:1027A000F8BD01202063002060633A463146204690
:1027B00001F0DCFA0546EDB9206B012819D100BF04
:1027C0000020009020680068009020684068009019
:1027D00000BF00BF00BF00BF21680C3151E8001FDF
:1027E00041F0100021680C3141E80002002AF3D1C9
:1027F00000E001252846D3E70220D1E77047704763
:1028000070477047704700002DE9F84F0446206874
:1028100005682068C668206847694FF00009CA4605
:1028200005F00F09B9F1000F0AD105F0200038B109
:1028300006F0200020B1204601F09CF9BDE8F88F99
:10284000B9F1000F7BD007F0010018B906F49070C1
:10285000002874D005F0010030B106F4807018B182
:10286000606C40F00100606405F0040030B107F0D6
:10287000010018B1606C40F00200606405F00200D5
:1028800030B107F0010018B1606C40F004006064E2
:1028900005F0080048B106F0200010B907F001006B
:1028A00018B1606C40F008006064606C002845D08E
:1028B00005F0200028B106F0200010B1204601F0FC
:1028C00059F920684069C0F3801A606C00F0080074
:1028D00010B9BAF1000F2CD0204601F0CCF82068D6
:1028E000406900F0400000B300BF00BF2168143110
:1028F00051E8001F21F040002168143141E8000236
:10290000002AF3D100BFE06B50B17748E16B486318
:10291000E06BFDF753FE88B1E06B416B88470DE03B
:102920002046A16D884709E009E02046A16D88474F
:1029300004E02046A16D8847002060647EE7206B9C
:10294000012877D105F01000002873D006F01000A0
:102950000028FAD000BF0020009020680068009096
:1029600020684068009000BF00BF2068406900F008
:10297000400000285FD0E06B006840681FFA80F8D4
:10298000B8F1000F55D0A08D404552DDA4F82E803F
:10299000E06B8069202843D000BF00BF21680C3164
:1029A00051E8001F21F4807021680C3141E80002D9
:1029B000002AF3D100BF00BF00BF2168143151E8E5
:1029C000001F21F001002168143141E80002002AB3
:1029D000F3D100BF00BF00BF2168143151E8001FD0
:1029E00021F040002168143141E80002002AF3D1AF
:1029F00000BF202084F842000020206300BF00BFF9
:102A000021680C3151E8001F21F0100021680C31C1
:102A100041E80002002AF3D100BFE06BFDF7A2FD00
:102A200002206063A08DE38DC01A81B22046E26E61
:102A3000904703E742E0A08DE18D401A1FFA80F82D
:102A4000E08DD0B3B8F1000F37D000BF00BF2168D0
:102A50000C3151E8001F21F4907021680C3141E8DD
:102A60000002002AF3D100BF00BF00BF216814316B
:102A700051E8001F21F001002168143141E80002F3
:102A8000002AF3D100BF202084F8420000202063F8
:102A900000BF00BF21680C3151E8001F21F0100079
:102AA00021680C3141E80002002AF3D100BF022066
:102AB000606341462046E26E9047BFE605F0800025
:102AC00030B106F0800018B1204601F0B3F9B5E648
:102AD00005F0400030B106F0400018B1204601F08A
:102AE00000F8ABE600BFA9E6D538000810B50446EB
:102AF0000CB9012010BDA06900B100E000BF94F83E
:102B0000410060B9002084F84000204601F00CF834
:102B1000206F08B9164820672046216F8847242077
:102B200084F841002068C06820F400502168C86023
:102B3000204601F09DF82068006920F4904021684B
:102B400008612068406920F02A00216848612068F7
:102B5000C06840F400502168C860002060642020F4
:102B600084F8410084F842000020606300BFC1E7A0
:102B7000F12B000810B5044618492068884214D18A
:102B80001748C06920F400201549C8614FF440611E
:102B90001448FEF7CFF8E06BFDF7E4FDA06BFDF7FE
:102BA000E1FD3420FEF796FB17E00F4920688842CC
:102BB00013D10B48806920F48040094988614FF4A3
:102BC000C0610A48FEF7B6F8E06BFDF7CBFDA06BDD
:102BD000FDF7C8FD2520FEF77DFB10BD004C004031
:102BE0000010024000100140003801400008014080
:102BF00010B586B004460020029003900490059022
:102C00007049206888426BD100BF6F48C06940F4AA
:102C100000206D49C8610846C06900F40020019099
:102C200000BF00BF00BF0846806940F01000886107
:102C30000846806900F01000019000BF00BF081531
:102C40000290022003900320059002A95F48FEF73E
:102C50001BF94FF4006002900020039001200490C3
:102C600002A95A48FEF710F959485A49086000204D
:102C700048600021574881608021C16000210161C6
:102C800041618161C161FDF77FFF08B1FDF767FC1C
:102C900000BF5048E063446200BF4D4828304E49B1
:102CA00008601020486000214B4881608021C1608D
:102CB0000021016141618161C161FDF765FF08B1DA
:102CC000FDF74DFC00BF4448A063446200BF0022F2
:102CD00001213420FEF730FB3420FEF71DFB6EE0AF
:102CE0003E49206888426AD100BF3748806940F475
:102CF0008040354988610846806900F48040019031
:102D000000BF00BF00BF0846806940F00400886132
:102D10000846806900F00400019000BF00BF48151C
:102D20000290022003900320059002A92C48FEF790
:102D3000ABF84FF4806002900020039001200490D3
:102D400002A92748FEF7A0F8264827490860002076
:102D500048600021244881608021C1600021016118
:102D600041618161C161FDF70FFF08B1FDF7F7FB1C
:102D700000BF1D48E063446200BF1A4814381B4975
:102D80000860102048600021184881608021C160DF
:102D90000021016141618161C161FDF7F5FE08B16A
:102DA000FDF7DDFB00BF1148A063446200BF0022B5
:102DB00001212520FEF7C0FA2520FEF7ADFA06B066
:102DC00010BD0000004C0040001002400010014007
:102DD00030040240E40700202808002000380140A9
:102DE00000080140580002406C080020B008002094
:102DF00010B5034600242AB9586C40F020005864EE
:102E0000012010BD93F84100202825D10D291CD2A6
:102E1000DFE801F007090B0D0F1113151B1B1B1722
:102E200019009A6417E0DA6415E01A6513E05A6530
:102E300011E09A650FE0DA650DE01A660BE05A665C
:102E400009E01A6707E05A6705E0586C40F0200077
:102E50005864012400BF17E093F8410078B90B29AA
:102E600002D00C2904D101E01A6707E05A6705E097
:102E7000586C40F020005864012400BF04E0586CF6
:102E800040F02000586401242046BAE7024600239F
:102E900029B9506C40F0200050640120704700BFF9
:102EA00092F84000012801D10220F7E7012082F8C2
:102EB000400000BF92F84100202801D1D16604E013
:102EC000506C40F020005064012300BF002082F8C5
:102ED000400000BF1846E1E770477047F7B5044669
:102EE000154694F84100202836D1019800B10DB95B
:102EF0000120FEBD01982062A584E5840020606465
:102F0000212084F841001548A16B88621448A16B08
:102F1000C8621448A16B08630020A16B486301AE2E
:102F200023681A1D31682B46A06BFDF7A0FE6FF0D9
:102F300040002168086000BF00BF2168143151E8DB
:102F4000001F41F080002168143141E80002002A8E
:102F5000F3D100BF0020CCE70220CAE7113A0008F5
:102F6000693A0008E93800087047704700BFFEE77B
:102F700070B506460D4614462946304604F0E8F87A
:102F800001D2284670BD2146304604F0E1F901D255
:102F90002046F7E73046F5E708B500BF2D48406901
:102FA00040F001002B4948610846406900F00100EB
:102FB000009000BF00BF00BF0846406940F002001B
:102FC00048610846406900F00200009000BF00BF61
:102FD000002211460C20FEF7AFF90C20FEF79CF9F9
:102FE000002211460D20FEF7A7F90D20FEF794F9F7
:102FF000002211460E20FEF79FF90E20FEF78CF9F5
:10300000002211460F20FEF797F90F20FEF784F9F2
:10301000002211461120FEF78FF91120FEF77CF9EE
:10302000002211463920FEF787F93920FEF774F99E
:10303000002202213A20FEF77FF93A20FEF76CF9D0
:10304000002211463B20FEF777F93B20FEF764F99A
:1030500008BD00000010024000B585B000200190BE
:1030600002900390049000BF3A48806940F020002D
:10307000384988610846806900F02000009000BF50
:1030800000BF00BF0846806940F004008861084620
:10309000806900F00400009000BF00BF00BF084638
:1030A000806940F0100088610846806900F01000D7
:1030B000009000BF00BF00BF0846806940F00800D4
:1030C00088610846806900F00800009000BF00BFDA
:1030D000002240F63C012048FEF780F80122C02182
:1030E0001D48FEF77BF8012230211C48FEF776F8D8
:1030F000012202211A48FEF771F800220421184823
:10310000FEF76CF840F6FC000190012002900020D0
:1031100003900220049001A90F48FDF7B5FE30206E
:10312000019001200290002003900220049001A948
:103130000A48FDF7A9FE0620019001200290002018
:1031400003900220049001A90548FDF79DFE05B0FB
:1031500000BD0000001002400008014000100140C6
:10316000000C014000B58DB0002009900A900B9032
:103170000C90079008901C216846FDF708F94FF065
:1031800080401E4908604720486000211B4881603C
:10319000C160016180218161FEF7E2FC08B1FDF7A9
:1031A000DEF94FF48050099009A91448FEF79AFE01
:1031B00008B1FDF7D4F91148FFF712FA08B1FDF78D
:1031C000CEF900200790089007A90C48FEF77AFC7A
:1031D00008B1FDF7C4F96020009000200190029032
:1031E0000490042269460548FFF778F908B1FDF715
:1031F000B6F90248FEF7DAFF0DB000BD600200200C
:1032000000B58DB0002009900A900B900C900790AB
:1032100008901C216846FDF7BAF82048204908604C
:103220000020486000211E4881604FF6FF71C16098
:103230000021016180218161FEF792FC08B1FDF758
:103240008EF94FF48050099009A91548FEF74AFEFF
:1032500008B1FDF784F91248FFF7C2F908B1FDF78C
:103260007EF900200790089007A90D48FEF72AFC78
:1032700008B1FDF774F960200090002001900290E1
:103280000490082269460648FFF728F908B1FDF7BF
:1032900066F90348FEF78AFF0DB000BD0004004048
:1032A0001403002000B58DB0002009900A900B9007
:1032B0000C90079008901C216846FDF768F820489C
:1032C000204908600020486000211E4881604FF6B8
:1032D000FF71C160002101618161FEF741FC08B10D
:1032E000FDF73DF94FF48050099009A91548FEF704
:1032F000F9FD08B1FDF733F91248FFF771F908B18C
:10330000FDF72DF900200790089007A90D48FEF75A
:10331000D9FB08B1FDF723F960200090002001904F
:1033200002900490002269460648FFF7D7F808B1DA
:10333000FDF715F90348FEF739FF0DB000BD000099
:1033400000080040C803002000B58DB0002009909F
:103350000A900B900C90079008901C216846FDF78E
:1033600016F82048204908600020486000211E48C7
:1033700081604FF6FF71C160002101618161FEF73C
:10338000EFFB08B1FDF7EBF84FF48050099009A965
:103390001548FEF7A7FD08B1FDF7E1F81248FFF761
:1033A0001FF908B1FDF7DBF800200790089007A986
:1033B0000D48FEF787FB08B1FDF7D1F860200090BB
:1033C0000020019002900490042269460648FFF70D
:1033D00085F808B1FDF7C3F80348FEF7E7FE0DB026
:1033E00000BD0000000C00407C0400201CB5002043
:1033F000009001900E480F49086047204860002166
:103400000C4881604FF47A71C16000218161FEF740
:10341000A7FB08B1FDF7A3F80020009001906946D2
:103420000448FEF74FFB08B1FDF799F81CBD0000FA
:10343000001000403005002010B50B480B49086013
:103440004FF4E1304860002108488160C1600161AB
:103450000C21416100218161C161FFF747FB08B187
:10346000FDF77DF810BD0000004C0040F406002080
:1034700010B50B480B4908604FF4E130486000215B
:1034800008488160C16001610C21416100218161B6
:10349000C161FFF72BFB08B1FDF761F810BD00001B
:1034A000003801406C07002000BFFEE700BFFEE7C8
:1034B0007047000008B508490968C9084FF47A72D6
:1034C000B1FBF2F14143009100BF00BF00994A1ED9
:1034D00000920029F9D108BD0C000020704710B5FA
:1034E000FDF788FE10BD00B58FB0282105A8FCF7B8
:1034F0004EFF14216846FCF74AFF092005904FF45F
:103500008030069000200790012009900B90022047
:103510000C90C1030D914FF4E0110E9105A8FEF738
:1035200081F808B1FDF71BF80F20009002200190F0
:10353000002002904FF4806003900020049002214C
:103540006846FDF74BFF08B1FDF709F80FB000BD65
:103550007047000010B50248FEF74DFD10BD000099
:103560003005002010B50268204B98420ED0204B49
:1035700098420BD0B0F1804F08D01E4B984205D036
:103580001D4B984202D01D4B984203D122F070028D
:103590004B681A43154B98420ED0154B98420BD0EE
:1035A000B0F1804F08D0134B984205D0124B98428F
:1035B00002D0124B984203D122F44072CB681A43D6
:1035C00022F080034C6943EA040202608B68C36204
:1035D0000B688362054B984202D0054B984201D19B
:1035E0000B6903630123436110BD0000002C0140FF
:1035F000003401400004004000080040000C00407E
:1036000030B501F01F05012404FA05F3046A9C4358
:103610000462046A01F01F0502FA05F52C430462F6
:1036200030BD30B50C46816821F47F4142EA032564
:1036300025432943816030BD0A46816821F070012D
:1036400042F00703194381607047000030B5026AF9
:10365000056A25F0010505624368846924F0700459
:1036600024F003040D682C4322F002028D682A43E3
:10367000104DA84200D103E00F4DA84206D100BF73
:1036800022F00802CD682A4322F00402094DA84224
:1036900002D0094DA84207D123F4807323F40073AC
:1036A0004D692B438D692B43436084614D684563AD
:1036B000026230BD002C01400034014030B5026A86
:1036C000056A25F0100505624368846924F4E04426
:1036D00024F440740D6844EA052422F020028D6829
:1036E00042EA0512124DA84200D103E0114DA84252
:1036F00007D100BF22F08002CD6842EA051222F015
:1037000040020B4DA84202D00A4DA84209D123F431
:10371000806323F400634D6943EA85038D6943EABE
:103720008503436084614D688563026230BD00009B
:10373000002C01400034014030B5026A056A25F4CE
:10374000807505624368C46924F0700424F00304A2
:103750000D682C4322F400728D6842EA0522124D56
:10376000A84200D103E0114DA84207D100BF22F4C6
:103770000062CD6842EA052222F480620A4DA84226
:1037800002D00A4DA84209D123F4805323F40053F8
:103790004D6943EA05138D6943EA05134360C4612B
:1037A0004D68C563026230BD002C01400034014009
:1037B00030B5036A056A25F4805505624468C2691C
:1037C00022F4E04222F440720D6842EA052223F41A
:1037D00000538D6843EA0533084DA84202D0084DD6
:1037E000A84204D124F480444D6944EA851444601D
:1037F000C2614D680564036230BD0000002C0140C9
:10380000003401400E4940F8801F0E4941600E49C6
:1038100081600E49C1600E4901610E4941610E4946
:1038200081610E49C1610E4901620E4941620E4932
:1038300081620E49C1620E49016380387047000001
:103840005F260008612600088727000889270008EE
:10385000F31F0008F51F00083D2300085B26000841
:103860005D260008F11F0008BF1A0008C11A0008F1
:10387000BD1A000830B50B461446026A056A25F0E9
:1038800001050562816921F0F00141EA041122F08D
:103890000A021A438161026230BD30B50B461446FC
:1038A000026A056A25F010050562816921F47041FC
:1038B00041EA043122F0A00242EA0312816102626D
:1038C00030BD000010B50248FEF79EFF10BD00009D
:1038D000F406002070B505466C6A0020E085E0849F
:1038E0002046A16D884770BD70B5054600266C6AFC
:1038F00020684069C0F3C01694F84100212805D122
:1039000026B10020E084204600F0FBF820684069E2
:10391000C0F3801694F84200222805D126B1002079
:10392000E085204600F0A7F8606C40F0100060646D
:103930002046A16D884770BD70B505466C6A286841
:10394000006800F02000002842D1E08500BF00BFE1
:1039500021680C3151E8001F21F4807021680C317E
:1039600041E80002002AF3D100BF00BF00BF216878
:10397000143151E8001F21F001002168143141E8A1
:103980000002002AF3D100BF00BF00BF216814313C
:1039900051E8001F21F040002168143141E8000285
:1039A000002AF3D100BF202084F84200206B0128B8
:1039B0000ED100BF00BF21680C3151E8001F21F07B
:1039C000100021680C3141E80002002AF3D100BF49
:1039D00000206063206B012804D1A18D2046E26E97
:1039E000904702E02046616D884770BD70B505467E
:1039F0006C6A01206063206B012805D1A08D41080D
:103A00002046E26E904702E02046216D884770BD57
:103A100070B505466C6A2868006800F02000F8B9A7
:103A20000020E08400BF00BF2168143151E8001F6E
:103A300021F080002168143141E80002002AF3D10E
:103A400000BF00BF00BF21680C3151E8001F41F0EA
:103A5000400021680C3141E80002002AF3D102E065
:103A60002046E16C884770BD70B50446656A2846FB
:103A7000A96C884770BD00BF00BF02680C3252E8D5
:103A8000002F22F4907102680C3242E80013002BE0
:103A9000F3D100BF00BF00BF0268143252E8002F0C
:103AA00022F001010268143242E80013002BF3D126
:103AB00000BF016B01290ED100BF00BF02680C32AC
:103AC00052E8002F22F0100102680C3242E8001385
:103AD000002BF3D100BF202180F8421000210163A8
:103AE000704710B504462068C06820F04000216887
:103AF000C860202084F841002046E16C88470020FF
:103B000010BD00BF00BF02680C3252E8002F22F047
:103B1000C00102680C3242E80013002BF3D100BF51
:103B2000202180F841107047094981640949C16426
:103B30000949016509494165094981650949C16525
:103B400009490166094941660949C1667047000093
:103B50006B2F0008692F0008DB2E0008D92E000803
:103B600005280008FF27000803280008012800088E
:103B7000FD270008F8B5044694F84200222875D1C4
:103B8000A068B0F5805F0CD1206950B90025A66A05
:103B900020684068C0F308003080A06A801CA062E2
:103BA00015E0A56A0026A068B0F5805F03D0A06884
:103BB00028B9206918B920684068287004E0206896
:103BC000406800F07F002870A06A401CA062E08D71
:103BD000401E80B2E085002846D12068C06820F0F1
:103BE00020002168C8602068C06820F480702168C7
:103BF000C8602068406920F00100216848612020E9
:103C000084F8420000206063206B012826D1002048
:103C1000206300BF00BF21680C3151E8001F21F074
:103C2000100021680C3141E80002002AF3D100BFE6
:103C30002068006800F0100010280AD100BF0020A2
:103C4000009020680068009020684068009000BFE5
:103C500000BFA18D2046E26E904702E02046616DD4
:103C600088470020F8BD01E00020FBE70220F9E7CB
:103C700070B504462168096921F44051E268114396
:103C8000226811612269A1681143626941EA020553
:103C90002168C96841F20C62914329432268D160CE
:103CA0002168496921F44071A26911432268516178
:103CB0002D4A2168914202D1FDF76CFC01E0FDF72D
:103CC00059FC00EBC00101EB001162689200B1FBEE
:103CD000F2F100EBC00202EB001263689B00B2FB42
:103CE000F3F26423B2FBF3F202EBC20303EB021222
:103CF000A1EB8201322202EB01116422B1FBF2F14D
:103D000001F0F00100EBC00202EB001263689B00BF
:103D1000B2FBF3F26423B2FBF3F201EB021200EB0D
:103D2000C00101EB001163689B00B1FBF3F100EBF4
:103D3000C00303EB00136668B600B3FBF6F364261A
:103D4000B3FBF6F303EBC30606EB0313A1EB83010E
:103D5000322303EB01116423B1FBF3F101F00F01F6
:103D600011442268916070BD0038014077B581B080
:103D7000044615460298A062A585002060642220B2
:103D800084F842002848E16B88622848E16BC862E9
:103D90002748E16B08630020E16B486302AE32689C
:103DA0002368191D2B46E06BFCF761FF00BF002064
:103DB000009020680068009020684068009000BF74
:103DC00000BF206970B100BF00BF21680C3151E80D
:103DD000001F41F4807021680C3141E80002002A84
:103DE000F3D100BF00BF00BF2168143151E8001FAC
:103DF00041F001002168143141E80002002AF3D1AA
:103E000000BF00BF00BF2168143151E8001F41F01E
:103E100040002168143141E80002002AF3D100BFBC
:103E2000002004B070BD000039390008ED390008E9
:103E3000E9380008014691F84100212828D1886816
:103E4000B0F5805F0BD1086948B90A6A1088C0F3E1
:103E500008000B685860086A801C086205E00B6A5D
:103E6000581C086218780B685860C88C401E80B2D5
:103E7000C88458B90868C06820F080000B68D86012
:103E80000868C06840F040000B68D86000207047A8
:103E90000220FCE710B50248FEF7B6FC10BD00009A
:103EA0006C07002000BFFEE702480068C0F3022054
:103EB000704700000CED00E010B5002804DB0A0795
:103EC000130E054A135406E00A07140E034A00F0C5
:103ED0000F031B1FD45410BD00E400E018ED00E0F8
:103EE0000748007828B107480078054909788842D2
:103EF00003DB00200349087070470120FCE7000045
:103F0000160000201000002070B504462078062816
:103F100000DB70BD002519E02078194901EB05117F
:103F20000978884211D1607804280ED1A08805282C
:103F30000BD1FDF759F9124901EB051188601048C2
:103F400000EB0511D4F80700C8606D1C042DE3DBFD
:103F500020780C49097888420FD1607804280CD168
:103F6000A088092809D1FDF73FF906498860D4F8EF
:103F70000720CA60D4F80B00086100BFC9E7000041
:103F80000009002040090020F8B54648007808B92B
:103F90000020F8BDFFF7A4FF08B90020F9E7424868
:103FA00000F037FE0546414841490978445C022645
:103FB000022D16D10121204601F0FAFF3A4800F007
:103FC0004DFE384801783A48007802F061F83849E7
:103FD00008700846007808B9002000E00220064674
:103FE0005DE0314890F8A800022816D10021204653
:103FF00001F0DEFF2C4800F031FE2A4801782C4801
:10400000007802F045F82A4908700846007808B997
:10401000002000E00220064641E0234800F0EEFDCB
:1040200000283CD10221204601F0C2FF01270122D5
:10403000D1022048FDF7D2F8042C09DC022000232D
:10404000042221460090184800F0ECFE074608E0E4
:1040500004200023024621460090134800F0E2FEAF
:104060000746DFB100224FF400611248FDF7B6F8B1
:104070000121204601F09CFF0B4800F0EFFD0948AC
:1040800001780B48007802F003F8094908700846E7
:10409000007808B9002000E00220064600BF304644
:1040A00077E70000160000205409002011000020CE
:1040B000100000200008014000201C4908701C4826
:1040C00000210160017100201A49087000BF17E04B
:1040D000194901EB0011497861B9174901EB001149
:1040E0000978134A114B1B78D15410490978491C9F
:1040F0000E4A1170104901EB00110022CA60401CE9
:104100000428E5DB0D48407850B90C480178084890
:10411000064A1278815405480078401C034908700B
:1041200006480021C16001617047000016000020B0
:10413000110000201000002000090020400900208C
:1041400010B5044600224FF400610248FDF746F81E
:1041500010BD0000000801400A48807A28B90A48CA
:104160000088401C0849088002E0002006490880B9
:1041700005480088B0F5FA6F03DD00200349087098
:1041800048707047C80C00202C0000202000002040
:1041900030B5034A02EB01153CCD80E83C0030BD50
:1041A0000009002004490A6802604A6842600A89DE
:1041B0000281897A81727047F408002010B50E4A96
:1041C0000E490F4800F0ACFD0E490D4800F010FEFE
:1041D0000D4A0E490E4800F023FC012005E0411E67
:1041E0000C4B03EB01110870401C0528F7DB052080
:1041F0000949087010BD0000093F00086C07002045
:1042000054090020414100082D430008F406002015
:10421000180C002000090020400900207FB501A8EB
:10422000FFF7C0FF36480199016002994160BDF86F
:104230000C1001819DF80E108172FFF78DFF304840
:10424000807A012852D101F0ADFE2D48007890B956
:1042500001202C4908700020487000BF08E0284960
:10426000491C01EB40010988274A22F81010401C24
:104270000428F4DB43E02248007801283FD10020E5
:10428000204908701E48407A012838D100242AE0CD
:1042900021466846FFF77CFF0025002634B1012C3B
:1042A00007D0022C08D0032C0CD108E0174D402673
:1042B00008E0164D802605E0154D102602E0144D4D
:1042C000202600BF00BF9DF80200012805D1002272
:1042D00031462846FCF782FF04E001223146284699
:1042E000FCF77CFF641C042CD2DB08E00448807AD5
:1042F000022804D100F0FCF808B901F053FE7FBD9C
:10430000C80C0020200000201800002000080140F8
:104310000010014010B5034800F07AFD024800F09B
:10432000E5FB10BD54090020180C0020F0B587B043
:1043300004460D466548007800287DD12A4621466E
:10434000684600F005FA0646002E6FD101205F494D
:1043500088729DF80000012859D1002008709DF84E
:10436000020000F0010080F00100594948709DF8FA
:104370000200012121EA5001554841749DF80200D4
:10438000012121EA9001524880F821109DF8020095
:10439000012121EAD0014E4880F831109DF8020039
:1043A000012121EA10104B49487000202CE0022224
:1043B00002EB40030DF10202D35C012202EB400745
:1043C0000DF10202D25D43EA022141F27072914284
:1043D00000DD114630B1012808D002280AD0032898
:1043E00010D10BE0394AA2F801100BE0374AA2F8CD
:1043F000031007E0354AA2F8051003E0334AA2F89B
:10440000071000BF00BF401C0428D0DB13E09DF85C
:1044100000000F280FD101202C49087000BF00F0C8
:104420005DF80028FBD106E006E0FFE702202749FF
:10443000887207B0F0BD47E024480078012843D1D6
:1044400020780F2836D16078062833D1E078A1781B
:1044500040EA012001282DD106212046FCF70CF866
:10446000E179A27941EA022188421FD1012017494E
:1044700088724872607900F0010080F001001449F0
:1044800088706079012121EA5001114881746079B6
:10449000012121EA90010E4880F822106079012163
:1044A00021EAD0010A4880F832100DE002200749C5
:1044B000887209E0012005498872002048722A4666
:1044C0002146054800F02AFB00BFB2E7F4080020AF
:1044D00000090020400900205409002010B50023E5
:1044E0001A460F21014800F07DF910BD180C00207C
:1044F00010B500231A46F021014800F073F910BDF1
:10450000180C002010B5002007E00B490B4A02EB05
:104510000012D26841F82020401C0428F5DB06492F
:10452000074AD2E90302C1E904020B46182202211C
:10453000044800F057F910BDB00C0020000900201D
:1045400040090020180C002010B500F0E1FCFFF736
:1045500035FE034A0349044800F0E4F910BD0000A9
:104560006D450008300500202400002010B5FFF73D
:1045700055FE1C48007801282BD11A48407830B1EC
:1045800001280AD002280FD0032820D113E0FFF71A
:1045900093FD0120134948701AE0FFF7F5FC10B9AC
:1045A00002201049487013E0FFF7ACFF10B9032058
:1045B0000C4948700CE0002406E00B4A32F8141055
:1045C000E0B201F071FC641C042CF6DB00E000BFDB
:1045D00007E0002403E0E0B201F08AFC641C042C34
:1045E000F9DB10BD200000201800002010B5FFF7F7
:1045F00091FE024800F0BEF910BD0000240000202A
:104600002DE9F04114461D4606460F4601F097FE7F
:1046100000F07040B0F1005F0FD0201C18BF0120E7
:10462000284320F00040C0F17F6000F1E040C00F5F
:1046300002BF20462946BDE8F08130463946BDE834
:10464000F0812DE9F04114461D4606460F4601F063
:1046500076FE00F07040B0F1004F0FD0201C18BF64
:104660000120284320F00040C0F17F6000F1E040CD
:10467000C00F02BF20462946BDE8F08130463946CA
:10468000BDE8F0812DE9F84F05460026284602F0E6
:104690004BFD0746114902F0FDFB04461049204638
:1046A00002F08AFD21460090204602F085FD8346F7
:1046B0000C4902F081FD8246009902F07DFB8146A3
:1046C000094902F009FF8046044902F075FD0746DA
:1046D00002F0F2FC86B23046BDE8F88F00002041BF
:1046E0003466803F2FBDA2B6145A663F2DE9F041D3
:1046F00004460D4604B135B94FF4C8712846FBF79E
:1047000024FEBDE8F081A68A2EB94FF4C871284670
:10471000FBF71BFEF5E7C82E01D3C82000E03046AA
:104720008046A6EB080707B900274FF4C871284652
:10473000FBF70BFE002007E03A1804F1160131F8F0
:10474000121025F81010401C4045F5D300BFD8E7E3
:104750002DE9F05F80460D461746062F02DA02204B
:10476000BDE8F09F002409E0285D5A2804D1601CB0
:10477000285CA52800D104E0601C84B2781EA04209
:10478000F2DC00BF781EA04201DC0120E8E7E01C5B
:104790002E5C06F1060A04EB0A00B84201DD022095
:1047A000DEE7311D2819FBF767FE8146601D3044A6
:1047B000295C201D3044285C41EA002BD94501D0FA
:1047C0000320CDE7A01C285C88F8000088F8016071
:1047D000201D2918324608F10200FBF737FD0020A2
:1047E000BEE700002DE9F0478146884615461E4683
:1047F000182D02DD0120BDE8F08700245A22214651
:10480000641C16484254A5222146641C4254214689
:10481000641C00F801802146641C4554002D06DD0F
:104820002EB1014608192A463146FBF70FFD6019E3
:1048300084B221460948FBF71FFE07463A0A204684
:10484000611C8CB205490A542046611C8CB2034994
:104850000F542246484600F061F9CCE7CC7C00209A
:10486000FCF7D4FCFEF73FFEFEF7F6FBFEF794FBE9
:10487000FEF778FCFEF7C4FCFEF714FDFEF764FDBE
:10488000FEF7B4FDFEF7D8FDFEF7F2FDFFF75CFE84
:10489000FFF7ACFE02E00120FCF738FAFBE700006E
:1048A0000146194A0868904201D101207047086802
:1048B000B0F1804F01D10220F8E7144A0868904215
:1048C00001D10320F2E7124A0868904201D1042086
:1048D000ECE7104A0868904201D10520E6E70E4A4D
:1048E0000868904201D10620E0E70C4A086890422F
:1048F00001D10720DAE70A4A0868904201D108206E
:10490000D4E70020D2E70000002C01400004004062
:1049100000080040000C004000100040001400405F
:104920000034014070B504460D46164625606660A9
:104930002846FFF7B5FF044941F82040034A0E21FD
:104940002846FDF78EFE70BD1C7E002051490008F0
:1049500070B505462846FFF7A3FF0446044850F803
:10496000240020B1024951F824104868804770BDE6
:104970001C7E002010B504462068FDF76BFA10BDC0
:1049800070B504460D46207B08B9012000E00020E8
:104990002073A4F89450606858B1E9B2237B0BB936
:1049A000012600E0002604F10D0303EB8610626887
:1049B0009047204600F09AF8FCF716FCC4F89000E7
:1049C00070BD000070B50546284600F00DF804469D
:1049D000044850F8240020B1024951F8240000F0A6
:1049E0004BF870BDF07D002001460A4A08689042ED
:1049F00001D101207047084A0868904201D1022085
:104A0000F8E7064A0868904201D10320F2E7002047
:104A1000F0E700000038014000440040004800403A
:104A20002DE9F04104460D46164625602846FFF75D
:104A3000DBFF07460A4840F8274006B1666009498F
:104A40002846FEF723FA084A01212846FEF7D0F946
:104A5000064A04212846FEF7CBF9BDE8F0810000A4
:104A6000F07D0020C54A00084D4B0008C5490008EC
:104A700001B181607047000010B50446206800B99C
:104A800010BD00202168486400BF216881F8400003
:104A900000BF2068FEF76EF82068FEF7A9F8074906
:104AA0002068FEF7F3F9064A04212068FEF7A0F912
:104AB000204600F01BF800BFE2E70000C54A0008EE
:104AC000C549000870B505460E462846FFF78CFF1D
:104AD0000446054850F8240028B1034951F8240041
:104AE0003146FFF74DFF70BDF07D002010B5044644
:104AF000237B04F10D0202EB831140222068FDF7B5
:104B000044FE84F896002068C06B0068006820F0BE
:104B100004002168C96B0968086010BD70B50446BF
:104B20000D4616462068806B90F82100012807D1B9
:104B3000324629462068FEF7D1F984F8970002E052
:104B4000012084F8970094F8970070BD70B5054671
:104B50002846FFF749FF0446074850F8240050B1A3
:104B6000054850F82400806828B1034850F8240014
:104B700081682846884770BDF07D00202DE9F04708
:104B800081460C4615461F460CB105B117B90120E8
:104B9000BDE8F0872078F72802DC6078042801D08F
:104BA0000120F5E7A088FD2801DD0420F0E70026BC
:104BB00022783146761C6A5462783146761C6A54F3
:104BC000A088002807DDA288A819A11DFBF73EFBDD
:104BD000A088304486B231462846FBF74DFC80461B
:104BE0004FEA18223046711C8EB22A543046711C8E
:104BF0008EB205F800803E800020C9E7014609B961
:104C00000020704791F8A800012800D1F9E70020A2
:104C1000F7E770B504460CB9012070BDFCF7E4FA63
:104C2000054694F8A800012810D1D4F8AC00281A41
:104C3000D4F8A41088420FD9032084F8A800D4F82F
:104C4000C002401CC4F8C0020220E6E794F8A800A5
:104C5000042801D10520E0E70020DEE710B5044676
:104C600074B1002084F8A8004FF4827104F1B00000
:104C7000FBF76BFB4FF4827104F5DA70FBF765FB11
:104C800010BD70B504460D461CB115B1D4F89C009A
:104C900000B970BD2846D4F89C10884700BFF8E7DB
:104CA0002DE9F04781460D4616461C4615B10CB15C
:104CB000042E02DA0420BDE8F087701E295CB01EC5
:104CC000285C41EA0027B11E2846FBF7D5FB804649
:104CD000474501D00320EEE74FF482712046FBF7F1
:104CE00034FB2878207068786070301FA08060786E
:104CF00000F0800018B1A878A0710420DBE7A0883C
:104D0000002809DDA088FD2801DD0420D3E7A28862
:104D1000A91CA01DFBF79AFA67800020CBE70000D2
:104D200070B504460D46164604B10DB9012070BD9C
:104D30004FF431712046FBF72AFB8C3444F88C5C2D
:104D4000E56026610420A06100202077FCF74CFA82
:104D500020628C3C04480460044A29462046FFF740
:104D60005FFE0020E3E700005C000020F14E000839
:104D70002DE9F04105460E4617463C460CB105B1FB
:104D80000EB9BDE8F08194F8A800012800D0F8E73A
:104D9000164B324629462046FFF782FF8046B8F17F
:104DA000000F19D11148007894F8B01088421BD137
:104DB0004FF482720D4904F1B000FBF747FA02206C
:104DC00084F8A800D4F8BC02401CC4F8BC0207490F
:104DD0002046FFF756FF07E0D4F8C002401CC4F895
:104DE000C002042084F8A80000BFCAE7EA7C0020C3
:104DF00070B504460D460CB9012070BD0DB1C4F864
:104E0000A0502046D4F8A010FFF732FE0020F4E7AF
:104E100010B504460CB9012010BD2046FFF766FE10
:104E20000020F9E72DE9F047ADF5027D04460D4677
:104E3000174698468A9E5CB1042F09D145B1F72DDB
:104E400006DC2EB17D2E03DC2046FFF7D7FE20B115
:104E500001200DF5027DBDE8F0874FF4827141A875
:104E6000FBF795FA8DF804518DF805710420ADF823
:104E700008014FEA18208DF80A018DF80B81310ADC
:104E800041A8017246726B4601AA41A92046FFF76C
:104E900075FE8246BAF1000F01D05046D9E7BDF841
:104EA000002001A92046FFF739FE8146B9F1000F25
:104EB00009D0D4F8C002401CC4F8C002042084F811
:104EC000A8000520C5E74FF4827241A904F1B000A3
:104ED000FBF7BCF9012084F8A800FCF785F9C4F8B9
:104EE000AC00D4F8B802401CC4F8B8020020B0E707
:104EF00070B504460D460548006828B103482946A8
:104F000002682046FFF734FF70BD00005C000020FF
:104F100008B504200F4B02460F490090002000F016
:104F2000FFFA08200B4B02460C490090012000F0CC
:104F3000F7FA1020074B002209490090022000F0E8
:104F4000EFFA2020034B042206490090032000F0D2
:104F5000E7FA08BD000801406002002014030020A9
:104F6000C80300207C04002010B50446042C00DB9C
:104F700010BD40F2E36262430F4B03EB820241F645
:104F800078331A44928991B240F2E36262430A4B49
:104F900003EB820241F678331A4490680022FCF752
:104FA0001DF9002140F2E3606043034A02EB8000F8
:104FB000816000BFDCE70000D40C002070B505461E
:104FC00001200C490860002410E040F2E3606043D7
:104FD000094901EB800641F678308059006AA84201
:104FE00002D1204600F08CFF601CC4B2042CECDB24
:104FF00070BD000058000020D40C00202DE9F041C5
:1050000005461DB141F67830405908B9BDE8F08138
:1050100041F678304659346A04B9F7E794F821002C
:1050200002280ED12046FBF79DFA074647B12068BB
:10503000006820F0010021680860012084F8210048
:105040000BE094F8401001208840E16B4860306824
:10505000C06820F480703168C86000BFD6E70000E7
:105060002DE9F84F06462A480068401C2849086088
:10507000002548E040F2E3606843264901EB8004E4
:1050800041F678300059006AB0423BD141F6883091
:10509000005DB0BB022041F68831214448700421F4
:1050A0001D48FCF791F80120607041F678310959EC
:1050B0000968C96A88B202F037F881464FF07E511C
:1050C00001F07AFE074641F6783109590968886A85
:1050D00002F02AF84FF07E51009001F06DFE8346F9
:1050E00059460E4801F0D6FE82460D4901F0D2FE27
:1050F00081460C4902F060F88046394601F0CAFE4C
:10510000A06002E06D1C042DB4DB00BFBDE8F88F89
:1051100054000020D40C0020000C01404054894C65
:105120000000C845000070422DE9F04707468A4656
:105130009046994604213D48FCF746F83C480068F3
:10514000401C3B490860042F05DABAF1000F02D079
:10515000B8F1000F02D10120BDE8F08740F2E36012
:105160007843344901EB800541F678304659346A7A
:105170000CB90120F0E72846FFF740FF41F67830F0
:10518000284441683046FDF755F9B9F1010F01D1C6
:10519000202100E00021A1610021A1608021E160C7
:1051A0004900216189006161102060602046FBF7A1
:1051B000EBFC08B10120CFE71F4A00212046FBF796
:1051C00029FD1E4A02212046FBF724FD002141F65D
:1051D00078304059006841623068C06840F480709F
:1051E0003168C8603046FCF7F3FD306800F12C02EE
:1051F000434651462046FBF73AFD08B10120ABE794
:1052000041F67830284441683046FDF799F808B1F6
:105210000120A1E741F6883000F80590012041F611
:10522000883129444870002096E70000000C0140B6
:1052300050000020D40C002061500008BD4F000831
:1052400010B50446042C00DB10BD40F2E36262435B
:105250000B4B03EB820241F678331A44928991B2E8
:1052600040F2E3626243064B03EB820241F678337D
:105270001A4490680122FBF7B1FF00BFE4E7000089
:10528000D40C00202DE9F04F8DB08246884640F2C4
:10529000E3600AFB00F0954901EB8004A4F810805C
:1052A000404601F041FF0646914901F085FF0C9010
:1052B000608A0B902046FFF7A1FE41F6583104F1B9
:1052C0001600FBF742F88B490C9801F075FF079028
:1052D0000B9801F029FF4FF07E51049001F06CFD16
:1052E00006463146844801F0D5FD8449059001F019
:1052F00063FF0690079901F0CDFD4FF07E510890B5
:1053000002F0EAF88346584601F02AFDCDE904018F
:1053100000F074FECDE9060101F0E0F90A900A9868
:1053200001F0EAFE0646594602F043F80990744936
:10533000099801F041FF064601F012FDCDE9040194
:1053400000F05CFECDE9060101F0C8F907463846D9
:1053500001F0F3F902460B46CDE90201002069494C
:10536000FFF76FF902460B46CDE9040100206649BC
:10537000FFF746F9CDE9060101F0B0F90746002034
:1053800005E0624A0A9942F82010411CC8B2072879
:10539000F7DB002512E0002F07DD5C4850F8250000
:1053A000401C5A4941F8250006E0584850F82500AD
:1053B000401E564941F82500681CC5B2381E01DB65
:1053C000014600E04142A942E5DC002619E04F49D0
:1053D00051F8260001F090FE4D4A4E490790FDF726
:1053E000C7FD089001F04CFE484941F826000846E8
:1053F00030F8260081B204F1160020F81610701C57
:10540000C6B2072EE3DB4FF00009002657E004F197
:10541000160131F8160001F087FE4FF07E5106901C
:1054200001F0CAFC08900B9801F07EFE4FF07E510F
:10543000039001F0C1FC014604902F4801F02AFDC1
:105440002C49059001F026FD2C49069001F0B4FE90
:105450000790089901F01EFD2F4941F8260004F13C
:10546000160131F8160001F05FFE4FF07E510490F6
:1054700001F0A2FC06900B9801F056FE4FF07E5111
:10548000019001F099FC014602901B4801F002FDD9
:105490001849039001F0FEFC1849049001F08CFEBD
:1054A0000590069901F0F6FC1549079001F0F2FC11
:1054B0004946089001F080FC8146701CC6B2072E58
:1054C000A5DBC4F808900721A18241F67830005985
:1054D0000068C06A11490860A28A012304F116011C
:1054E0005046FFF721FE0DB0BDE8F08FD40C002030
:1054F000CDCCCC3D0000C8454054894C00007042E2
:105500000000E04000001C4000001CC0B07C0020F7
:1055100000FF7F470000C842947C00204C00002020
:105520002DE9F04104460D4616461F46DDF8188069
:1055300040F2E36060432F4901F82040002140F22F
:10554000E36060432B4A02EB8000417040F2E3606D
:10555000604302EB8000816040F2E361614302EB53
:10556000810101F1160041F65831FAF7EEFE0021F3
:1055700040F2E36060431F4A02EB8000018240F288
:10558000E3606043114601EB800000F58050C0F8F5
:10559000785B40F2E360604301EB800041F67831D4
:1055A0000844466040F2E3606043114601EB80002E
:1055B00041F678310844876040F2E3606043114669
:1055C00001EB800041F678310844C0F80C800021DE
:1055D00040F2E360604302EB8000C16040F2E360B0
:1055E000604302EB80000171204600F089FCBDE8B9
:1055F000F0810000D40C00202DE9FF4F93B0174636
:10560000FE480068401CFD490860149801F08CFDBC
:105610008346FB4901F0D0FD1290384601F084FD2D
:105620008346F74901F0C8FD119040F2E3611398F9
:105630004843F44901EB80042782608A1090204699
:10564000FFF7DCFC109801F06FFD4FF07E510890E1
:1056500001F0B2FB83465946EB4801F01BFC4FF0CA
:105660008F41099001F016FCE8490860E84912985A
:1056700001F0A2FD8346E74901F00CFC0F90E449DC
:10568000119801F099FD8346E24901F003FC0E9068
:10569000DDE90E0101F020FF0D900021119801F0CD
:1056A000BBFC05D11398FFF75FFC17B0BDE8F08F86
:1056B00000210D9801F04CFE01D2012001E04FF0D5
:1056C000FF300C900C9801F017FD8346169901F0FD
:1056D00073FD80460C9801F00FFD41F670310851C2
:1056E0000D9801F03DFB21F000414FF06042CA4BA4
:1056F000CDE9060100F09AFECDE9080100F014FDA5
:10570000834600F0FBFC814649464FF0804001F0A3
:1057100053FD0B904946484601F04EFD4FF07C5139
:105720000990404601F048FD0890099901F044FDB8
:1057300083460F9901F040FB0A90B44801680A982B
:1057400001F006FD02D2B14800680A90DDF83CA0E5
:105750000026002541F6583104F11600FAF7F5FD50
:10576000AA480168504601F0F3FC4ED25146A748C2
:10577000006801F0B1FE4FF08041019001F01CFD86
:105780000290169901F086FB039001F0E9FACDE949
:10579000040100F08DFCCDE9060100F0C5FC099084
:1057A0009E49099801F0D4FC01D29C4800E0099878
:1057B00009909648D0F800A0109801F0B5FC4FF081
:1057C0007E51039001F0F8FA014604908E4801F0F2
:1057D00061FB5146059001F05DFB4FF07E51069054
:1057E00001F07AFE8E4A8F490790FDF7C1FB0890C1
:1057F00001F062FC1FFA80FB2946681C85B204F1A7
:10580000160020F811B0099E00BF23E151464FF069
:105810007E5001F03FFB09903046099901F0CCFA27
:1058200006464946304601F093FC13D231463046D5
:1058300001F0C2FC4FF07C510690404601F0BCFCE8
:105840000590069901F0B8FC07900F9901F0B4FAA1
:10585000824630E04946404601F0AEFC494605909C
:1058600001F0AAFC414607904FF0804001F0A4FCF3
:105870004946029001F0A0FC3146039001F09CFCE7
:10588000414605904FF07C5001F096FC3146019066
:1058900001F092FC3146029001F08EFC03900F99CA
:1058A00001F087FD0490059901F086FA06900799AA
:1058B00001F012FE82460C98401C98B90E9801F037
:1058C0004FFACDE90401504601F04AFACDE9020150
:1058D000DDE90423FEF794FECDE9060100F024FC87
:1058E000824613E04948006801F03AFACDE9040124
:1058F000504601F035FACDE90201DDE90423FEF757
:105900007FFECDE9060100F00FFC8246109801F001
:105910000BFC4FF07E51029001F04EFA01460390CD
:10592000394801F0B7FA5146049001F0B3FA4FF04C
:105930007E51059001F0D0FD394A3A490690FDF7B5
:1059400017FB079001F0B8FB1FFA80FB2946681C83
:1059500085B204F1160020F811B0584601F0E4FBBE
:105960004FF07E51059001F027FA0790109801F052
:10597000DBFB4FF07E51029001F01EFA01460390CE
:10598000214801F087FA2249049001F083FA214965
:10599000059001F011FC0690079901F07BFA089040
:1059A0001199089801F098FD059001F0D9F921F0BE
:1059B00000414FF020421C4BCDE9060100F0D4FE1F
:1059C00047D24946304601F0C3FC42D8109801F056
:1059D000ABFB4FF07E51029001F0EEF901460390CF
:1059E000094801F057FA04900E9901F053FA4FF06C
:1059F0007E51059001F070FD094A17E04800002033
:105A0000CDCCCC3DD40C00204054894C4400002027
:105A10000000C84500007042FF697841BD378635F7
:105A200000FF7F470000C8429999B93F2F4906906F
:105A3000FDF79EFA079001F03FFB2D4908800846CC
:105A400002882946681C85B204F1160020F811204E
:105A50000AE000BF40F6AB50854205DA30460B99AC
:105A600001F076FBFFF4D2AE00BF49464FF0804014
:105A700001F0A2FB8346314601F06AFB28D810985A
:105A800001F052FB4FF07E51059001F095F98346ED
:105A90005946184801F0FEF906900E9901F0FAF9FE
:105AA0004FF07E51079001F017FD134A0F490890FF
:105AB000FDF75EFA099001F0FFFA0D4908800846EB
:105AC00002882946681C85B204F1160020F81120CE
:105AD00041F674300651A58200232A4604F11601CE
