:020000040800F2
:10000000E88400200D02000829350008F12E0008C0
:100010002535000873040008C33F000800000000F5
:10002000000000000000000000000000593500083A
:100030005D050008000000002D3500088B35000824
:1000400027020008270200082702000827020008EC
:1000500027020008270200082702000827020008DC
:1000600027020008270200082702000827020008CC
:10007000B1040008C1040008D1040008E10400082C
:1000800027020008F10400082702000827020008E0
:10009000270200082702000827020008270200089C
:1000A000270200082702000827020008270200088C
:1000B000270200082702000827020008270200087C
:1000C000270200082702000827020008270200086C
:1000D00027020008713F00082702000827020008D5
:1000E000270200082702000827020008270200084C
:1000F000270200082702000827020008270200083C
:10010000270200082702000827020008270200082B
:10011000A13900082702000801360008270200085C
:100120002702000801050008110500082105000844
:1001300000F002F800F05AF80AA090E8000C82449F
:100140008344AAF10107DA4501D100F04FF8AFF27C
:10015000090EBAE80F0013F0010F18BFFB1A43F0A5
:10016000010318472C6D00004C6D00000A444FF04D
:10017000000C10F8013B13F0070408BF10F8014B06
:100180001D1108BF10F8015B641E05D010F8016B4B
:10019000641E01F8016BF9D113F0080F1EBF10F8AF
:1001A000014BAD1C0C1B09D16D1E58BF01F801CBD2
:1001B000FAD505E014F8016B01F8016B6D1EF9D555
:1001C0009142D6D37047000000230024002500266A
:1001D000103A28BF78C1FBD8520728BF30C148BFAA
:1001E0000B6070471FB51FBD10B510BD00F00CF9B6
:1001F0001146FFF7F7FF04F047F800F02AF903B4BF
:10020000FFF7F2FF03BC00F02DF90000094880471A
:1002100009480047FEE7FEE7FEE7FEE7FEE7FEE7E8
:10022000FEE7FEE7FEE7FEE704480549054A064B00
:1002300070470000FD35000831010008E87C00200F
:10024000E8840020E8800020E8800020032A40F2B3
:10025000308010F0030C00F0158011F8013BBCF168
:10026000020F624498BF11F801CB00F8013B38BF80
:1002700011F8013BA2F1040298BF00F801CB38BF8E
:1002800000F8013B11F0030300F02580083AC0F0AC
:10029000088051F8043B083A51F804CBA0E8081054
:1002A000F5E7121D5CBF51F8043B40F8043BAFF387
:1002B0000080D20724BF11F8013B11F801CB48BFE1
:1002C00011F8012B24BF00F8013B00F801CB48BF17
:1002D00000F8012B704710B5203AC0F00B80B1E850
:1002E0001850203AA0E81850B1E81850A0E818506B
:1002F000BFF4F5AF5FEA027C24BFB1E81850A0E874
:10030000185044BF18C918C0BDE810405FEA827C8D
:1003100024BF51F8043B40F8043B08BF7047D207A4
:1003200028BF31F8023B48BF11F8012B28BF20F845
:10033000023B48BF00F8012B704702F0FF0343EA7D
:10034000032242EA024200F002B84FF00002042900
:10035000C0F0128010F0030C00F01B80CCF1040CF4
:10036000BCF1020F18BF00F8012BA8BF20F8022B28
:10037000A1EB0C0100F00DB85FEAC17C24BF00F8CE
:10038000012B00F8012B48BF00F8012B70474FF0FC
:10039000000200B5134694469646203922BFA0E8D5
:1003A0000C50A0E80C50B1F12001BFF4F7AF0907E1
:1003B00028BFA0E80C5048BF0CC05DF804EB8900D2
:1003C00028BF40F8042B08BF704748BF20F8022B15
:1003D00011F0804F18BF00F8012B7047704770472D
:1003E000704710B500F008F8006810BD10B504465D
:1003F00000F002F8046010BD00487047887C0020BF
:1004000000487047887C00207546FFF7F9FFAE462C
:1004100005006946534620F00700854618B020B510
:10042000FFF702FFBDE820404FF000064FF0000745
:100430004FF000084FF0000B21F00701AC46ACE88C
:10044000C009ACE8C009ACE8C009ACE8C0098D46F9
:10045000704710B50446AFF300802046BDE8104059
:10046000FFF7CDBE01491820ABBEFEE72600020013
:10047000704700BFFEE7000070B502460B46FF2440
:10048000FF25002100BF09E0565C86EA0400064E05
:10049000365C86EA0504054E355C491C9942F3DB5F
:1004A00045EA042070BD00005400002054010020E3
:1004B00010B5024800F09CF910BD0000D8050020DE
:1004C00010B5024800F094F910BD00001C06002091
:1004D00010B5024800F08CF910BD0000A4080020FF
:1004E00010B5024800F084F910BD0000600800203B
:1004F00010B5024800F07CF910BD00006006002035
:1005000010B5024800F074F910BD0000A4060020E8
:1005100010B5024800F06CF910BD0000D8070020AB
:1005200010B5024800F064F910BD00001C0800205E
:1005300030B590F840500124AC40C56B6C60046845
:1005400063604468102C04D10468A2600468E16010
:1005500003E00468A1600468E26030BD704772B6D1
:1005600000BFFEE70146002291F82100022808D0D2
:100570000420886300BF002081F8200000BF012014
:1005800070470868006820F00E000B681860086863
:10059000006820F001000B68186091F840300120DD
:1005A0009840CB6B5860012081F8210000BF0020EB
:1005B00081F8200000BF1046E2E7000070B5044655
:1005C000002594F82100022803D00420A06301250F
:1005D000C1E02068006820F00E00216808602068F3
:1005E000006820F00100216808605C4920688842AA
:1005F00052D95A4978392068884201D1012047E010
:10060000564964392068884201D1102040E053499E
:1006100050392068884201D1801539E04F493C3972
:100620002068884201D1801432E04C492839206882
:10063000884202D14FF480302AE0484914392068BA
:10064000884202D14FF4801022E044492068884259
:1006500001D140041CE042492068884201D10120B8
:1006600016E03F4914312068884201D110200FE084
:100670003B4928312068884201D1801508E038497B
:100680003C312068884201D1801401E04FF4803071
:100690003349091F086051E03049783920688842A1
:1006A00001D1012047E02D4964392068884201D1F9
:1006B000102040E0294950392068884201D1801536
:1006C00039E026493C392068884201D1801432E063
:1006D000224928392068884202D14FF480302AE02C
:1006E0001E4914392068884202D14FF4801022E05C
:1006F0001A492068884201D140041CE0184920684A
:10070000884201D1012016E0154914312068884241
:1007100001D110200FE0124928312068884201D110
:10072000801508E00E493C312068884201D18014D0
:1007300001E04FF48030094980394860012084F895
:10074000210000BF002084F8200000BF606B10B1C2
:100750002046616B8847284670BD0000800002403B
:1007600008040240014609B9012070470868006882
:1007700020F001000A68106000200A6810600A6812
:1007800050600A6890600A68D060174A0868904212
:100790000BD2164A0868801A1422B0FBF2F08000CF
:1007A000086412480838C8630AE00F4A0868801ACB
:1007B0001422B0FBF2F0800008640B480838C863CC
:1007C00091F8402001209040CA6B50600020886260
:1007D000C86208634863886381F8210000BF81F81C
:1007E000200000BF00BFC0E708040240080002402C
:1007F00070B50446E06B05682068066894F8401000
:10080000042088402840002875D006F00400002805
:10081000FAD02068006800F0200028B9206800683D
:1008200020F0040021680860D5492068884254D926
:10083000D34978392068884201D1042049E0D04961
:1008400064392068884201D1402042E0CC495039C7
:100850002068884201D100153BE0C9493C39206835
:10086000884202D14FF4804033E0C54928392068DE
:10087000884202D14FF480202BE0C149143920680E
:10088000884202D14FF4800023E0BD4920688842AD
:1008900001D1C0041DE0BB492068884201D1042079
:1008A00017E0B84914312068884201D1402010E097
:1008B000B44928312068884201D1001509E0B149C6
:1008C0003C312068884202D14FF4804001E04FF46F
:1008D0008020AC49091F086054E0A9497839206894
:1008E000884201D104204AE0A54964392068884241
:1008F00002D1402043E04CE0A149503920688842B1
:1009000001D100153BE09E493C392068884202D164
:100910004FF4804033E09A4928392068884202D158
:100920004FF480202BE0964914392068884202D188
:100930004FF4800023E092492068884201D1C0042E
:100940001DE090492068884201D1042017E08D49BC
:1009500014312068884201D1402010E089492831B3
:100960002068884201D1001509E086493C312068A1
:10097000884202D14FF4804001E04FF4802080494A
:1009800080394860E06A002802D02046E16A884742
:10099000F4E094F84010022088402840002871D0EC
:1009A00006F002000028FAD02068006800F020005D
:1009B00040B92068006820F00A0021680860012022
:1009C00084F821006E492068884254D96C497839EE
:1009D0002068884201D1022049E0694964392068D1
:1009E000884201D1202042E0654950392068884280
:1009F00001D140153BE062493C392068884202D170
:100A00004FF4005033E05E4928392068884202D113
:100A10004FF400302BE05A4914392068884202D143
:100A20004FF4001023E056492068884201D1800429
:100A30001DE054492068884201D1022017E0514945
:100A400014312068884201D1202010E04D4928311E
:100A50002068884201D1401509E04A493C312068AC
:100A6000884202D14FF4005001E04FF40030454974
:100A7000091F086054E0424978392068884202D151
:100A800002204AE057E03E4964392068884201D19B
:100A9000202042E03A4950392068884201D140156F
:100AA0003BE037493C392068884202D14FF400507E
:100AB00033E0334928392068884202D14FF40030AE
:100AC0002BE02F4914392068884202D14FF40010DE
:100AD00023E02B492068884201D180041DE0294988
:100AE0002068884201D1022017E02649143120688D
:100AF000884201D1202010E0224928312068884214
:100B000001D1401509E01F493C312068884202D1DB
:100B10004FF4005001E04FF400301949803948602B
:100B200000BF002084F8200000BFA06A30B3204638
:100B3000A16A884722E094F84010082088402840A5
:100B4000E0B106F00800C8B12068006820F00E008F
:100B50002168086094F8401001208840E16B4860EB
:100B60000120A06384F8210000BF002084F8200049
:100B700000BF206B10B12046216B884770BD00007C
:100B800080000240080402400146002209B9012009
:100B900070471E4B086898420BD21D4B0868C01A5C
:100BA0001423B0FBF3F08000086419480838C863C8
:100BB0000AE0164B0868C01A1423B0FBF3F080005B
:100BC000086412480838C863022081F821000868C8
:100BD000026843F6F0708243D1E901031843CB6801
:100BE00018430B6918434B6918438B691843CB6949
:100BF000184302430868026000208863012081F8DE
:100C00002100002081F8200000BFC1E70804024055
:100C10000800024010B50346002400BF93F82000EE
:100C2000012801D1022010BD012083F8200000BF5F
:100C300093F82100012812D131B1012906D00229EF
:100C400006D0032908D105E09A6207E0DA6205E0E0
:100C50001A6303E05A6301E0012400BF00E00124AD
:100C600000BF002083F8200000BF2046DBE72DE90D
:100C7000F04104460D4616461F464FF0000800BFDF
:100C800094F82000012802D10220BDE8F081012063
:100C900084F8200000BF94F8210001282CD1022004
:100CA00084F821000020A0632068006820F0010083
:100CB000216808603B46324629462046FFF738FC4B
:100CC000E06A30B12068006840F00E0021680860DA
:100CD0000BE02068006820F00400216808602068AC
:100CE000006840F00A00216808602068006840F051
:100CF00001002168086006E000BF002084F82000A1
:100D000000BF4FF002084046BFE7000070B5044640
:100D100000F06AFA06462546681C10B104480078BF
:100D2000054400BF00F060FA801BA842FAD370BDF2
:100D3000080000202DE9F04102460B4600208CE01F
:100D40000127874007EA030100296FD0464F4FEA89
:100D5000900C57F82C4087074FEA177C0F2707FAAB
:100D60000CF73C40414FBA4201D1002719E0404FF7
:100D7000BA4201D1012714E03E4FBA4201D1022705
:100D80000FE03D4FBA4201D103270AE03B4FBA4280
:100D900001D1042705E03A4FBA4201D1052700E00E
:100DA00006274FEA807C4FEA1C7C07FA0CF7A74223
:100DB00032D1344F3F688F43DFF8C8C0CCF80070A1
:100DC0000CF104073F688F430CF1040CCCF8007061
:100DD0002C4F0C373F688F43DFF8A8C00CF10C0C88
:100DE000CCF80070ACF104073F688F43ACF1040C01
:100DF000CCF8007087074FEA177C0F2707FA0CF42E
:100E0000194F4FEA900C57F82C70A743DFF858C0E1
:100E10004FEA90084CF82870FF2901D8174600E0E7
:100E2000171D3D46FF2902D8870003E014E0A0F11A
:100E30000807BF003E462F684FF00F0C0CFA06FC67
:100E400027EA0C074FF0040C0CFA06FC47EA0C07E3
:100E50002F60D7688F43D760401C23FA00F7002F1C
:100E60007FF46EAFBDE8F08108000140000801404A
:100E7000000C014000100140001401400018014026
:100E8000001C0140000401402DE9F8470246002300
:100E90009C467BE14FF0010808FA03F4D1F800808A
:100EA00008EA0400A0427DD1DFF8F4A2D1F8048062
:100EB000A8EB0A09D0453AD014DCB8F1030F50D0A2
:100EC00009DCB8F1000F31D0B8F1010F1CD0B8F136
:100ED000020F49D120E0B8F1110F18D0B8F1120F6C
:100EE00042D11EE0B9F5881F25D006DCB9F5803F58
:100EF00020D0B9F5801F37D11AE0B9F5001F18D0FE
:100F0000B9F5041F30D117E0D1F80CC02DE0D1F8AD
:100F10000C8008F1040C28E0D1F80C8008F1080CD2
:100F200023E0D1F80C8008F10C0C1EE000BF00BFDC
:100F300000BF00BF00BF00BFD1F80880B8F1000FAC
:100F400002D14FF0040C0BE0D1F80880B8F1010F8A
:100F500003D14FF0080C146102E04FF0080C54610B
:100F600003E04FF0000C00E000BF00BFFF2801D8F5
:100F7000904601E002F104084646FF2802D84FEAF5
:100F8000830803E0A3F108084FEA88084746D6F82B
:100F900000804FF00F0909FA07F928EA09080CFA4E
:100FA00007F900E07AE048EA0908C6F80080D1F8BD
:100FB000048008F08058B8F1805F6FD100BFDFF87F
:100FC000E481D8F8188048F00108DFF8D891C9F812
:100FD0001880C846D8F8188008F00108CDF80080BD
:100FE00000BF00BF4FEAB9384FEA930958F82950BB
:100FF0004FEA83784FEA18794FF00F0808FA09F89A
:1010000025EA0805DFF8A081424502D14FF000082B
:1010100024E0DFF89881424502D14FF001081DE03D
:10102000DFF88C81424502D14FF0020816E0DFF86C
:101030008481424502D14FF003080FE0DFF8788148
:10104000424502D14FF0040808E0DFF870814245C4
:1010500002D14FF0050801E04FF006084FEA83790E
:101060004FEA197908FA09F848EA0505DFF85081CE
:101070004FEA930948F82950D1F8048008F4801801
:10108000B8F5801F0BD1DFF83C81D8F8008048EA22
:101090000008DFF83091C9F800800AE075E0DFF859
:1010A0002481D8F8008028EA0008DFF81891C9F8F0
:1010B0000080D1F8048008F40018B8F5001F0ED1A4
:1010C000DFF8008108F10408D8F8008048EA000839
:1010D000DFF8F09009F10409C9F800800DE0DFF8AD
:1010E000E48008F10408D8F8008028EA0008DFF856
:1010F000D49009F10409C9F80080D1F8048008F4FB
:101100000038B8F5003F0ED1DFF8B880A8F1040828
:10111000D8F8008048EA0008DFF8A890A9F104098F
:10112000C9F800800DE0DFF89C80A8F10408D8F829
:10113000008028EA0008DFF88C90A9F10409C9F8BA
:101140000080D1F8048008F48038B8F5803F0ED1D3
:10115000DFF87080A8F10808D8F8008048EA000895
:10116000DFF86090A9F10809C9F800800DE0DFF808
:101170005480A8F10808D8F8008028EA0008DFF8B1
:101180004490A9F10809C9F800805B1CD1F80080DF
:1011900028FA03F8B8F1000F7FF47CAEBDE8F887B9
:1011A000000011100010024000080140000C014036
:1011B000001001400014014000180140001C0140D3
:1011C000080001400804014010B5C26821EA02038A
:1011D00002EA010443EA0443036110BD0AB101615C
:1011E00001E00B040361704701480068704700008C
:1011F00000000020034800680349097808440149B9
:1012000008607047000000200800002010B5084862
:10121000006840F0100006490860032000F0CAF89A
:101220000F2000F007F800F02BF8002010BD0000A0
:101230000020024070B504460E4800784FF47A71E1
:10124000B1FBF0F00C490968B1FBF0F5284600F05D
:101250001BFC08B1012070BD102C07D200222146D2
:10126000501E00F069F80548046001E00120F2E733
:101270000020F0E7080000200C00002004000020FF
:1012800008B500BF1148806940F001000F4988612E
:101290000846806900F00100009000BF00BF00BF59
:1012A0000846C06940F08050C8610846C06900F037
:1012B0008050009000BF00BF00BF0549486820F083
:1012C000E06040F00070486000BF08BD00100240C0
:1012D0000000014010B501460846002817DB00F069
:1012E0001F0301229A400B4B440943F8242000BFFE
:1012F00000BF00BFBFF34F8F00BF00BF00BF00BFE4
:1013000000BF00BFBFF36F8F00BF00BF00BF00BFB3
:1013100010BD000080E100E001460846002809DB1E
:1013200000F01F0301229A4043099B0003F1E023D0
:10133000C3F8002100BF70472DE9F05F80460D46DD
:101340001646002702F040FE074639462A46334635
:1013500001F00700C0F1070ABAF1040F02D94FF0FB
:10136000040A01E0C0F1070AD14600F1040ABAF10B
:10137000070F02D24FF0000A01E0A0F1030AD446A1
:101380004FF0010A0AFA09FAAAF1010A0AEA020A66
:101390000AFA0CFA4FF0010B0BFA0CFBABF1010B44
:1013A0000BEA030B4AEA0B042146404602F014FE06
:1013B000BDE8F09F00BF00F00702064B19684FF62A
:1013C000FF031940044B0B4343EA0221014B196010
:1013D00000BF70470CED00E00000FA0570B5044650
:1013E0000D460CB9012070BD5A48006800F0070096
:1013F000A8420ED25748006820F0070028435549FC
:1014000008600846006800F00700A84201D00120EB
:10141000E9E7207800F0020002281DD1207800F0D2
:101420000400042805D14C48406840F4E0604A4973
:101430004860207800F00800082805D14648406838
:1014400040F46050444948604348406820F0F00050
:10145000A168084340494860207800F0010078B353
:101460006068012806D13C48006800F4003090B95B
:101470000120B8E76068022806D13748006800F00C
:10148000007040B90120AEE73348006800F0020068
:1014900008B90120A7E73048406820F003006168E0
:1014A00008432D494860FFF79FFE064609E0FFF715
:1014B0009BFE801B41F28831884202D9032092E7CB
:1014C00007E02548406800F00C006168B0EB810F30
:1014D000EDD12048006800F00700A8420ED91D4851
:1014E000006820F0070028431A4908600846006891
:1014F00000F00700A84201D0012074E7207800F036
:101500000400042807D11448406820F4E060E16832
:10151000084311494860207800F00800082808D1E5
:101520000D48406820F46050216940EAC1000A4932
:10153000486000F03FF808494968C1F30311074AC1
:10154000515CC8400649086006480068FFF772FE13
:10155000002048E70020024000100240786E00089A
:101560000C000020040000200148006870470000C3
:101570000C00002000B5FFF7F7FF04494968C1F3EC
:101580000221034A515CC84000BD00000010024027
:10159000886E000800B5FFF7E7FF04494968C1F30A
:1015A000C221034A515CC84000BD00000010024047
:1015B000886E000870B5002100220024002300205E
:1015C000134D696801F00C05F5B1042D02D0082D0A
:1015D00019D101E00F4819E00F4DC1F38346AB5D0F
:1015E00001F4803555B10A4D6D68C5F340450B4E89
:1015F000725D084D5D43B5FBF2F402E0084D03FB5C
:1016000005F4204602E000BF024800BF00BF70BDE5
:101610000010024000127A00666E0008766E000824
:1016200000093D00F8B504460CB90120F8BD20784A
:1016300000F00100002878D0F848406800F00C0065
:1016400004280CD0F548406800F00C00082811D19F
:10165000F248406800F48030B0F5803F0AD1EF488E
:10166000006800F4003000285FD0606800285CD17A
:101670000120DBE700BF6068B0F5803F06D1E74896
:10168000006840F48030E549086028E0606858B997
:10169000E248006820F48030E049086008460068AD
:1016A00020F4802008601AE06068B0F5A02F0BD10C
:1016B000DA48006840F48020D8490860084600688D
:1016C00040F4803008600AE0D448006820F480309C
:1016D000D24908600846006820F48020086000BFF6
:1016E000606888B1FFF780FD054606E0FFF77CFDE6
:1016F000401B642801D9032098E7C848006800F41B
:1017000000300028F2D010E0FFF76EFD054606E03D
:10171000FFF76AFD401B642801D9032086E7BF4814
:10172000006800F400300028F2D1207800F00200B8
:10173000022857D1B948406800F00C0050B1B748B2
:10174000406800F00C00082818D1B448406800F444
:10175000803098B9B148006800F0020020B12069DB
:10176000012801D0012061E7AC48006820F0F800B2
:10177000616940EAC100A949086033E02069E8B125
:101780000120A7490860FFF72FFD054606E0FFF797
:101790002BFD401B022801D9032047E79F48006822
:1017A00000F002000028F2D09C48006820F0F80009
:1017B000616940EAC1009949086013E00020984936
:1017C0000860FFF711FD054606E0FFF70DFD401B21
:1017D000022801D9032029E79048006800F00200A0
:1017E0000028F2D1207800F0080008282DD1A06947
:1017F000B8B101208B490860FFF7F6FC054606E00A
:10180000FFF7F2FC401B022801D903200EE78348B2
:10181000406A00F002000028F2D0012001F088FEAA
:1018200013E000207F490860FFF7DEFC054606E074
:10183000FFF7DAFC401B022801D90320F6E67748BF
:10184000406A00F002000028F2D1207800F0040085
:10185000042873D100277148C06900F0805070B926
:1018600000BF6E48C06940F080506C49C8610846AE
:10187000C06900F08050009000BF00BF01276A4897
:10188000006800F48070B0B96748006840F4807068
:1018900065490860FFF7A8FC054606E0FFF7A4FCD1
:1018A000401B642801D90320C0E65F48006800F4AB
:1018B00080700028F2D000BFE068012806D15748A8
:1018C000006A40F001005549086227E0E06858B915
:1018D0005248006A20F00100504908620846006A38
:1018E00020F00400086219E0E06805280BD14B489D
:1018F000006A40F00400494908620846006A40F066
:10190000010008620AE04548006A20F001004349EE
:1019100008620846006A20F00400086200BFE06820
:10192000A0B1FFF761FC054609E0FFF75DFC401B35
:1019300041F28831884202D9032077E622E0374815
:10194000006A00F002000028EFD012E0FFF74CFC24
:10195000054608E0FFF748FC401B41F28831884209
:1019600001D9032062E62D48006A00F00200002839
:10197000F0D1012F05D12948C06920F080502749B6
:10198000C86100BFE069C8B32448406800F00C009B
:10199000082860D0E069022848D100202049086664
:1019A000FFF722FC054606E0FFF71EFC401B02285D
:1019B00001D903203AE61948006800F000700028B9
:1019C000F2D1206AB0F5803F07D11448406820F476
:1019D0000030A168084311494860D4E90801084370
:1019E0000E49496821F4741108430C4948600120EC
:1019F0000B490866FFF7F8FB054607E03DE0FFF7F7
:101A0000F3FB401B022801D903200FE603480068BE
:101A100000F000700028F2D02FE00000001002401B
:101A200000004242800442420070004000201449FD
:101A30000866FFF7D9FB054606E0FFF7D5FB401B1C
:101A4000022801D90320F1E50E48006800F000707B
:101A50000028F2D111E0E069012800D1E6E509484B
:101A6000466806F48031206A814204D106F4701180
:101A7000606A814201D00120D8E50020D6E500004F
:101A8000000042420010024070B504462546681E20
:101A9000B0F1807F01D301200FE0681E4FF0E021FC
:101AA00048610F214FF0FF3002F096FA00204FF00E
:101AB000E021886107200861002070BD70477047F1
:101AC0007047000030B502460B4600BF92F83C005C
:101AD000012801D1022030BD012082F83C0000BF66
:101AE000022082F83D00106844681068816824F084
:101AF00070041868044310684460144D1068A842CC
:101B000013D0134D1068A8420FD01068B0F1804F69
:101B10000BD0104D1068A84207D00F4D1068A84296
:101B200003D00E4D1068A84205D121F080015868FD
:101B3000014310688160012082F83D0000BF002051
:101B400082F83C0000BF00BFC5E70000002C014048
:101B5000003401400004004000080040000C004038
:101B600010B504460CB9012010BD94F83D0060B9D1
:101B7000002084F83C00204601F0ACFEA06C08B9BF
:101B80001448A0642046A16C8847022084F83D00D8
:101B9000211D206801F03CFD012084F8460000BFB3
:101BA00084F83E0001213F2001554020015541208D
:101BB000015500BF00BF012084F8420043200155B9
:101BC000442001554520015500BF012084F83D0007
:101BD0000020C9E7D91B000838B504462068B0F1D9
:101BE000804F2AD100BF6F48C06940F001006D49A5
:101BF000C8610846C06900F00100009000BF00BF46
:101C000069486A490860102048600021674881607F
:101C10008021C16049000161890041610021816129
:101C20004FF44051C161FEF7AFFF08B1FEF797FCDA
:101C300000BF5E4820624462B2E05D49206888428D
:101C400030D100BF5748C06940F002005549C86113
:101C50000846C06900F00200009000BF00BF524873
:101C600014305449086010204860002151488160B8
:101C70008021C160490001618900416100218161C9
:101C80004FF44051C161FEF77FFF08B1FEF767FCDA
:101C900000BF484921630846446200BF00BF20627C
:101CA00044627DE04449206888422BD100BF3D4812
:101CB000C06940F004003B49C8610846C06900F0B3
:101CC0000400009000BF00BF374864303B49086003
:101CD000102048600021394881608021C16049009E
:101CE000016189004161002181614FF44051C1616E
:101CF000FEF74AFF08B1FEF732FC00BF2F48206212
:101D000044624DE02E49206888422FD100BF25480B
:101D1000C06940F008002349C8610846C06900F066
:101D20000800009000BF00BF264827490860102027
:101D300048600021244881608021C1604900016120
:101D400089004161002181614FF44051C161FEF77A
:101D50001BFF08B1FEF703FC00BF1B49E162084608
:101D6000446200BF00BF2062446219E01749206846
:101D7000884215D100BF0B48C06940F010000949E6
:101D8000C8610846C06900F01000009000BF00BFA5
:101D900000220E213620FFF7CFFA3620FFF7BCFADB
:101DA00038BD0000001002401C000240D805002091
:101DB000000400401C0600200008004060060020CF
:101DC000000C00401C040240A4060020001000404B
:101DD000014691F83D00012801D001207047022002
:101DE00081F83D00164B0868984213D0154B0868DF
:101DF00098420FD00868B0F1804F0BD0124B0868A2
:101E0000984207D0114B0868984203D0104B0868DD
:101E100098420CD10868806800F00702062A0CD0AE
:101E20000868006840F001000B68186005E0086869
:101E3000006840F001000B6818600020CEE7000049
:101E4000002C014000340140000400400008004024
:101E5000000C0040014691F83D00012801D001200E
:101E60007047022081F83D000868C06840F001001A
:101E70000B68D860164B0868984213D0154B086859
:101E800098420FD00868B0F1804F0BD0124B086811
:101E9000984207D0114B0868984203D0104B08684D
:101EA00098420CD10868806800F00702062A0CD01E
:101EB0000868006840F001000B68186005E00868D9
:101EC000006840F001000B6818600020C8E70000BF
:101ED000002C014000340140000400400008004094
:101EE000000C00402DE9F04104460D46002700BFDC
:101EF00094F83C00012802D10220BDE8F0810120C5
:101F000084F83C0000BF022084F83D002068866809
:101F100026F0770626F47F462068866028685028D9
:101F200033D00CDC202850D004DC00284BD0102803
:101F300051D149E0302849D040284CD139E06028BF
:101F40002DD0702807D0B0F5805F03D0B0F5005FCA
:101F500041D10DE041E0D5E902136A68206801F043
:101F6000B6FB2068866846F077062068866034E015
:101F7000D5E902136A68206801F0A9FB206880682F
:101F800040F480402168886027E0EA68696820683A
:101F900001F0D8FC5021206801F0A4FB1DE0EA68A4
:101FA0006968206801F0E1FC6021206801F09AFB7B
:101FB00013E0EA686968206801F0C4FC40212068E9
:101FC00001F090FB09E000BF00BF00BF2968206856
:101FD00001F088FB01E0012700BF00BF012084F869
:101FE0003D0000BF002084F83C0000BF384684E775
:101FF00070477047704710B5044620680069C0F309
:102000004000F0B12068C068C0F34000C8B16FF074
:10201000020021680861012020772068806900F0B3
:10202000030020B12046D4F89010884707E02046EE
:10203000D4F8981088472046D4F89C108847002090
:10204000207720680069C0F38000F0B12068C06884
:10205000C0F38000C8B16FF004002168086102205D
:1020600020772068806900F4407020B12046D4F8C1
:102070009010884707E02046D4F8981088472046FB
:10208000D4F89C1088470020207720680069C0F3AE
:10209000C000F0B12068C068C0F3C000C8B16FF0E4
:1020A000080021680861042020772068C06900F0DA
:1020B000030020B12046D4F89010884707E020465E
:1020C000D4F8981088472046D4F89C108847002000
:1020D000207720680069C0F30010F0B12068C06864
:1020E000C0F30010C8B16FF010002168086108202B
:1020F00020772068C06900F4407020B12046D4F8F1
:102100009010884707E02046D4F89810884720466A
:10211000D4F89C108847002020772068006900F0E0
:10212000010060B12068C06800F0010038B16FF0B4
:102130000100216808612046D4F880108847206893
:102140000069C0F3C01060B12068C068C0F3C0105F
:1021500038B16FF08000216808612046D4F8B010D3
:10216000884720680069C0F3801060B12068C068AB
:10217000C0F3801038B16FF040002168086120463C
:10218000D4F88810884720680069C0F3401060B117
:102190002068C068C0F3401038B16FF0200021689B
:1021A00008612046D4F8A810884710BD10B586B045
:1021B0000446002002900390049005902068B0F13E
:1021C000804F21D100BF3A48806940F0080038496B
:1021D00088610846806900F00800019000BF00BFD8
:1021E0000820029002200390059002A93148FEF7D2
:1021F0004BFE00BF3049486820F4407040F0E0607A
:1022000040F48070486051E02C492068884217D122
:1022100000BF2748806940F00800254988610846CA
:10222000806900F00800019000BF00BF012002900B
:1022300002200390059002A91E48FEF725FE35E016
:102240001F492068884217D100BF1948806940F0B3
:102250000800174988610846806900F0080001906D
:1022600000BF00BF4020029002200390059002A909
:102270001048FEF709FE19E012492068884215D17E
:1022800000BF0B48806940F0040009498861084696
:10229000806900F00400019000BF00BF022002909E
:1022A0000390059002A90848FEF7EEFD06B010BDA8
:1022B00000100240000C01400000014000040040FA
:1022C00000080040000C0040000801402DE9F041EA
:1022D00004460E461546002700BF94F83C0001282E
:1022E00002D10220BDE8F081012084F83C0000BF4B
:1022F00035B1042D09D0082D0CD00C2D14D10EE0D1
:102300003146206801F0F8F910E03146206801F00C
:102310002BFA0BE03146206801F064FA06E0314602
:10232000206801F09BFA01E0012700BF00BF00BF59
:10233000002084F83C0000BF3846D3E77047000017
:1023400070B504460D4615B994F83E000BE0042D17
:1023500002D13F20005D06E0082D02D14020005D43
:1023600001E04120005D012801D0012070BD1DB9B0
:10237000022084F83E000EE0042D03D102213F200C
:10238000015508E0082D03D102214020015502E04B
:1023900002214120015501222946206801F086F9D9
:1023A0001F492068884203D01E492068884201D115
:1023B000012000E0002028B12068406C40F400407B
:1023C0002168486416492068884213D0154920685E
:1023D00088420FD02068B0F1804F0BD0124920689E
:1023E000884207D011492068884203D010492068EC
:1023F00088420CD12068806800F00706062E0CD0B9
:102400002068006840F001002168086005E020684D
:10241000006840F00100216808600020A6E7000085
:10242000002C01400034014000040040000800403E
:10243000000C004030B504460D46002229462068B5
:1024400001F034F923492068884203D022492068EA
:10245000884201D1012000E0002090B100BF206837
:10246000006A41F21111084050B92068006A8910D1
:10247000084028B92068406C20F400402168486476
:1024800000BF00BF2068006A41F21111084050B936
:102490002068006A8910084028B92068006820F088
:1024A00001002168086000BF1DB9012084F83E00CA
:1024B0000EE0042D03D101213F20015508E0082D35
:1024C00003D101214020015502E0012141200155A5
:1024D000002030BD002C0140003401402DE9F041C6
:1024E00004460D461646002700BF94F83C0001281C
:1024F00002D10220BDE8F081012084F83C0000BF39
:1025000036B1042E1BD0082E31D00C2E5ED145E002
:102510002946206801F0F0F82068806940F0080042
:10252000216888612068806920F004002168886142
:1025300020688069296908432168886148E0294644
:10254000206801F011F92068806940F4006021687A
:1025500088612068806920F4806021688861206833
:102560008069296940EA01202168886130E02946B4
:10257000206801F037F92068C06940F00800216840
:10258000C8612068C06920F004002168C861206823
:10259000C069296908432168C86119E02946206893
:1025A00001F05CF92068C06940F400602168C861EE
:1025B0002068C06920F480602168C8612068C06913
:1025C000296940EA01202168C86101E0012700BFB4
:1025D00000BF00BF002084F83C0000BF384689E7F8
:1025E00010B504460CB9012010BD94F83D0060B947
:1025F000002084F83C00204601F06CF9206E08B9F8
:10260000144820662046216E8847022084F83D0049
:10261000211D206800F0FCFF012084F8460000BF67
:1026200084F83E0001213F20015540200155412002
:10263000015500BF00BF012084F84200432001552E
:10264000442001554520015500BF012084F83D007C
:102650000020C9E759260008704770477047704747
:10266000704710B5034600240AB9012010BD93F845
:102670003D00012857D11B2952D2DFE801F00E108E
:10268000121416181A1C1E20222426282A2D303334
:1026900036393C3F4245484B4E009A6442E0DA648A
:1026A00040E01A653EE05A653CE09A653AE0DA653A
:1026B00038E01A6636E05A6634E09A6632E0DA6646
:1026C00030E01A672EE05A672CE09A672AE0DA6752
:1026D00028E0C3F8802025E0C3F8842022E0C3F876
:1026E00088201FE0C3F88C201CE0C3F8902019E07C
:1026F000C3F8942016E0C3F8982013E0C3F89C2098
:1027000010E0C3F8A0200DE0C3F8A4200AE0C3F84D
:10271000A82007E0C3F8AC2004E0C3F8B02001E033
:10272000012400BF2DE093F83D0048BB0E2924D2C0
:10273000DFE801F007090B0D0F11131517191B1D09
:102740001F219A641BE0DA6419E01A6517E05A65E4
:1027500015E09A6513E0DA6511E01A660FE05A6633
:102760000DE09A660BE0DA6609E01A6707E05A673F
:1027700005E09A6703E0DA6701E0012400BF00E0AA
:102780000124204672E770477047F8B504460E46AC
:10279000174694F8420020282ED106B10FB9012027
:1027A000F8BD01202063002060633A463146204690
:1027B00001F04AFB0546EDB9206B012819D100BF95
:1027C0000020009020680068009020684068009019
:1027D00000BF00BF00BF00BF21680C3151E8001FDF
:1027E00041F0100021680C3141E80002002AF3D1C9
:1027F00000E001252846D3E70220D1E77047704763
:102800007047704770B50546284600F0C9FB04467E
:10281000044850F8240020B1024951F8240000F087
:10282000DBFB70BD5C7C00202DE9F84F044620687E
:1028300005682068C668206847694FF00009CA46E5
:1028400005F00F09B9F1000F0AD105F0200038B1E9
:1028500006F0200020B1204601F0FAF9BDE8F88F1B
:10286000B9F1000F7BD007F0010018B906F49070A1
:10287000002874D005F0010030B106F4807018B162
:10288000606C40F00100606405F0040030B107F0B6
:10289000010018B1606C40F00200606405F00200B5
:1028A00030B107F0010018B1606C40F004006064C2
:1028B00005F0080048B106F0200010B907F001004B
:1028C00018B1606C40F008006064606C002845D06E
:1028D00005F0200028B106F0200010B1204601F0DC
:1028E000B7F920684069C0F3801A606C00F00800F6
:1028F00010B9BAF1000F2CD0204601F02AF9206857
:10290000406900F0400000B300BF00BF21681431EF
:1029100051E8001F21F040002168143141E8000215
:10292000002AF3D100BFE06B50B17748E16B4863F8
:10293000E06BFDF743FE88B1E06B416B88470DE02B
:102940002046A16D884709E009E02046A16D88472F
:1029500004E02046A16D8847002060647EE7206B7C
:10296000012877D105F01000002873D006F0100080
:102970000028FAD000BF0020009020680068009076
:1029800020684068009000BF00BF2068406900F0E8
:10299000400000285FD0E06B006840681FFA80F8B4
:1029A000B8F1000F55D0A08D404552DDA4F82E801F
:1029B000E06B8069202843D000BF00BF21680C3144
:1029C00051E8001F21F4807021680C3141E80002B9
:1029D000002AF3D100BF00BF00BF2168143151E8C5
:1029E000001F21F001002168143141E80002002A93
:1029F000F3D100BF00BF00BF2168143151E8001FB0
:102A000021F040002168143141E80002002AF3D18E
:102A100000BF202084F842000020206300BF00BFD8
:102A200021680C3151E8001F21F0100021680C31A1
:102A300041E80002002AF3D100BFE06BFDF792FDF0
:102A400002206063A08DE38DC01A81B22046E26E41
:102A5000904703E742E0A08DE18D401A1FFA80F80D
:102A6000E08DD0B3B8F1000F37D000BF00BF2168B0
:102A70000C3151E8001F21F4907021680C3141E8BD
:102A80000002002AF3D100BF00BF00BF216814314B
:102A900051E8001F21F001002168143141E80002D3
:102AA000002AF3D100BF202084F8420000202063D8
:102AB00000BF00BF21680C3151E8001F21F0100059
:102AC00021680C3141E80002002AF3D100BF022046
:102AD000606341462046E26E9047BFE605F0800005
:102AE00030B106F0800018B1204601F011FAB5E6C9
:102AF00005F0400030B106F0400018B1204601F06A
:102B00005EF8ABE600BFA9E6B139000810B504468F
:102B10000CB9012010BDA06900B100E000BF94F81D
:102B2000410060B9002084F84000204601F06AF8B6
:102B3000206F08B9164820672046216F8847242057
:102B400084F841002068C06820F400502168C86003
:102B5000204601F0FBF82068006920F490402168CD
:102B600008612068406920F02A00216848612068D7
:102B7000C06840F400502168C860002060642020D4
:102B800084F8410084F842000020606300BFC1E780
:102B9000112C000810B5044618492068884214D149
:102BA0001748C06920F400201549C8614FF44061FE
:102BB0001448FEF7BFF8E06BFDF7D4FDA06BFDF7FE
:102BC000D1FD3420FEF786FB17E00F4920688842CC
:102BD00013D10B48806920F48040094988614FF483
:102BE000C0610A48FEF7A6F8E06BFDF7BBFDA06BDD
:102BF000FDF7B8FD2520FEF76DFB10BD004C004031
:102C0000001002400010014000380140000801405F
:102C100010B586B004460020029003900490059001
:102C20007049206888426BD100BF6F48C06940F48A
:102C300000206D49C8610846C06900F40020019079
:102C400000BF00BF00BF0846806940F010008861E7
:102C50000846806900F01000019000BF00BF081511
:102C60000290022003900320059002A95F48FEF71E
:102C70000BF94FF4006002900020039001200490B3
:102C800002A95A48FEF700F959485A49086000203D
:102C900048600021574881608021C16000210161A6
:102CA00041618161C161FDF76FFF08B1FDF757FC1C
:102CB00000BF5048E063446200BF4D4828304E4991
:102CC00008601020486000214B4881608021C1606D
:102CD0000021016141618161C161FDF755FF08B1CA
:102CE000FDF73DFC00BF4448A063446200BF0022E2
:102CF00001213420FEF720FB3420FEF70DFB6EE0AF
:102D00003E49206888426AD100BF3748806940F454
:102D10008040354988610846806900F48040019010
:102D200000BF00BF00BF0846806940F00400886112
:102D30000846806900F00400019000BF00BF4815FC
:102D40000290022003900320059002A92C48FEF770
:102D50009BF84FF4806002900020039001200490C3
:102D600002A92748FEF790F8264827490860002066
:102D700048600021244881608021C16000210161F8
:102D800041618161C161FDF7FFFE08B1FDF7E7FB1D
:102D900000BF1D48E063446200BF1A4814381B4955
:102DA0000860102048600021184881608021C160BF
:102DB0000021016141618161C161FDF7E5FE08B15A
:102DC000FDF7CDFB00BF1148A063446200BF0022A5
:102DD00001212520FEF7B0FA2520FEF79DFA06B066
:102DE00010BD0000004C00400010024000100140E7
:102DF00030040240D80700201C08002000380140A1
:102E0000000801405800024060080020A40800208B
:102E10000246002329B9506C40F020005064012084
:102E2000704700BF92F84000012801D10220F7E767
:102E3000012082F8400000BF92F84100202801D113
:102E4000D16604E0506C40F020005064012300BFC4
:102E5000002082F8400000BF1846E1E77047704745
:102E6000F7B50446154694F84100202836D101985C
:102E700000B10DB90120FEBD01982062A584E58452
:102E800000206064212084F841001548A16B88620D
:102E90001448A16BC8621448A16B08630020A16BA1
:102EA000486301AE23681A1D31682B46A06BFDF7FD
:102EB000DEFE6FF040002168086000BF00BF21689F
:102EC000143151E8001F41F080002168143141E8BD
:102ED0000002002AF3D100BF0020CCE70220CAE79D
:102EE000ED3A0008453B0008C539000870477047B7
:102EF00000BFFEE70146194A0868904201D101204F
:102F000070470868B0F1804F01D10220F8E7144AF9
:102F10000868904201D10320F2E7124A0868904203
:102F200001D10420ECE7104A0868904201D1052045
:102F3000E6E70E4A0868904201D10620E0E70C4A15
:102F40000868904201D10720DAE70A4A08689042EF
:102F500001D10820D4E70020D2E70000002C014076
:102F60000004004000080040000C00400010004039
:102F7000001400400034014070B505460E46284656
:102F800000F00EF80446054850F8240028B1034923
:102F900051F82400314600F0F3FF70BD5C7C002046
:102FA00001460A4A0868904201D101207047084A48
:102FB0000868904201D10220F8E7064A086890426A
:102FC00001D10320F2E70020F0E7000000380140C3
:102FD000004400400048004010B50446206800B995
:102FE00010BD00202168486400BF216881F84000BE
:102FF00000BF2068FFF7CEFD2068FFF709FE0449F7
:103000002068FFF705FF204600F0A7FA00BFE7E7BA
:10301000792F000808B500BF2D48406940F0010035
:103020002B4948610846406900F00100009000BF4C
:1030300000BF00BF0846406940F0020048610846F2
:10304000406900F00200009000BF00BF002211465E
:103050000C20FEF771F90C20FEF75EF900221146F4
:103060000D20FEF769F90D20FEF756F90022022126
:103070000E20FEF761F90E20FEF74EF90022022124
:103080000F20FEF759F90F20FEF746F900221146EE
:103090001120FEF751F91120FEF73EF900221146EA
:1030A0003920FEF749F93920FEF736F900220221CE
:1030B0003A20FEF741F93A20FEF72EF90022114698
:1030C0003B20FEF739F93B20FEF726F908BD00004A
:1030D0000010024000B585B00020019002900390DE
:1030E000049000BF3A48806940F020003849886168
:1030F0000846806900F02000009000BF00BF00BFBC
:103100000846806940F0040088610846806900F044
:103110000400009000BF00BF00BF0846806940F077
:10312000100088610846806900F01000009000BF20
:1031300000BF00BF0846806940F00800886108466B
:10314000806900F00800009000BF00BF002240F638
:103150003C012048FEF742F80122C0211D48FEF73D
:103160003DF8012230211C48FEF738F801220221E7
:103170001A48FEF733F8002204211848FEF72EF80B
:1031800040F6FC00019001200290002003900220F4
:10319000049001A90F48FDF777FE3020019001202F
:1031A0000290002003900220049001A90A48FDF734
:1031B0006BFE062001900120029000200390022067
:1031C000049001A90548FDF75FFE05B000BD0000B1
:1031D000001002400008014000100140000C0140B6
:1031E00000B58DB0002009900A900B900C900790CC
:1031F00008901C216846FDF7CAF84FF080401E4930
:1032000008604720486000211B488160C16001615F
:1032100080218161FEF7A4FC08B1FDF7A0F94FF40D
:103220008050099009A91448FEF75CFE08B1FDF72B
:1032300096F91148FFF7D4F908B1FDF790F900208D
:103240000790089007A90C48FEF73CFC08B1FDF771
:1032500086F96020009000200190029004900422E2
:1032600069460548FFF73AF908B1FDF778F90248D1
:10327000FEF79CFF0DB000BD5402002000B58DB0DC
:10328000002009900A900B900C90079008901C2148
:103290006846FDF77CF82048204908600020486017
:1032A00000211E4881604FF6FF71C160002101615D
:1032B00080218161FEF754FC08B1FDF750F94FF40D
:1032C0008050099009A91548FEF70CFE08B1FDF7DA
:1032D00046F91248FFF784F908B1FDF740F90020DC
:1032E0000790089007A90D48FEF7ECFB08B1FDF721
:1032F00036F960200090002001900290049008228E
:1033000069460648FFF7EAF808B1FDF728F90348CF
:10331000FEF74CFF0DB000BD000400400803002084
:1033200000B58DB0002009900A900B900C9007908A
:1033300008901C216846FDF72AF8204820490860BB
:103340000020486000211E4881604FF6FF71C16077
:10335000002101618161FEF703FC08B1FDF7FFF870
:103360004FF48050099009A91548FEF7BBFD08B13C
:10337000FDF7F5F81248FFF733F908B1FDF7EFF85C
:1033800000200790089007A90D48FEF79BFB08B1A5
:10339000FDF7E5F860200090002001900290049075
:1033A000002269460648FFF799F808B1FDF7D7F8FB
:1033B0000348FEF7FBFE0DB000BD00000008004012
:1033C000BC03002000B58DB0002009900A900B903E
:1033D0000C90079008901C216846FCF7D8FF204805
:1033E000204908600020486000211E4881604FF697
:1033F000FF71C160002101618161FEF7B1FB08B17D
:10340000FDF7ADF84FF48050099009A91548FEF773
:1034100069FD08B1FDF7A3F81248FFF7E1F808B11C
:10342000FDF79DF800200790089007A90D48FEF7CA
:1034300049FB08B1FDF793F860200090002001904F
:1034400002900490042269460648FFF747F808B145
:10345000FDF785F80348FEF7A9FE0DB000BD00009A
:10346000000C0040700400201CB50020009001906A
:103470000E480F4908604720486000210C488160D1
:103480004FF47A71C16000218161FEF769FB08B1D8
:10349000FDF765F800200090019069460448FEF7AA
:1034A00011FB08B1FDF75BF81CBD000000100040E7
:1034B0002405002010B50B480B4908604FF4E1309B
:1034C0004860002108488160C16001610C214161B0
:1034D00000218161C161FFF719FB08B1FDF73FF8D9
:1034E00010BD0000004C0040E806002010B50B485D
:1034F0000B4908604FF4E1304860002108488160C2
:10350000C16001610C21416100218161C161FFF74E
:10351000FDFA08B1FDF723F810BD000000380140A6
:103520006007002000BFFEE700BFFEE77047000015
:1035300008B508490968C9084FF47A72B1FBF2F17D
:103540004143009100BF00BF00994A1E009200292C
:10355000F9D108BD0C000020704710B50446237A4D
:1035600004F1090202EBC31180222068FFF70DF974
:1035700084F812012068C06B0068006820F0040025
:103580002168C96B0968086010BD10B5FDF732FEEF
:1035900010BD00B58FB0282105A8FCF7F8FE142156
:1035A0006846FCF7F4FE092005904FF48030069041
:1035B00000200790012009900B9002200C90C1037D
:1035C0000D914FF4E0110E9105A8FEF72BF808B10C
:1035D000FCF7C5FF0F200090022001900020029010
:1035E0004FF4806003900020049002216846FDF7AC
:1035F000F5FE08B1FCF7B3FF0FB000BD7047000047
:1036000010B50248FEF7F7FC10BD000024050020AD
:1036100010B50268204B98420ED0204B98420BD038
:10362000B0F1804F08D01E4B984205D01D4B9842F8
:1036300002D01D4B984203D122F070024B681A430E
:10364000154B98420ED0154B98420BD0B0F1804FDD
:1036500008D0134B984205D0124B984202D0124B1F
:10366000984203D122F44072CB681A4322F08003BF
:103670004C6943EA040202608B68C3620B68836290
:10368000054B984202D0054B984201D10B69036368
:103690000123436110BD0000002C014000340140B3
:1036A0000004004000080040000C004030B501F06C
:1036B0001F05012404FA05F3046A9C430462046AAA
:1036C00001F01F0502FA05F52C43046230BD30B548
:1036D0000C46816821F47F4142EA032525432943B2
:1036E000816030BD0A46816821F0700142F0070315
:1036F000194381607047000030B5026A056A25F001
:10370000010505624368846924F0700424F0030411
:103710000D682C4322F002028D682A43104DA84206
:1037200000D103E00F4DA84206D100BF22F00802ED
:10373000CD682A4322F00402094DA84202D0094D67
:10374000A84207D123F4807323F400734D692B43FF
:103750008D692B43436084614D684563026230BDCF
:10376000002C01400034014030B5026A056A25F0A2
:10377000100505624368846924F4E04424F440742D
:103780000D6844EA052422F020028D6842EA051201
:10379000124DA84200D103E0114DA84207D100BF4D
:1037A00022F08002CD6842EA051222F040020B4D61
:1037B000A84202D00A4DA84209D123F4806323F421
:1037C00000634D6943EA85038D6943EA85034360DD
:1037D00084614D688563026230BD0000002C0140A9
:1037E0000034014030B5026A056A25F4807505622F
:1037F0004368C46924F0700424F003040D682C436A
:1038000022F400728D6842EA0522124DA84200D1CE
:1038100003E0114DA84207D100BF22F40062CD6839
:1038200042EA052222F480620A4DA84202D00A4DE3
:10383000A84209D123F4805323F400534D6943EA8D
:1038400005138D6943EA05134360C4614D68C56380
:10385000026230BD002C01400034014030B5036AE3
:10386000056A25F4805505624468C26922F4E04285
:1038700022F440720D6842EA052223F400538D6859
:1038800043EA0533084DA84202D0084DA84204D1AE
:1038900024F480444D6944EA85144460C2614D6853
:1038A0000564036230BD0000002C0140003401407B
:1038B00070B505462846FFF71DFB0446044850F83E
:1038C000240020B1024951F8240000F062F870BDD4
:1038D000207C00200E4940F8801F0E4941600E49AF
:1038E00081600E49C1600E4901610E4941610E4976
:1038F00081610E49C1610E4901620E4941620E4962
:1039000081620E49C1620E49016380387047000030
:103910005F2600086126000887270008892700081D
:10392000F31F0008F51F00083D2300085B26000870
:103930005D260008F11F0008BF1A0008C11A000820
:10394000BD1A000830B50B461446026A056A25F018
:1039500001050562816921F0F00141EA041122F0BC
:103960000A021A438161026230BD30B50B4614462B
:10397000026A056A25F010050562816921F470412B
:1039800041EA043122F0A00242EA0312816102629C
:1039900030BD10B50446606808B16068804710BD4E
:1039A00010B50248FEF740FF10BD0000E8060020F9
:1039B00070B505466C6A0020E085E0842046A16D64
:1039C000884770BD70B5054600266C6A206840695E
:1039D000C0F3C01694F84100212805D126B100207B
:1039E000E084204600F0FBF820684069C0F38016B0
:1039F00094F84200222805D126B10020E085204617
:103A000000F0A7F8606C40F0100060642046A16DE3
:103A1000884770BD70B505466C6A2868006800F07C
:103A20002000002842D1E08500BF00BF21680C3192
:103A300051E8001F21F4807021680C3141E8000238
:103A4000002AF3D100BF00BF00BF2168143151E844
:103A5000001F21F001002168143141E80002002A12
:103A6000F3D100BF00BF00BF2168143151E8001F2F
:103A700021F040002168143141E80002002AF3D10E
:103A800000BF202084F84200206B01280ED100BF27
:103A900000BF21680C3151E8001F21F0100021689F
:103AA0000C3141E80002002AF3D100BF002060631E
:103AB000206B012804D1A18D2046E26E904702E0E0
:103AC0002046616D884770BD70B505466C6A01205F
:103AD0006063206B012805D1A08D41082046E26E6D
:103AE000904702E02046216D884770BD70B50546BD
:103AF0006C6A2868006800F02000F8B90020E084B3
:103B000000BF00BF2168143151E8001F21F0800080
:103B10002168143141E80002002AF3D100BF00BF40
:103B200000BF21680C3151E8001F41F040002168BE
:103B30000C3141E80002002AF3D102E02046E16C9A
:103B4000884770BD70B50446656A2846A96C8847E9
:103B500070BD00BF00BF02680C3252E8002F22F493
:103B6000907102680C3242E80013002BF3D100BFC1
:103B700000BF00BF0268143252E8002F22F001019A
:103B80000268143242E80013002BF3D100BF016B2E
:103B900001290ED100BF00BF02680C3252E8002F8D
:103BA00022F0100102680C3242E80013002BF3D11E
:103BB00000BF202180F8421000210163704710B53A
:103BC00004462068C06820F040002168C8602020BA
:103BD00084F841002046E16C8847002010BD00BFFA
:103BE00000BF02680C3252E8002F22F0C0010268C8
:103BF0000C3242E80013002BF3D100BF202180F8E3
:103C000041107047094981640949C1640949016546
:103C100009494165094981650949C1650949016643
:103C2000094941660949C16670470000EF2E000846
:103C3000ED2E00085F2E00085D2E00080528000804
:103C4000FF2700080328000801280008FD270008B6
:103C5000F8B5044694F84200222875D1A068B0F562
:103C6000805F0CD1206950B90025A66A20684068A1
:103C7000C0F308003080A06A801CA06215E0A56A2D
:103C80000026A068B0F5805F03D0A06828B920693D
:103C900018B920684068287004E02068406800F087
:103CA0007F002870A06A401CA062E08D401E80B298
:103CB000E085002846D12068C06820F020002168F7
:103CC000C8602068C06820F480702168C8602068DF
:103CD000406920F0010021684861202084F84200FA
:103CE00000206063206B012826D10020206300BFE4
:103CF00000BF21680C3151E8001F21F0100021683D
:103D00000C3141E80002002AF3D100BF20680068AE
:103D100000F0100010280AD100BF00200090206899
:103D20000068009020684068009000BF00BFA18D2F
:103D30002046E26E904702E02046616D88470020F1
:103D4000F8BD01E00020FBE70220F9E770B504466A
:103D50002168096921F44051E26811432268116128
:103D60002269A1681143626941EA02052168C968B4
:103D700041F20C62914329432268D160216849696C
:103D800021F44071A2691143226851612D4A2168D2
:103D9000914202D1FDF7FEFB01E0FDF7EBFB00EBEA
:103DA000C00101EB001162689200B1FBF2F100EB7F
:103DB000C00202EB001263689B00B2FBF3F26423C3
:103DC000B2FBF3F202EBC20303EB0212A1EB82019E
:103DD000322202EB01116422B1FBF2F101F0F00199
:103DE00000EBC00202EB001263689B00B2FBF3F22F
:103DF0006423B2FBF3F201EB021200EBC00101EB12
:103E0000001163689B00B1FBF3F100EBC00303EB0F
:103E100000136668B600B3FBF6F36426B3FBF6F353
:103E200003EBC30606EB0313A1EB8301322303EB81
:103E300001116423B1FBF3F101F00F011144226879
:103E4000916070BD0038014077B581B004461546D9
:103E50000298A062A58500206064222084F84200B8
:103E60002848E16B88622848E16BC8622748E16B0B
:103E700008630020E16B486302AE32682368191DB5
:103E80002B46E06BFCF7F3FE00BF0020009020689B
:103E90000068009020684068009000BF00BF206963
:103EA00070B100BF00BF21680C3151E8001F41F420
:103EB000807021680C3141E80002002AF3D100BF74
:103EC00000BF00BF2168143151E8001F41F001001C
:103ED0002168143141E80002002AF3D100BF00BF7D
:103EE00000BF2168143151E8001F41F040002168F3
:103EF000143141E80002002AF3D100BF002004B0D1
:103F000070BD0000153A0008C93A0008C53900081C
:103F1000014691F84100212828D18868B0F5805FDA
:103F20000BD1086948B90A6A1088C0F308000B6809
:103F30005860086A801C086205E00B6A581C086219
:103F400018780B685860C88C401E80B2C88458B975
:103F50000868C06820F080000B68D8600868C068F6
:103F600040F040000B68D860002070470220FCE75A
:103F700010B50248FEF758FC10BD00006007002095
:103F800070B504460D46207A08B9012000E00020F3
:103F90002072A4F81051606858B1E9B2237A0BB9C5
:103FA000012600E0002604F1090303EBC610626855
:103FB00090472046FFF7D1FAFDF716F9C4F80C0137
:103FC00070BD00BFFEE7000002480068C0F3022099
:103FD000704700000CED00E010B5002804DB0A0774
:103FE000130E054A135406E00A07140E034A00F0A4
:103FF0000F031B1FD45410BD00E400E018ED00E0D7
:104000002DE9F04781460C4615461F460CB105B117
:1040100017B90120BDE8F0872078F72802DC607826
:10402000042801D00120F5E7A088FD2801DD042047
:10403000F0E7002622783146761C6A5462783146D1
:10404000761C6A54A088002807DDA288A819A11D43
:10405000FCF7FCF8A088304486B231462846FCF7CD
:104060000BFA80463046711C8EB205F800804FEA8C
:1040700018223046711C8EB22A543E800020C9E7B7
:1040800010B588B005A800F0DBF89DF8140088B9D9
:1040900001201B4908700020487000BF08E00DF1A6
:1040A000150101EB40010988164A22F81010401C46
:1040B0000428F4DB9DF8140001281ED100201049CB
:1040C00008709DF81D00012817D1002413E0214637
:1040D00001A800F0ABF89DF80600012805D10022E8
:1040E00040210948FDF77AF804E001224021064802
:1040F000FDF774F8641C042CE9DB08B010BD000067
:1041000020000020180000200008014010B500F039
:104110007DF9054A0549064800F09CF84FF47A708D
:1041200004490880488010BD39410008240500205A
:10413000240000201800002010B5FFF7A1FF184848
:10414000007801282AD11648407830B101280AD0D9
:1041500002280FD003281FD112E001F0B1FB01208B
:104160000F49487019E001F003FB10B902200C4917
:10417000487012E001F0EAFB03200949487000BFD3
:10418000002406E0074A32F81410E0B200F06AF9A1
:10419000641C042CF6DB00E000BF00BF10BD000073
:1041A00020000020180000202DE9F04114461D4693
:1041B00006460F4601F001FD00F07040B0F1005FCF
:1041C0000FD0201C18BF0120284320F00040C0F170
:1041D0007F6000F1E040C00F02BF20462946BDE8E5
:1041E000F08130463946BDE8F0812DE9F0411446B2
:1041F0001D4606460F4601F0E0FC00F07040B0F1AD
:10420000004F0FD0201C18BF0120284320F0004091
:10421000C0F17F6000F1E040C00F02BF2046294698
:10422000BDE8F08130463946BDE8F08130B5034A3B
:1042300002EB01153CCD80E83C0030BDF4080020C5
:1042400003490A6802604A6842600989018170472F
:10425000E808002070B504460D46164625606660E5
:104260002846FEF747FE064941F82040054A0E2140
:104270002846FEF7F6F92846FDF7ECFD70BD000074
:10428000207C0020B1380008FCF7C0FFFFF781F95F
:10429000FEF720FFFEF7BEFEFEF7A2FFFEF7EEFFE1
:1042A000FFF73EF8FFF78EF8FFF7DEF8FFF702F9A9
:1042B000FFF71CF9FFF72AFF02E00120FCF726FDBB
:1042C000FBE7014609B90020704791F82001012859
:1042D00000D1F9E70020F7E770B504460CB90120DA
:1042E00070BDFCF781FF054694F82001012810D12C
:1042F000D4F82401281AD4F81C11884209D90320C3
:1043000084F82001D4F83803401CC4F83803022094
:10431000E6E70020E4E710B5044674B1002084F815
:1043200020014FF4827104F59470FCF70EF84FF4FD
:10433000827104F50B70FCF708F810BD2DE9F04709
:10434000ADF5027D04460D46174698468A9E5CB13F
:10435000042F09D145B1F72D06DC2EB17D2E03DCEB
:104360002046FFF7AEFF20B101200DF5027DBDE82C
:10437000F0874FF4827141A8FCF709F88DF80451D9
:104380008DF805710420ADF808014FEA18208DF86A
:104390000A018DF80B81310A41A8017246726B4601
:1043A00001AA41A92046FFF72BFE8146B9F1000F73
:1043B00001D04846D9E7BDF8002001A9D4F814017E
:1043C000FEF74EFD8246BAF1000F09D0D4F838034B
:1043D000401CC4F83803042084F820010520C4E7F9
:1043E0004FF4827241A904F59470FBF72FFF01206E
:1043F00084F82001FCF7F8FEC4F82401D4F8300357
:10440000401CC4F830030020AFE7000008B50420CA
:104410000F4B02460F490090002000F0EDFA0820F3
:104420000B4B02460C490090012000F0E5FA1020E9
:10443000074B002209490090022000F0DDFA2020FD
:10444000034B042206490090032000F0D5FA08BD72
:10445000000801405402002008030020BC03002093
:104460007004002070B505460C46002C01DA0020CF
:1044700005E041F27070844200DD00E02046044611
:104480002146284600F0CAFE2146284600F06CFE70
:1044900070BD000010B50446042C00DB10BD40F2D6
:1044A000E36262430F4B03EB820241F678331A4416
:1044B000928991B240F2E36262430A4B03EB8202BB
:1044C00041F678331A4490680022FCF787FE0021F9
:1044D00040F2E3606043034A02EB8000816000BF6A
:1044E000DCE70000B80D002070B5054601200C493E
:1044F0000860002410E040F2E3606043094901EBEA
:10450000800641F678308059006AA84202D12046E0
:1045100000F0FEFF601CC4B2042CECDB70BD000098
:1045200050000020B80D00202DE9F84F06462A481B
:104530000068401C28490860002548E040F2E3601C
:104540006843264901EB800441F678300059006A3F
:10455000B0423BD141F68830005DB0BB022041F64D
:1045600088312144487004211D48FCF72DFE0120AC
:10457000607041F6783109590968C96A88B202F059
:10458000F5F981464FF07E5102F054F8074641F6A6
:10459000783109590968886A02F0E8F94FF07E51CC
:1045A000009002F047F8834659460E4802F0B0F8F2
:1045B00082460D4902F0ACF881460C4902F01EFA21
:1045C0008046394602F0A4F8A06002E06D1C042D7C
:1045D000B4DB00BFBDE8F88F4C000020B80D002010
:1045E000000C01404054894C0000C8450000704256
:1045F0002DE9F04707468A469046994604214048EF
:10460000FCF7E2FD3F480068401C3E490860042F6B
:1046100005DABAF1000F02D0B8F1000F02D1012083
:10462000BDE8F08740F2E3607843374901EB80064C
:1046300041F6783085592C6A0CB90120F0E741F633
:104640007830304441682846FDF7F4FE2046FBF7F9
:1046500089FF2868C06820F480702968C860B9F1B3
:10466000010F01D1202100E00021A1610021A16002
:104670008021E16049002161890061611020606052
:10468000224A00212046FCF7C5FA214A0221204691
:10469000FCF7C0FA002141F6783080590068416289
:1046A0002046FCF771FA08B10120B9E72868C06814
:1046B00040F480702968C8602846FDF789FB2868A7
:1046C00000F12C02434651462046FCF7D0FA08B1CF
:1046D0000120A5E741F67830304441682846FDF7CF
:1046E0002FFE08B101209BE741F6883000F80690C4
:1046F000012041F6883131444870002090E70000E5
:10470000000C014048000020B80D00202945000899
:10471000E944000810B50446042C00DB10BD40F24B
:10472000E36262430B4B03EB820241F678331A4497
:10473000928991B240F2E3626243064B03EB82023C
:1047400041F678331A4490680122FCF747FD00BF18
:10475000E4E70000B80D00202DE9F04F8BB0814652
:10476000884640F2E36009FB00F0984901EB8004C1
:10477000A4F81080404602F0F9F88346944902F00C
:104780003DF90A90608A099041F6583104F116000B
:10479000FBF7DBFD8F490A9802F030F90690099883
:1047A00002F0E4F84FF07E51029001F043FF014621
:1047B0000390894801F0ACFF8849049002F01EF98B
:1047C0000590069901F0A4FF83464FF07E5102F058
:1047D000D5FA8246504601F001FFCDE9020100F012
:1047E00007FFCDE9040101F0B7FB0890089802F03B
:1047F000A5F88346514602F02FFA079078490798AA
:1048000002F0FCF8834601F0E9FECDE9020100F078
:10481000EFFECDE9040101F09FFB0646304601F0B2
:10482000CAFB02460B46CDE9000100206D49FFF7A7
:10483000DCFC02460B46CDE9020100206A49FFF785
:10484000B3FCCDE9040101F087FB0646002005E03A
:10485000664A089942F82010411CC8B20728F7DBC5
:10486000002512E0002E07DD604850F82500401CAE
:104870005E4941F8250006E05C4850F82500401EDE
:104880005A4941F82500681CC5B2301E01DB0146BB
:1048900000E04142A942E5DC00201FE0534951F805
:1048A0002010642901DA64210BE0504951F82010EE
:1048B000B1F5803F02DB4FF6FF7102E04B4951F842
:1048C00020104A4A42F82010114631F820108AB2CE
:1048D00004F1160121F81020411CC8B20728DDDBC5
:1048E0000027BB4655E004F1160131F81B0002F029
:1048F0003DF84FF07E51049001F09CFE069009981F
:1049000002F034F84FF07E51019001F093FE014621
:104910000290314801F0FCFE2E49039001F0F8FEB0
:104920002E49049002F06AF80590069901F0F0FE15
:104930002F4941F82B0004F1160131F81B0002F059
:1049400015F84FF07E51039001F074FE0590099820
:1049500002F00CF84FF07E51009001F06BFE014622
:1049600001901D4801F0D4FE1A49029001F0D0FEDA
:104970001A49039002F042F80490059901F0C8FE2C
:104980003946069001F056FE07460BF1010000F093
:10499000FF0BBBF1070FA6DB1149384601F0B8FE4B
:1049A0000746A7600721A18241F6783000590068C8
:1049B000C06A10490860A28A012304F11601484622
:1049C000FFF716FE0BB0BDE8F08F0000B80D002019
:1049D000CDCCCC3D0000C8454054894C000070420D
:1049E0000000E04000001C4000001CC0047C0020CF
:1049F000E87B0020440000202DE9F04104460D46EC
:104A000016461F46DDF8188040F2E36060432F49E8
:104A100001F82040002140F2E36060432B4A02EBA2
:104A20008000417040F2E360604302EB80008160EF
:104A300040F2E361614302EB810101F1160041F6AE
:104A40005831FBF782FC002140F2E36060431F4ACB
:104A500002EB8000018240F2E3606043114601EB0B
:104A6000800000F58050C0F8785B40F2E36060435E
:104A700001EB800041F678310844466040F2E36083
:104A80006043114601EB800041F6783108448760AD
:104A900040F2E3606043114601EB800041F678315B
:104AA0000844C0F80C80002140F2E360604302EB50
:104AB0008000C16040F2E360604302EB800001715E
:104AC000204600F025FDBDE8F0810000B80D002073
:104AD0000FB599B0FE480068401CFD4908601A985F
:104AE00001F044FFFB49099001F088FF18901B98E2
:104AF00001F03CFFF749099001F080FF179040F268
:104B0000E36119984843F44901EB80001690169927
:104B10001B9808821698408A1590159801F026FF78
:104B20004FF07E51079001F085FD01460890EB485B
:104B300001F0EEFD4FF08F41099001F0E9FDE849E9
:104B40000860E849189801F059FFE749099001F019
:104B5000DFFD1490E349179801F050FFE2490990F6
:104B600001F0D6FD1390DDE9130102F007F9129070
:104B70000021179801F08EFE04D11998FFF78AFCE6
:104B80001DB000BD0021129802F004F801D20120EE
:104B900001E04FF0FF301190119801F0CFFE099025
:104BA0001C9901F02BFF1090129801F017FD21F0D5
:104BB00000414FF06042CD4BCDE9040101F074F8A3
:104BC000CDE9060100F0EEFE099000F0BAFD0F906D
:104BD0004FF080400F9901F011FF0E900F99084699
:104BE00001F00CFF4FF07C510890109801F006FF87
:104BF0000790089901F002FF0990149901F01AFD3D
:104C00000D90B74801680D9801F0C4FE02D2B44877
:104C100000680D9014980C9000200B900A9041F6BB
:104C2000583116981630FBF790FBAD4801680C9888
:104C300001F0B0FE7ED2AA480C99006802F09EF8FE
:104C40004FF08041019001F0D9FE02901C9901F0D3
:104C50005FFD039001F0C2FCCDE9040100F04BFDC3
:104C6000CDE9060100F09EFE0990A149099801F0E6
:104C700091FE01D29E4800E009980990984800688A
:104C80000C90159801F072FE4FF07E51029001F0E9
:104C9000D1FC01460390914801F03AFD04900C9933
:104CA00001F036FD4FF07E51059002F067F84FF0AD
:104CB0007E51069001F06EFE02D24FF07E5032E03F
:104CC000159801F053FE4FF07E51029001F0B2FCB6
:104CD00001460390814801F01BFD04900C9901F0FE
:104CE00017FD4FF07E51059002F048F8814906907B
:104CF00001F050FF01D27F4815E0159801F036FE13
:104D00004FF07E51039001F095FC014604907348EA
:104D100001F0FEFC05900C9901F0FAFC4FF07E5179
:104D2000069002F02BF8079001F0E8FD81B208919F
:104D30000A9A00E00AE0501C80B208990A9016987E
:104D4000163020F8121009980B9000BF72E14FF056
:104D50007E500C9901F0DCFC099009990B9801F048
:104D600069FC0B900F990B9801F014FE13D20B996C
:104D7000084601F043FE4FF07C510590109801F079
:104D80003DFE0490059901F039FE0690149901F05A
:104D900051FC0C9030E0DDE90F1001F02FFE039084
:104DA0000F9901F02BFE05904FF08040109901F013
:104DB00025FE00900F9901F021FE01900B9901F062
:104DC0001DFE03904FF03F40109901F017FE009038
:104DD0000B9901F013FE01900B9901F00FFE029068
:104DE000039901F027FC0490059901F0C7FF069094
:104DF000149901F01FFC0C90394801680C9801F0DF
:104E0000C9FD02D2364800680C90159801F0AEFD3D
:104E10004FF07E51019001F00DFC014602902F48A9
:104E200001F076FC03900C9901F072FC4FF07E517A
:104E3000049001F0A3FF4FF07E51059001F0AAFD10
:104E400002D24FF07E5032E0159801F08FFD4FF006
:104E50007E51019001F0EEFB014602901F4801F0E7
:104E600057FC03900C9901F053FC4FF07E510490D5
:104E700001F084FF1F49059001F08CFE01D21D480E
:104E800015E0159801F072FD4FF07E51029001F08F
:104E9000D1FB01460390114801F03AFC04900C99B3
:104EA00001F036FC4FF07E51059001F067FF06904F
:104EB00001F024FD81B208910A9A501C80B2089931
:104EC0000A901698163020F81210089814E0000086
:104ED00040000020CDCCCC3DB80D00204054894C82
:104EE0003C0000200000C84500007042FF69784186
:104EF000BD37863500FF7F4701F038FD4FF07E510A
:104F0000049001F097FB0690159801F02FFD4FF0EB
:104F10007E51019001F08EFB014602908C4801F019
:104F2000F7FB8C49039001F0F3FB8B49049001F0EF
:104F300065FD0590069901F0EBFB0790179907981E
:104F400001F01CFF039001F049FB21F000414FF0FC
:104F50002042824BCDE9040101F044F869D20F9957
:104F60000B9801F017FE64D8159801F0FFFC4FF084
:104F70007E51009001F05EFB01460190744801F003
:104F8000C7FB0290139901F0C3FB4FF07E510390D1
:104F900001F0F4FE4FF07E51049001F0FBFC02D2D0
:104FA0004FF07E5032E0159801F0E0FC4FF07E515A
:104FB000009001F03FFB01460190654801F0A8FB1D
:104FC0000290139901F0A4FB4FF07E51039001F081
:104FD000D5FE6349049001F0DDFD01D2604815E083
:104FE000159801F0C3FC4FF07E51019001F022FBB7
:104FF00001460290564801F08BFB0390139901F093
:1050000087FB4FF07E51049001F0B8FE059000F050
:1050100039FB069001F072FC52490880084602886C
:105020000A99481C80B20A901698163020F8112070
:105030000BE000BF40F6AC510A98884205DA0E99A1
:105040000B9801F0A7FCFFF482AE00BF4FF0804048
:105050000F9901F0D3FC09900B9901F09BFC63D8E8
:10506000159801F083FC4FF07E51039001F0E2FAB5
:1050700001460490364801F04BFB0590139901F06E
:1050800047FB4FF07E51069001F078FE4FF07E51C5
:10509000079001F07FFC02D24FF07E5032E015986D
:1050A00001F064FC4FF07E51039001F0C3FA014619
:1050B0000490274801F02CFB0590139901F028FB80
:1050C0004FF07E51069001F059FE2549079001F0FE
:1050D00061FD01D2224815E0159801F047FC4FF020
:1050E0007E51049001F0A6FA01460590184801F09F
:1050F0000FFB0690139901F00BFB4FF07E510790C8
:1051000001F03CFE089000F0BDFA099001F0F6FBBA
:1051100014490880084602880A99481C80B20A90FF
:105120001698163020F81120169800F580500B992B
:10513000C0F8741B0A99169881820023169800F112
:1051400016010A9A1998FFF753FA00BF18E50000F4
:105150004054894C0000C845000070429999B93FFD
:1051600000FF7F47300000202DE9F04706460F463C
:10517000042E01DBBDE8F08740F2E3607043234971
:1051800001EB8004384601F0F1FB8046204901F034
:1051900035FC05462079E178884202D0304600F09F
:1051A000B7F9E0782071E07828B93046FFF772F956
:1051B0000020E060DEE73046FFF7ACFA2946E06801
:1051C00001F068FB10D01349A06801F017FC81467C
:1051D00001F094FB1FFA80F80F4B3A4641463046E7
:1051E000FFF776FCE5600CE06078012809D1E078F3
:1051F000032806D1A078022803D139463046FFF7AC
:10520000ABFA6078A07000BFB4E70000B80D0020D2
:10521000CDCCCC3D00002041FF4FC34B2DE9F04FDA
:105220008BB005460E4640F2E3606843A84901EBA7
:105230008004304601F09AFB0746A64901F0DEFBE8
:10524000814641F6783109590968C96A88B201F086
:105250008DFB82464FF07E5101F0ECF9074641F696
:10526000783109590968886A01F080FB4FF07E5156
:10527000099001F0DFF901460A90974801F048FAD9
:105280008346964901F044FA8246954901F0B6FBFF
:105290008046394601F03CFA9249086041F6783080
:1052A00000590068C06A904908608C49484601F07E
:1052B000A5FB0490608A01F059FB4FF07E510190EC
:1052C00001F0B8F901460290834801F021FA8449BF
:1052D000039001F093FB8346049901F019FA4FF013
:1052E0007E51059001F04AFD824601F007FB1FFA4E
:1052F00080F8404601F03AFB4FF07E51069001F0F5
:105300003DFD07464FF07E5101F094F90890608A08
:1053100001F02CFB83464FF07E5101F08BF9804663
:1053200041466D4801F0F4F982466C4901F0F0F90C
:1053300007466B4901F062FB0790089901F0E8F914
:1053400066490A90484601F059FB0590608A01F0D1
:105350000DFB4FF07E51029001F06CF90146039075
:105360005D4801F0D5F983465D4901F047FB0490A3
:10537000059901F0CDF94FF07E51069001F0FEFC49
:10538000079001F0BBFA1FFA80FA504601F0EEFADE
:1053900080464FF07E5101F04DF90746608A01F0DA
:1053A000E5FA4FF07E51079001F044F983465946E3
:1053B000494801F0ADF98246484901F0A9F9804613
:1053C000474901F01BFB3946089001F0A1F909900B
:1053D0000A9901F0D3FC454908604946A06801F0EC
:1053E00029F90746424901F0D5FA02D2002060703F
:1053F0002AE04946A06801F0C1FC824601F0EEF8BF
:1054000021F0004107464FF000523A4B00F0EAFD10
:1054100005D8E078032802D10120607014E04946E5
:10542000A06801F0ABFC824601F0D8F821F0004101
:1054300007464FF02042304B00F064FE02D80220B5
:10544000607001E0012060700021484601F022FAFE
:1054500001D0607810B90020E07035E049460020A6
:1054600001F098FA0BD2484601F0B8F80746234AF3
:10547000234B00F0B7FD02D20120E07024E0484643
:1054800001F0ACF807461D4A1D4B00F03BFE0BD85F
:10549000484601F0A3F807461A4A1B4B00F0A2FD4C
:1054A00002D20220E0700FE0484601F097F807466C
:1054B000144A154B00F026FE06D81449484601F060
:1054C00069FA01D80320E0700BB0BDE8F08F00004E
:1054D000B80D0020CDCCCC3D4054894C0000C845CF
:1054E000000070422C000020340000203800002012
:1054F0000AD7233CAE47E13F9999B93F9A999999C8
:1055000099193240CDCCCCCCCC3C70400000164434
:10551000F0B587B0064604213348FBF755FE40F24C
:10552000E3607043314901EB800541F6783044591E
:105530002844476800BF2068006A41F21111084002
:1055400050B92068006A8910084028B920680068AE
:1055500020F001002168086000BF39462046FCF7B2
:1055600069FF206A40B1206AFAF7FCFF2068C06832
:1055700020F480702168C860E878012802D1CD202D
:10558000688209E0E878022804D0E878032801D08E
:10559000E87808B900206882688A60600021A1600C
:1055A0004FF6FF71E16000212161A1612046FCF707
:1055B000D7FA1C216846FAF7EAFE60200090688A54
:1055C00018B94FF47A70019001E096200190002004
:1055D000029004903A4669462046FCF777FE002088
:1055E0002168486207B0F0BD000C0140B80D0020F2
:1055F0002DE9F04D07460E4600F0BAFD04460D4673
:105600003A46334600F00EFEDFF86CA0DFF86CB0CF
:105610001B4B0746884616F0004F4FF000020AD099
:1056200000F0E0FC0AD900225B463846414600F013
:1056300069FD1BD212E000F0D5FC08D200225346CF
:105640002046294600F0E0FE04460D460EE000220A
:105650005B463846414600F055FD07D800225346C8
:105660002046294600F0D0F904460D463146204632
:1056700065F31E01BDE8F08D0000F03F0000E03F43
:105680000000E0BF70B5054601F0B6FA04460146D9
:10569000284601F073FB15F0004F4FF07F410ED00C
:1056A000B0F13F4F28BFB1EB400F0ED2B0F17C5F9D
:1056B0001DDDB1EB400F1AD313E0044617E0B0F143
:1056C0003F4F08D9B1EB400F05D34FF07E51204634
:1056D00001F054FBF1E7B0F17C5F08DBB1EB400F68
:1056E00005D34FF07E51204600F0A4FFE5E72846A1
:1056F00064F31E0070BD2DE9F04106460F4600F030
:105700009DFD041E0D4618BF0120284320F00040D7
:10571000C0F17F6000F1E040C00F0ED0301C18BF18
:105720000120384320F00040C0F17F6000F1E040EC
:10573000C00F04BF0120FAF759FE20462946BDE8F4
:10574000F08170B5054601F091FA044620F0004062
:10575000C0F1FF40C00F08D025F00040C0F1FF406D
:10576000C00F04BF0120FAF741FE204670BD0000C3
:1057700038B54D48FEF7B0FD0546022D3BD14B48EC
:105780004B490978405C042816DC4849484A12789D
:10579000895C484A02EB011101F10C00FF2204214F
:1057A000FAF7CBFD01214148414A1278805C414A19
:1057B00002EB0010C17008E0FF2208213E48FAF712
:1057C000BCFD01203C490C3988703748FEF7A3FD29
:1057D0003748007839490978884201D1002038BD1E
:1057E00033480078401C3549097890FBF1F201FB01
:1057F00012002F4908702C4890F82001022829D166
:105800002A482B490978405C042809DC00202749F4
:10581000274A1278895C274A02EB0111C87003E01D
:10582000002025490C3988701F48FEF774FD204878
:10583000007822490978884201D10020CFE71C482E
:105840000078401C1D49097890FBF1F201FB120021
:10585000174908701448FEF734FD18BB1348144963
:105860000978445C042C10DC02201049104A12789C
:10587000895C104A02EB0111C87000230422214602
:1058800000900948FEF75AFD0BE002200A490C3946
:105890008870042000230246214600900248FEF74B
:1058A0004DFD00BF02209AE768090020110000208A
:1058B00017000020F40800204009002016000020F6
:1058C00000201D4908701D48002101600171012060
:1058D0001B490870002018E01A4901EB00114978B3
:1058E00069B9184901EB00110978144A124B1B7869
:1058F000D15411490978491C0F4A117004E011492B
:1059000001EB00110022CA60401C0428E4DB0E48B1
:10591000407858B90C4801780848074A12788154F1
:1059200005480078401C0449087003E0064800213F
:10593000C1600161704700001600002011000020C6
:1059400010000020F40800203409002010B55A206F
:1059500010490870A520487002208870002009E0D6
:105960000C49C91C01EB80010B4A02EB0012D26802
:105970000A60401C0428F3DB0648C01C0749CA68BB
:105980000261096941611E22C11E0548FDF768FADE
:1059900010BD000048090020F40800203409002050
:1059A000E806002021F00042A2F16052B2F5801F0B
:1059B00001F0004328BFD2F17F6C0BD95FEA001CD5
:1059C00043EAC20242EB507018BF704728BF20F074
:1059D00001007047B2F5801FBCBF184670474FEA00
:1059E000410C1CF5001F02D2084601F0CEB870B57C
:1059F00000F034FB00000089FFF7F6BF4FF00040D5
:105A0000A0F580007047000010B591EA030F48BF71
:105A100083F0004300F10085841A71EB030C05D27A
:105A2000121943EB0C03001B61EB0C01DFF824E1BE
:105A30004FEA1154A4EB135C1EEA430F18BF9EEA11
:105A4000445F73D023EA0E03DCF1200E21EA0451F7
:105A500043F4801332D322FA0CFE10EB0E0023FA2B
:105A60000CFE41EB0E01CCF1200E03FA0EFE10EB02
:105A70000E0051F10001B1F5801FCCF1200E32D2A1
:105A800001EB045112FA0EF2BDE8104058BF704706
:105A9000401C38BF5FEA420218BF7047002814BF9D
:105AA00020F0010041F100014FEA410313F5001F0E
:105AB00038BF7047A1F1C04100F01EBB012A43EB83
:105AC0000302ACF1200CDCF11F0E32BF4FF0000ED0
:105AD00023FA0CF310EB030041EB0451B4EB115F1C
