:020000040800F2
:10000000E88400200D0200085D3600082530000855
:100010005936000873040008F7400008000000008B
:100020000000000000000000000000008D36000805
:100030005D0500080000000061360008BF360008BA
:1000400027020008270200082702000827020008EC
:1000500027020008270200082702000827020008DC
:1000600027020008270200082702000827020008CC
:10007000B1040008C1040008D1040008E10400082C
:1000800027020008F10400082702000827020008E0
:10009000270200082702000827020008270200089C
:1000A000270200082702000827020008270200088C
:1000B000270200082702000827020008270200087C
:1000C000270200082702000827020008270200086C
:1000D00027020008A54000082702000827020008A0
:1000E000270200082702000827020008270200084C
:1000F000270200082702000827020008270200083C
:10010000270200082702000827020008270200082B
:10011000D53A0008270200083537000827020008F2
:100120002702000801050008110500082105000844
:1001300000F002F800F05AF80AA090E8000C82449F
:100140008344AAF10107DA4501D100F04FF8AFF27C
:10015000090EBAE80F0013F0010F18BFFB1A43F0A5
:1001600001031847C86E0000E86E00000A444FF013
:10017000000C10F8013B13F0070408BF10F8014B06
:100180001D1108BF10F8015B641E05D010F8016B4B
:10019000641E01F8016BF9D113F0080F1EBF10F8AF
:1001A000014BAD1C0C1B09D16D1E58BF01F801CBD2
:1001B000FAD505E014F8016B01F8016B6D1EF9D555
:1001C0009142D6D37047000000230024002500266A
:1001D000103A28BF78C1FBD8520728BF30C148BFAA
:1001E0000B6070471FB51FBD10B510BD00F00CF9B6
:1001F0001146FFF7F7FF04F001F900F02AF903B404
:10020000FFF7F2FF03BC00F02DF90000094880471A
:1002100009480047FEE7FEE7FEE7FEE7FEE7FEE7E8
:10022000FEE7FEE7FEE7FEE704480549054A064B00
:10023000704700003137000831010008E87C0020D9
:10024000E8840020E8800020E8800020032A40F2B3
:10025000308010F0030C00F0158011F8013BBCF168
:10026000020F624498BF11F801CB00F8013B38BF80
:1002700011F8013BA2F1040298BF00F801CB38BF8E
:1002800000F8013B11F0030300F02580083AC0F0AC
:10029000088051F8043B083A51F804CBA0E8081054
:1002A000F5E7121D5CBF51F8043B40F8043BAFF387
:1002B0000080D20724BF11F8013B11F801CB48BFE1
:1002C00011F8012B24BF00F8013B00F801CB48BF17
:1002D00000F8012B704710B5203AC0F00B80B1E850
:1002E0001850203AA0E81850B1E81850A0E818506B
:1002F000BFF4F5AF5FEA027C24BFB1E81850A0E874
:10030000185044BF18C918C0BDE810405FEA827C8D
:1003100024BF51F8043B40F8043B08BF7047D207A4
:1003200028BF31F8023B48BF11F8012B28BF20F845
:10033000023B48BF00F8012B704702F0FF0343EA7D
:10034000032242EA024200F002B84FF00002042900
:10035000C0F0128010F0030C00F01B80CCF1040CF4
:10036000BCF1020F18BF00F8012BA8BF20F8022B28
:10037000A1EB0C0100F00DB85FEAC17C24BF00F8CE
:10038000012B00F8012B48BF00F8012B70474FF0FC
:10039000000200B5134694469646203922BFA0E8D5
:1003A0000C50A0E80C50B1F12001BFF4F7AF0907E1
:1003B00028BFA0E80C5048BF0CC05DF804EB8900D2
:1003C00028BF40F8042B08BF704748BF20F8022B15
:1003D00011F0804F18BF00F8012B7047704770472D
:1003E000704710B500F008F8006810BD10B504465D
:1003F00000F002F8046010BD00487047887C0020BF
:1004000000487047887C00207546FFF7F9FFAE462C
:1004100005006946534620F00700854618B020B510
:10042000FFF702FFBDE820404FF000064FF0000745
:100430004FF000084FF0000B21F00701AC46ACE88C
:10044000C009ACE8C009ACE8C009ACE8C0098D46F9
:10045000704710B50446AFF300802046BDE8104059
:10046000FFF7CDBE01491820ABBEFEE72600020013
:10047000704700BFFEE7000070B502460B46FF2440
:10048000FF25002100BF09E0565C86EA0400064E05
:10049000365C86EA0504054E355C491C9942F3DB5F
:1004A00045EA042070BD00005400002054010020E3
:1004B00010B5024800F09CF910BD0000D8050020DE
:1004C00010B5024800F094F910BD00001C06002091
:1004D00010B5024800F08CF910BD0000A4080020FF
:1004E00010B5024800F084F910BD0000600800203B
:1004F00010B5024800F07CF910BD00006006002035
:1005000010B5024800F074F910BD0000A4060020E8
:1005100010B5024800F06CF910BD0000D8070020AB
:1005200010B5024800F064F910BD00001C0800205E
:1005300030B590F840500124AC40C56B6C60046845
:1005400063604468102C04D10468A2600468E16010
:1005500003E00468A1600468E26030BD704772B6D1
:1005600000BFFEE70146002291F82100022808D0D2
:100570000420886300BF002081F8200000BF012014
:1005800070470868006820F00E000B681860086863
:10059000006820F001000B68186091F840300120DD
:1005A0009840CB6B5860012081F8210000BF0020EB
:1005B00081F8200000BF1046E2E7000070B5044655
:1005C000002594F82100022803D00420A06301250F
:1005D000C1E02068006820F00E00216808602068F3
:1005E000006820F00100216808605C4920688842AA
:1005F00052D95A4978392068884201D1012047E010
:10060000564964392068884201D1102040E053499E
:1006100050392068884201D1801539E04F493C3972
:100620002068884201D1801432E04C492839206882
:10063000884202D14FF480302AE0484914392068BA
:10064000884202D14FF4801022E044492068884259
:1006500001D140041CE042492068884201D10120B8
:1006600016E03F4914312068884201D110200FE084
:100670003B4928312068884201D1801508E038497B
:100680003C312068884201D1801401E04FF4803071
:100690003349091F086051E03049783920688842A1
:1006A00001D1012047E02D4964392068884201D1F9
:1006B000102040E0294950392068884201D1801536
:1006C00039E026493C392068884201D1801432E063
:1006D000224928392068884202D14FF480302AE02C
:1006E0001E4914392068884202D14FF4801022E05C
:1006F0001A492068884201D140041CE0184920684A
:10070000884201D1012016E0154914312068884241
:1007100001D110200FE0124928312068884201D110
:10072000801508E00E493C312068884201D18014D0
:1007300001E04FF48030094980394860012084F895
:10074000210000BF002084F8200000BF606B10B1C2
:100750002046616B8847284670BD0000800002403B
:1007600008040240014609B9012070470868006882
:1007700020F001000A68106000200A6810600A6812
:1007800050600A6890600A68D060174A0868904212
:100790000BD2164A0868801A1422B0FBF2F08000CF
:1007A000086412480838C8630AE00F4A0868801ACB
:1007B0001422B0FBF2F0800008640B480838C863CC
:1007C00091F8402001209040CA6B50600020886260
:1007D000C86208634863886381F8210000BF81F81C
:1007E000200000BF00BFC0E708040240080002402C
:1007F00070B50446E06B05682068066894F8401000
:10080000042088402840002875D006F00400002805
:10081000FAD02068006800F0200028B9206800683D
:1008200020F0040021680860D5492068884254D926
:10083000D34978392068884201D1042049E0D04961
:1008400064392068884201D1402042E0CC495039C7
:100850002068884201D100153BE0C9493C39206835
:10086000884202D14FF4804033E0C54928392068DE
:10087000884202D14FF480202BE0C149143920680E
:10088000884202D14FF4800023E0BD4920688842AD
:1008900001D1C0041DE0BB492068884201D1042079
:1008A00017E0B84914312068884201D1402010E097
:1008B000B44928312068884201D1001509E0B149C6
:1008C0003C312068884202D14FF4804001E04FF46F
:1008D0008020AC49091F086054E0A9497839206894
:1008E000884201D104204AE0A54964392068884241
:1008F00002D1402043E04CE0A149503920688842B1
:1009000001D100153BE09E493C392068884202D164
:100910004FF4804033E09A4928392068884202D158
:100920004FF480202BE0964914392068884202D188
:100930004FF4800023E092492068884201D1C0042E
:100940001DE090492068884201D1042017E08D49BC
:1009500014312068884201D1402010E089492831B3
:100960002068884201D1001509E086493C312068A1
:10097000884202D14FF4804001E04FF4802080494A
:1009800080394860E06A002802D02046E16A884742
:10099000F4E094F84010022088402840002871D0EC
:1009A00006F002000028FAD02068006800F020005D
:1009B00040B92068006820F00A0021680860012022
:1009C00084F821006E492068884254D96C497839EE
:1009D0002068884201D1022049E0694964392068D1
:1009E000884201D1202042E0654950392068884280
:1009F00001D140153BE062493C392068884202D170
:100A00004FF4005033E05E4928392068884202D113
:100A10004FF400302BE05A4914392068884202D143
:100A20004FF4001023E056492068884201D1800429
:100A30001DE054492068884201D1022017E0514945
:100A400014312068884201D1202010E04D4928311E
:100A50002068884201D1401509E04A493C312068AC
:100A6000884202D14FF4005001E04FF40030454974
:100A7000091F086054E0424978392068884202D151
:100A800002204AE057E03E4964392068884201D19B
:100A9000202042E03A4950392068884201D140156F
:100AA0003BE037493C392068884202D14FF400507E
:100AB00033E0334928392068884202D14FF40030AE
:100AC0002BE02F4914392068884202D14FF40010DE
:100AD00023E02B492068884201D180041DE0294988
:100AE0002068884201D1022017E02649143120688D
:100AF000884201D1202010E0224928312068884214
:100B000001D1401509E01F493C312068884202D1DB
:100B10004FF4005001E04FF400301949803948602B
:100B200000BF002084F8200000BFA06A30B3204638
:100B3000A16A884722E094F84010082088402840A5
:100B4000E0B106F00800C8B12068006820F00E008F
:100B50002168086094F8401001208840E16B4860EB
:100B60000120A06384F8210000BF002084F8200049
:100B700000BF206B10B12046216B884770BD00007C
:100B800080000240080402400146002209B9012009
:100B900070471E4B086898420BD21D4B0868C01A5C
:100BA0001423B0FBF3F08000086419480838C863C8
:100BB0000AE0164B0868C01A1423B0FBF3F080005B
:100BC000086412480838C863022081F821000868C8
:100BD000026843F6F0708243D1E901031843CB6801
:100BE00018430B6918434B6918438B691843CB6949
:100BF000184302430868026000208863012081F8DE
:100C00002100002081F8200000BFC1E70804024055
:100C10000800024010B50346002400BF93F82000EE
:100C2000012801D1022010BD012083F8200000BF5F
:100C300093F82100012812D131B1012906D00229EF
:100C400006D0032908D105E09A6207E0DA6205E0E0
:100C50001A6303E05A6301E0012400BF00E00124AD
:100C600000BF002083F8200000BF2046DBE72DE90D
:100C7000F04104460D4616461F464FF0000800BFDF
:100C800094F82000012802D10220BDE8F081012063
:100C900084F8200000BF94F8210001282CD1022004
:100CA00084F821000020A0632068006820F0010083
:100CB000216808603B46324629462046FFF738FC4B
:100CC000E06A30B12068006840F00E0021680860DA
:100CD0000BE02068006820F00400216808602068AC
:100CE000006840F00A00216808602068006840F051
:100CF00001002168086006E000BF002084F82000A1
:100D000000BF4FF002084046BFE7000070B5044640
:100D100000F06AFA06462546681C10B104480078BF
:100D2000054400BF00F060FA801BA842FAD370BDF2
:100D3000080000202DE9F04102460B4600208CE01F
:100D40000127874007EA030100296FD0464F4FEA89
:100D5000900C57F82C4087074FEA177C0F2707FAAB
:100D60000CF73C40414FBA4201D1002719E0404FF7
:100D7000BA4201D1012714E03E4FBA4201D1022705
:100D80000FE03D4FBA4201D103270AE03B4FBA4280
:100D900001D1042705E03A4FBA4201D1052700E00E
:100DA00006274FEA807C4FEA1C7C07FA0CF7A74223
:100DB00032D1344F3F688F43DFF8C8C0CCF80070A1
:100DC0000CF104073F688F430CF1040CCCF8007061
:100DD0002C4F0C373F688F43DFF8A8C00CF10C0C88
:100DE000CCF80070ACF104073F688F43ACF1040C01
:100DF000CCF8007087074FEA177C0F2707FA0CF42E
:100E0000194F4FEA900C57F82C70A743DFF858C0E1
:100E10004FEA90084CF82870FF2901D8174600E0E7
:100E2000171D3D46FF2902D8870003E014E0A0F11A
:100E30000807BF003E462F684FF00F0C0CFA06FC67
:100E400027EA0C074FF0040C0CFA06FC47EA0C07E3
:100E50002F60D7688F43D760401C23FA00F7002F1C
:100E60007FF46EAFBDE8F08108000140000801404A
:100E7000000C014000100140001401400018014026
:100E8000001C0140000401402DE9F8470246002300
:100E90009C467BE14FF0010808FA03F4D1F800808A
:100EA00008EA0400A0427DD1DFF8F4A2D1F8048062
:100EB000A8EB0A09D0453AD014DCB8F1030F50D0A2
:100EC00009DCB8F1000F31D0B8F1010F1CD0B8F136
:100ED000020F49D120E0B8F1110F18D0B8F1120F6C
:100EE00042D11EE0B9F5881F25D006DCB9F5803F58
:100EF00020D0B9F5801F37D11AE0B9F5001F18D0FE
:100F0000B9F5041F30D117E0D1F80CC02DE0D1F8AD
:100F10000C8008F1040C28E0D1F80C8008F1080CD2
:100F200023E0D1F80C8008F10C0C1EE000BF00BFDC
:100F300000BF00BF00BF00BFD1F80880B8F1000FAC
:100F400002D14FF0040C0BE0D1F80880B8F1010F8A
:100F500003D14FF0080C146102E04FF0080C54610B
:100F600003E04FF0000C00E000BF00BFFF2801D8F5
:100F7000904601E002F104084646FF2802D84FEAF5
:100F8000830803E0A3F108084FEA88084746D6F82B
:100F900000804FF00F0909FA07F928EA09080CFA4E
:100FA00007F900E07AE048EA0908C6F80080D1F8BD
:100FB000048008F08058B8F1805F6FD100BFDFF87F
:100FC000E481D8F8188048F00108DFF8D891C9F812
:100FD0001880C846D8F8188008F00108CDF80080BD
:100FE00000BF00BF4FEAB9384FEA930958F82950BB
:100FF0004FEA83784FEA18794FF00F0808FA09F89A
:1010000025EA0805DFF8A081424502D14FF000082B
:1010100024E0DFF89881424502D14FF001081DE03D
:10102000DFF88C81424502D14FF0020816E0DFF86C
:101030008481424502D14FF003080FE0DFF8788148
:10104000424502D14FF0040808E0DFF870814245C4
:1010500002D14FF0050801E04FF006084FEA83790E
:101060004FEA197908FA09F848EA0505DFF85081CE
:101070004FEA930948F82950D1F8048008F4801801
:10108000B8F5801F0BD1DFF83C81D8F8008048EA22
:101090000008DFF83091C9F800800AE075E0DFF859
:1010A0002481D8F8008028EA0008DFF81891C9F8F0
:1010B0000080D1F8048008F40018B8F5001F0ED1A4
:1010C000DFF8008108F10408D8F8008048EA000839
:1010D000DFF8F09009F10409C9F800800DE0DFF8AD
:1010E000E48008F10408D8F8008028EA0008DFF856
:1010F000D49009F10409C9F80080D1F8048008F4FB
:101100000038B8F5003F0ED1DFF8B880A8F1040828
:10111000D8F8008048EA0008DFF8A890A9F104098F
:10112000C9F800800DE0DFF89C80A8F10408D8F829
:10113000008028EA0008DFF88C90A9F10409C9F8BA
:101140000080D1F8048008F48038B8F5803F0ED1D3
:10115000DFF87080A8F10808D8F8008048EA000895
:10116000DFF86090A9F10809C9F800800DE0DFF808
:101170005480A8F10808D8F8008028EA0008DFF8B1
:101180004490A9F10809C9F800805B1CD1F80080DF
:1011900028FA03F8B8F1000F7FF47CAEBDE8F887B9
:1011A000000011100010024000080140000C014036
:1011B000001001400014014000180140001C0140D3
:1011C000080001400804014010B5C26821EA02038A
:1011D00002EA010443EA0443036110BD0AB101615C
:1011E00001E00B040361704701480068704700008C
:1011F00000000020034800680349097808440149B9
:1012000008607047000000200800002010B5084862
:10121000006840F0100006490860032000F0CAF89A
:101220000F2000F007F800F02BF8002010BD0000A0
:101230000020024070B504460E4800784FF47A71E1
:10124000B1FBF0F00C490968B1FBF0F5284600F05D
:101250001BFC08B1012070BD102C07D200222146D2
:10126000501E00F069F80548046001E00120F2E733
:101270000020F0E7080000200C00002004000020FF
:1012800008B500BF1148806940F001000F4988612E
:101290000846806900F00100009000BF00BF00BF59
:1012A0000846C06940F08050C8610846C06900F037
:1012B0008050009000BF00BF00BF0549486820F083
:1012C000E06040F00070486000BF08BD00100240C0
:1012D0000000014010B501460846002817DB00F069
:1012E0001F0301229A400B4B440943F8242000BFFE
:1012F00000BF00BFBFF34F8F00BF00BF00BF00BFE4
:1013000000BF00BFBFF36F8F00BF00BF00BF00BFB3
:1013100010BD000080E100E001460846002809DB1E
:1013200000F01F0301229A4043099B0003F1E023D0
:10133000C3F8002100BF70472DE9F05F80460D46DD
:101340001646002702F0DAFE074639462A4633469B
:1013500001F00700C0F1070ABAF1040F02D94FF0FB
:10136000040A01E0C0F1070AD14600F1040ABAF10B
:10137000070F02D24FF0000A01E0A0F1030AD446A1
:101380004FF0010A0AFA09FAAAF1010A0AEA020A66
:101390000AFA0CFA4FF0010B0BFA0CFBABF1010B44
:1013A0000BEA030B4AEA0B042146404602F0AEFE6C
:1013B000BDE8F09F00BF00F00702064B19684FF62A
:1013C000FF031940044B0B4343EA0221014B196010
:1013D00000BF70470CED00E00000FA0570B5044650
:1013E0000D460CB9012070BD5A48006800F0070096
:1013F000A8420ED25748006820F0070028435549FC
:1014000008600846006800F00700A84201D00120EB
:10141000E9E7207800F0020002281DD1207800F0D2
:101420000400042805D14C48406840F4E0604A4973
:101430004860207800F00800082805D14648406838
:1014400040F46050444948604348406820F0F00050
:10145000A168084340494860207800F0010078B353
:101460006068012806D13C48006800F4003090B95B
:101470000120B8E76068022806D13748006800F00C
:10148000007040B90120AEE73348006800F0020068
:1014900008B90120A7E73048406820F003006168E0
:1014A00008432D494860FFF79FFE064609E0FFF715
:1014B0009BFE801B41F28831884202D9032092E7CB
:1014C00007E02548406800F00C006168B0EB810F30
:1014D000EDD12048006800F00700A8420ED91D4851
:1014E000006820F0070028431A4908600846006891
:1014F00000F00700A84201D0012074E7207800F036
:101500000400042807D11448406820F4E060E16832
:10151000084311494860207800F00800082808D1E5
:101520000D48406820F46050216940EAC1000A4932
:10153000486000F03FF808494968C1F30311074AC1
:10154000515CC8400649086006480068FFF772FE13
:10155000002048E7002002400010024014700008FC
:101560000C000020040000200148006870470000C3
:101570000C00002000B5FFF7F7FF04494968C1F3EC
:101580000221034A515CC84000BD00000010024027
:101590002470000800B5FFF7E7FF04494968C1F36C
:1015A000C221034A515CC84000BD00000010024047
:1015B0002470000870B500210022002400230020C0
:1015C000134D696801F00C05F5B1042D02D0082D0A
:1015D00019D101E00F4819E00F4DC1F38346AB5D0F
:1015E00001F4803555B10A4D6D68C5F340450B4E89
:1015F000725D084D5D43B5FBF2F402E0084D03FB5C
:1016000005F4204602E000BF024800BF00BF70BDE5
:101610000010024000127A000270000812700008E8
:1016200000093D00F8B504460CB90120F8BD20784A
:1016300000F00100002878D0F848406800F00C0065
:1016400004280CD0F548406800F00C00082811D19F
:10165000F248406800F48030B0F5803F0AD1EF488E
:10166000006800F4003000285FD0606800285CD17A
:101670000120DBE700BF6068B0F5803F06D1E74896
:10168000006840F48030E549086028E0606858B997
:10169000E248006820F48030E049086008460068AD
:1016A00020F4802008601AE06068B0F5A02F0BD10C
:1016B000DA48006840F48020D8490860084600688D
:1016C00040F4803008600AE0D448006820F480309C
:1016D000D24908600846006820F48020086000BFF6
:1016E000606888B1FFF780FD054606E0FFF77CFDE6
:1016F000401B642801D9032098E7C848006800F41B
:1017000000300028F2D010E0FFF76EFD054606E03D
:10171000FFF76AFD401B642801D9032086E7BF4814
:10172000006800F400300028F2D1207800F00200B8
:10173000022857D1B948406800F00C0050B1B748B2
:10174000406800F00C00082818D1B448406800F444
:10175000803098B9B148006800F0020020B12069DB
:10176000012801D0012061E7AC48006820F0F800B2
:10177000616940EAC100A949086033E02069E8B125
:101780000120A7490860FFF72FFD054606E0FFF797
:101790002BFD401B022801D9032047E79F48006822
:1017A00000F002000028F2D09C48006820F0F80009
:1017B000616940EAC1009949086013E00020984936
:1017C0000860FFF711FD054606E0FFF70DFD401B21
:1017D000022801D9032029E79048006800F00200A0
:1017E0000028F2D1207800F0080008282DD1A06947
:1017F000B8B101208B490860FFF7F6FC054606E00A
:10180000FFF7F2FC401B022801D903200EE78348B2
:10181000406A00F002000028F2D0012001F022FF0F
:1018200013E000207F490860FFF7DEFC054606E074
:10183000FFF7DAFC401B022801D90320F6E67748BF
:10184000406A00F002000028F2D1207800F0040085
:10185000042873D100277148C06900F0805070B926
:1018600000BF6E48C06940F080506C49C8610846AE
:10187000C06900F08050009000BF00BF01276A4897
:10188000006800F48070B0B96748006840F4807068
:1018900065490860FFF7A8FC054606E0FFF7A4FCD1
:1018A000401B642801D90320C0E65F48006800F4AB
:1018B00080700028F2D000BFE068012806D15748A8
:1018C000006A40F001005549086227E0E06858B915
:1018D0005248006A20F00100504908620846006A38
:1018E00020F00400086219E0E06805280BD14B489D
:1018F000006A40F00400494908620846006A40F066
:10190000010008620AE04548006A20F001004349EE
:1019100008620846006A20F00400086200BFE06820
:10192000A0B1FFF761FC054609E0FFF75DFC401B35
:1019300041F28831884202D9032077E622E0374815
:10194000006A00F002000028EFD012E0FFF74CFC24
:10195000054608E0FFF748FC401B41F28831884209
:1019600001D9032062E62D48006A00F00200002839
:10197000F0D1012F05D12948C06920F080502749B6
:10198000C86100BFE069C8B32448406800F00C009B
:10199000082860D0E069022848D100202049086664
:1019A000FFF722FC054606E0FFF71EFC401B02285D
:1019B00001D903203AE61948006800F000700028B9
:1019C000F2D1206AB0F5803F07D11448406820F476
:1019D0000030A168084311494860D4E90801084370
:1019E0000E49496821F4741108430C4948600120EC
:1019F0000B490866FFF7F8FB054607E03DE0FFF7F7
:101A0000F3FB401B022801D903200FE603480068BE
:101A100000F000700028F2D02FE00000001002401B
:101A200000004242800442420070004000201449FD
:101A30000866FFF7D9FB054606E0FFF7D5FB401B1C
:101A4000022801D90320F1E50E48006800F000707B
:101A50000028F2D111E0E069012800D1E6E509484B
:101A6000466806F48031206A814204D106F4701180
:101A7000606A814201D00120D8E50020D6E500004F
:101A8000000042420010024070B504462546681E20
:101A9000B0F1807F01D301200FE0681E4FF0E021FC
:101AA00048610F214FF0FF3002F030FB00204FF073
:101AB000E021886107200861002070BD70477047F1
:101AC0007047000030B502460B4600BF92F83C005C
:101AD000012801D1022030BD012082F83C0000BF66
:101AE000022082F83D00106844681068816824F084
:101AF00070041868044310684460144D1068A842CC
:101B000013D0134D1068A8420FD01068B0F1804F69
:101B10000BD0104D1068A84207D00F4D1068A84296
:101B200003D00E4D1068A84205D121F080015868FD
:101B3000014310688160012082F83D0000BF002051
:101B400082F83C0000BF00BFC5E70000002C014048
:101B5000003401400004004000080040000C004038
:101B600010B50446022084F83D0000BF2068006ADA
:101B700041F21111084050B92068006A89100840EC
:101B800028B92068006820F001002168086000BFC3
:101B9000E06C08B91248E0642046E16C88470020F8
:101BA00084F8460000BF84F83E0000213F20015524
:101BB000402001554120015500BF00BF002084F89E
:101BC000420043200155442001554520015500BFE6
:101BD000002084F83D0000BF84F83C0000BF10BD29
:101BE0005D1C000810B504460CB9012010BD94F826
:101BF0003D0060B9002084F83C00204601F004FF5D
:101C0000A06C08B91448A0642046A16C8847022043
:101C100084F83D00211D206801F094FD012084F826
:101C2000460000BF84F83E0001213F2001554020BE
:101C300001554120015500BF00BF012084F842003A
:101C400043200155442001554520015500BF012086
:101C500084F83D000020C9E70D1D000810B50446BA
:101C60002068B0F1804F09D12348C06920F00100FD
:101C70002149C861206AFEF775FD3CE01F492068D4
:101C800088420CD11C48C06920F002001A49C86182
:101C9000206BFEF767FD206AFEF764FD2BE0184914
:101CA0002068884209D11448C06920F00400124914
:101CB000C861206AFEF756FD1DE01249206888427F
:101CC0000CD10D48C06920F008000B49C861E06ADA
:101CD000FEF748FD206AFEF745FD0CE00A49206842
:101CE000884208D10448C06920F010000249C86148
:101CF0003620FFF7EFFA10BD00100240000400404C
:101D000000080040000C00400010004038B50446B8
:101D10002068B0F1804F2AD100BF6F48C06940F001
:101D200001006D49C8610846C06900F001000090DB
:101D300000BF00BF69486A49086010204860002160
:101D4000674881608021C16049000161890041616B
:101D5000002181614FF44051C161FEF715FF08B1C8
:101D6000FEF7FDFB00BF5E4820624462B2E05D49C1
:101D70002068884230D100BF5748C06940F0020057
:101D80005549C8610846C06900F00200009000BFD4
:101D900000BF5248143054490860102048600021A8
:101DA000514881608021C160490001618900416121
:101DB000002181614FF44051C161FEF7E5FE08B199
:101DC000FEF7CDFB00BF484921630846446200BFCF
:101DD00000BF206244627DE04449206888422BD1E4
:101DE00000BF3D48C06940F004003B49C861084657
:101DF000C06900F00400009000BF00BF37486430A5
:101E00003B490860102048600021394881608021EA
:101E1000C1604900016189004161002181614FF485
:101E20004051C161FEF7B0FE08B1FEF798FB00BF5C
:101E30002F48206244624DE02E49206888422FD10D
:101E400000BF2548C06940F008002349C861084622
:101E5000C06900F00800009000BF00BF2648274975
:101E60000860102048600021244881608021C16002
:101E70004900016189004161002181614FF44051B5
:101E8000C161FEF781FE08B1FEF769FB00BF1B4987
:101E9000E1620846446200BF00BF2062446219E06C
:101EA00017492068884215D100BF0B48C06940F02F
:101EB00010000949C8610846C06900F01000009090
:101EC00000BF00BF00220E213620FFF735FA362072
:101ED000FFF722FA38BD0000001002401C0002404B
:101EE000D8050020000400401C0600200008004027
:101EF00060060020000C00401C040240A4060020E4
:101F000000100040014691F83D00012801D0012059
:101F10007047022081F83D00164B0868984213D0A4
:101F2000154B086898420FD00868B0F1804F0BD06D
:101F3000124B0868984207D0114B0868984203D0AA
:101F4000104B086898420CD10868806800F00702BE
:101F5000062A0CD00868006840F001000B68186081
:101F600005E00868006840F001000B681860002078
:101F7000CEE70000002C0140003401400004004086
:101F800000080040000C0040014691F83D00012887
:101F900001D001207047022081F83D000868C06828
:101FA00040F001000B68D860164B0868984213D0C7
:101FB000154B086898420FD00868B0F1804F0BD0DD
:101FC000124B0868984207D0114B0868984203D01A
:101FD000104B086898420CD10868806800F007022E
:101FE000062A0CD00868006840F001000B681860F1
:101FF00005E00868006840F001000B6818600020E8
:10200000C8E70000002C01400034014000040040FB
:1020100000080040000C00402DE9F04104460D4648
:10202000002700BF94F83C00012802D10220BDE83F
:10203000F081012084F83C0000BF022084F83D00BC
:102040002068866826F0770626F47F46206886603A
:102050002868502833D00CDC202850D004DC00281D
:102060004BD0102851D149E0302849D040284CD1DC
:1020700039E060282DD0702807D0B0F5805F03D0FC
:10208000B0F5005F41D10DE041E0D5E902136A6887
:10209000206801F0B6FB2068866846F07706206865
:1020A000866034E0D5E902136A68206801F0A9FB74
:1020B0002068806840F480402168886027E0EA68F2
:1020C0006968206801F0D8FC5021206801F0A4FB69
:1020D0001DE0EA686968206801F0E1FC6021206881
:1020E00001F09AFB13E0EA686968206801F0C4FC1B
:1020F0004021206801F090FB09E000BF00BF00BF55
:102100002968206801F088FB01E0012700BF00BFBB
:10211000012084F83D0000BF002084F83C0000BF8F
:10212000384684E770477047704710B5044620680A
:102130000069C0F34000F0B12068C068C0F34000FF
:10214000C8B16FF002002168086101202077206883
:10215000806900F0030020B12046D4F89010884731
:1021600007E02046D4F8981088472046D4F89C1001
:1021700088470020207720680069C0F38000F0B114
:102180002068C068C0F38000C8B16FF00400216807
:102190000861022020772068806900F4407020B137
:1021A0002046D4F89010884707E02046D4F89810CD
:1021B00088472046D4F89C10884700202077206864
:1021C0000069C0F3C000F0B12068C068C0F3C0006F
:1021D000C8B16FF0080021680861042020772068EA
:1021E000C06900F0030020B12046D4F89010884761
:1021F00007E02046D4F8981088472046D4F89C1071
:1022000088470020207720680069C0F30010F0B1F3
:102210002068C068C0F30010C8B16FF010002168DA
:102220000861082020772068C06900F4407020B160
:102230002046D4F89010884707E02046D4F898103C
:1022400088472046D4F89C108847002020772068D3
:10225000006900F0010060B12068C06800F0010072
:1022600038B16FF00100216808612046D4F8801071
:10227000884720680069C0F3C01060B12068C0685A
:10228000C0F3C01038B16FF08000216808612046AB
:10229000D4F8B010884720680069C0F3801060B19E
:1022A0002068C068C0F3801038B16FF0400021682A
:1022B00008612046D4F88810884720680069C0F378
:1022C000401060B12068C068C0F3401038B16FF0B2
:1022D0002000216808612046D4F8A810884710BD66
:1022E00010B586B00446002002900390049005903B
:1022F0002068B0F1804F21D100BF3A48806940F09A
:102300000800384988610846806900F0080001909B
:1023100000BF00BF0820029002200390059002A990
:102320003148FEF7B1FD00BF3049486820F44070E5
:1023300040F0E06040F48070486051E02C49206833
:10234000884217D100BF2748806940F0080025491E
:1023500088610846806900F00800019000BF00BF56
:102360000120029002200390059002A91E48FEF76A
:102370008BFD35E01F492068884217D100BF1948FE
:10238000806940F00800174988610846806900F0BC
:102390000800019000BF00BF40200290022003907F
:1023A000059002A91048FEF76FFD19E01249206858
:1023B000884215D100BF0B48806940F004000949EC
:1023C00088610846806900F00400019000BF00BFEA
:1023D000022002900390059002A90848FEF754FDE0
:1023E00006B010BD00100240000C0140000001408A
:1023F0000004004000080040000C004000080140BC
:102400002DE9F04104460E461546002700BF94F81A
:102410003C00012802D10220BDE8F081012084F8AF
:102420003C0000BF35B1042D09D0082D0CD00C2D77
:1024300014D10EE03146206801F0F8F910E0314681
:10244000206801F02BFA0BE03146206801F064FAB5
:1024500006E03146206801F09BFA01E0012700BF49
:1024600000BF00BF002084F83C0000BF3846D3E71F
:102470007047000070B504460D4615B994F83E004B
:102480000BE0042D02D13F20005D06E0082D02D1B3
:102490004020005D01E04120005D012801D00120C5
:1024A00070BD1DB9022084F83E000EE0042D03D15A
:1024B00002213F20015508E0082D03D102214020D0
:1024C000015502E0022141200155012229462068E0
:1024D00001F086F91F492068884203D01E49206810
:1024E000884201D1012000E0002028B12068406C22
:1024F00040F400402168486416492068884213D09F
:102500001549206888420FD02068B0F1804F0BD069
:1025100012492068884207D011492068884203D0B8
:102520001049206888420CD12068806800F00706B6
:10253000062E0CD02068006840F001002168086079
:1025400005E02068006840F0010021680860002074
:10255000A6E70000002C01400034014000040040C8
:1025600000080040000C004030B504460D46002233
:102570002946206801F034F923492068884203D0B5
:1025800022492068884201D1012000E0002090B15A
:1025900000BF2068006A41F21111084050B920685C
:1025A000006A8910084028B92068406C20F4004077
:1025B0002168486400BF00BF2068006A41F2111121
:1025C000084050B92068006A8910084028B920687E
:1025D000006820F001002168086000BF1DB90120DB
:1025E00084F83E000EE0042D03D101213F20015567
:1025F00008E0082D03D101214020015502E001210E
:1026000041200155002030BD002C01400034014024
:102610002DE9F04104460D461646002700BF94F808
:102620003C00012802D10220BDE8F081012084F89D
:102630003C0000BF36B1042E1BD0082E31D00C2E2A
:102640005ED145E02946206801F0F0F820688069F5
:1026500040F00800216888612068806920F004004B
:102660002168886120688069296908432168886138
:1026700048E02946206801F011F92068806940F49B
:102680000060216888612068806920F4806021688A
:10269000886120688069296940EA01202168886191
:1026A00030E02946206801F037F92068C06940F021
:1026B00008002168C8612068C06920F00400216812
:1026C000C8612068C069296908432168C86119E0A8
:1026D0002946206801F05CF92068C06940F4006078
:1026E0002168C8612068C06920F480602168C861E1
:1026F0002068C069296940EA01202168C86101E0B9
:10270000012700BF00BF00BF002084F83C0000BFCD
:10271000384689E710B504460CB9012010BD94F87D
:102720003D0060B9002084F83C00204601F06CF9BF
:10273000206E08B9144820662046216E8847022082
:1027400084F83D00211D206800F0FCFF012084F882
:10275000460000BF84F83E0001213F200155402083
:1027600001554120015500BF00BF012084F84200FF
:1027700043200155442001554520015500BF01204B
:1027800084F83D000020C9E78D2700087047704796
:1027900070477047704710B5034600240AB90120FE
:1027A00010BD93F83D00012857D11B2952D2DFE814
:1027B00001F00E10121416181A1C1E2022242628AE
:1027C0002A2D303336393C3F4245484B4E009A64FF
:1027D00042E0DA6440E01A653EE05A653CE09A6502
:1027E0003AE0DA6538E01A6636E05A6634E09A660E
:1027F00032E0DA6630E01A672EE05A672CE09A671A
:102800002AE0DA6728E0C3F8802025E0C3F88420B6
:1028100022E0C3F888201FE0C3F88C201CE0C3F836
:10282000902019E0C3F8942016E0C3F8982013E034
:10283000C3F89C2010E0C3F8A0200DE0C3F8A4204A
:102840000AE0C3F8A82007E0C3F8AC2004E0C3F80E
:10285000B02001E0012400BF2DE093F83D0048BB0B
:102860000E2924D2DFE801F007090B0D0F11131513
:1028700017191B1D1F219A641BE0DA6419E01A6501
:1028800017E05A6515E09A6513E0DA6511E01A66FB
:102890000FE05A660DE09A660BE0DA6609E01A6707
:1028A00007E05A6705E09A6703E0DA6701E0012470
:1028B00000BF00E00124204672E770477047F8B57A
:1028C00004460E46174694F8420020282ED106B141
:1028D0000FB90120F8BD01202063002060633A4653
:1028E0003146204601F04AFB0546EDB9206B012830
:1028F00019D100BF00200090206800680090206877
:102900004068009000BF00BF00BF00BF21680C31CD
:1029100051E8001F41F0100021680C3141E800022D
:10292000002AF3D100E001252846D3E70220D1E7B1
:10293000704770477047704770B50546284600F0ED
:10294000C9FB0446044850F8240020B1024951F85C
:10295000240000F0DBFB70BD5C7C00202DE9F84F0B
:102960000446206805682068C668206847694FF0FB
:102970000009CA4605F00F09B9F1000F0AD105F0A8
:10298000200038B106F0200020B1204601F0FAF90D
:10299000BDE8F88FB9F1000F7BD007F0010018B93E
:1029A00006F49070002874D005F0010030B106F4F0
:1029B000807018B1606C40F00100606405F00400A4
:1029C00030B107F0010018B1606C40F002006064A3
:1029D00005F0020030B107F0010018B1606C40F062
:1029E0000400606405F0080048B106F0200010B94A
:1029F00007F0010018B1606C40F008006064606C82
:102A0000002845D005F0200028B106F0200010B1C4
:102A1000204601F0B7F920684069C0F3801A606C65
:102A200000F0080010B9BAF1000F2CD0204601F0D8
:102A30002AF92068406900F0400000B300BF00BFE1
:102A40002168143151E8001F21F040002168143141
:102A500041E80002002AF3D100BFE06B50B1774893
:102A6000E16B4863E06BFDF7A9FD88B1E06B416B5A
:102A700088470DE02046A16D884709E009E020461F
:102A8000A16D884704E02046A16D8847002060645E
:102A90007EE7206B012877D105F01000002873D065
:102AA00006F010000028FAD000BF00200090206837
:102AB0000068009020684068009000BF00BF206858
:102AC000406900F0400000285FD0E06B006840687B
:102AD0001FFA80F8B8F1000F55D0A08D404552DDA7
:102AE000A4F82E80E06B8069202843D000BF00BF8F
:102AF00021680C3151E8001F21F4807021680C31ED
:102B000041E80002002AF3D100BF00BF00BF2168E6
:102B1000143151E8001F21F001002168143141E80F
:102B20000002002AF3D100BF00BF00BF21681431AA
:102B300051E8001F21F040002168143141E80002F3
:102B4000002AF3D100BF202084F842000020206337
:102B500000BF00BF21680C3151E8001F21F01000B8
:102B600021680C3141E80002002AF3D100BFE06B7C
:102B7000FDF7F8FC02206063A08DE38DC01A81B2DE
:102B80002046E26E904703E742E0A08DE18D401AB7
:102B90001FFA80F8E08DD0B3B8F1000F37D000BF36
:102BA00000BF21680C3151E8001F21F490702168AA
:102BB0000C3141E80002002AF3D100BF00BF00BF82
:102BC0002168143151E8001F21F0010021681431FF
:102BD00041E80002002AF3D100BF202084F842001F
:102BE0000020206300BF00BF21680C3151E8001FA6
:102BF00021F0100021680C3141E80002002AF3D1D5
:102C000000BF0220606341462046E26E9047BFE667
:102C100005F0800030B106F0800018B1204601F0C8
:102C200011FAB5E605F0400030B106F0400018B1E9
:102C3000204601F05EF8ABE600BFA9E6E53A0008E1
:102C400010B504460CB9012010BDA06900B100E028
:102C500000BF94F8410060B9002084F8400020468D
:102C600001F06AF8206F08B9164820672046216FE6
:102C70008847242084F841002068C06820F4005070
:102C80002168C860204601F0FBF82068006920F444
:102C90009040216808612068406920F02A0021687E
:102CA00048612068C06840F400502168C860002076
:102CB0006064202084F8410084F8420000206063B2
:102CC00000BFC1E7452D000810B50446184920682B
:102CD000884214D11748C06920F400201549C86102
:102CE0004FF440611448FEF725F8E06BFDF73AFD1C
:102CF000A06BFDF737FD3420FEF7ECFA17E00F4923
:102D00002068884213D10B48806920F4804009492B
:102D100088614FF4C0610A48FEF70CF8E06BFDF7DC
:102D200021FDA06BFDF71EFD2520FEF7D3FA10BD97
:102D3000004C0040001002400010014000380140EB
:102D40000008014010B586B00446002002900390B0
:102D5000049005907049206888426BD100BF6F488D
:102D6000C06940F400206D49C8610846C06900F49C
:102D70000020019000BF00BF00BF0846806940F0FE
:102D8000100088610846806900F01000019000BFC3
:102D900000BF08150290022003900320059002A9AD
:102DA0005F48FEF771F84FF4006002900020039036
:102DB0000120049002A95A48FEF766F859485A497A
:102DC0000860002048600021574881608021C16070
:102DD0000021016141618161C161FDF7D5FE08B14A
:102DE000FDF7BDFB00BF5048E063446200BF4D48A3
:102DF00028304E4908601020486000214B4881600F
:102E00008021C1600021016141618161C161FDF7E3
:102E1000BBFE08B1FDF7A3FB00BF4448A0634462BA
:102E200000BF002201213420FEF786FA3420FEF78D
:102E300073FA6EE03E49206888426AD100BF374885
:102E4000806940F48040354988610846806900F413
:102E50008040019000BF00BF00BF0846806940F07D
:102E6000040088610846806900F00400019000BFFA
:102E700000BF48150290022003900320059002A98C
:102E80002C48FEF701F84FF4806002900020039078
:102E90000120049002A92748FDF7F6FF264827499C
:102EA0000860002048600021244881608021C160C2
:102EB0000021016141618161C161FDF765FE08B1D9
:102EC000FDF74DFB00BF1D48E063446200BF1A4898
:102ED00014381B49086010204860002118488160A0
:102EE0008021C1600021016141618161C161FDF703
:102EF0004BFE08B1FDF733FB00BF1148A0634462ED
:102F000000BF002201212520FEF716FA2520FEF73A
:102F100003FA06B010BD0000004C00400010024053
:102F20000010014030040240D80700201C08002097
:102F300000380140000801405800024060080020AD
:102F4000A40800200246002329B9506C40F020005C
:102F500050640120704700BF92F84000012801D161
:102F60000220F7E7012082F8400000BF92F84100FC
:102F7000202801D1D16604E0506C40F0200050645C
:102F8000012300BF002082F8400000BF1846E1E79F
:102F900070477047F7B50446154694F8410020285D
:102FA00036D1019800B10DB90120FEBD0198206213
:102FB000A584E58400206064212084F84100154840
:102FC000A16B88621448A16BC8621448A16B0863A6
:102FD0000020A16B486301AE23681A1D31682B469F
:102FE000A06BFDF744FE6FF040002168086000BF51
:102FF00000BF2168143151E8001F41F080002168B2
:10300000143141E80002002AF3D100BF0020CCE7D0
:103010000220CAE7213C0008793C0008F93A000880
:103020007047704700BFFEE70146194A08689042A2
:1030300001D1012070470868B0F1804F01D1022012
:10304000F8E7144A0868904201D10320F2E7124AD7
:103050000868904201D10420ECE7104A08689042C9
:1030600001D10520E6E70E4A0868904201D106200A
:10307000E0E70C4A0868904201D10720DAE70A4AE3
:103080000868904201D10820D4E70020D2E7000070
:10309000002C01400004004000080040000C0040EB
:1030A00000100040001400400034014070B5054697
:1030B0000E46284600F00EF80446054850F8240055
:1030C00028B1034951F82400314600F0F3FF70BDE8
:1030D0005C7C002001460A4A0868904201D1012028
:1030E0007047084A0868904201D10220F8E7064A72
:1030F0000868904201D10320F2E70020F0E70000C9
:1031000000380140004400400048004010B504462B
:10311000206800B910BD00202168486400BF216804
:1031200081F8400000BF2068FFF7CEFD2068FFF760
:1031300009FE04492068FFF705FF204600F0A7FAC2
:1031400000BFE7E7AD30000808B500BF2D48406973
:1031500040F001002B4948610846406900F0010039
:10316000009000BF00BF00BF0846406940F0020069
:1031700048610846406900F00200009000BF00BFAF
:10318000002211460C20FEF7D7F80C20FEF7C4F8F9
:10319000002211460D20FEF7CFF80D20FEF7BCF8F7
:1031A000002202210E20FEF7C7F80E20FEF7B4F829
:1031B000002202210F20FEF7BFF80F20FEF7ACF827
:1031C000002211461120FEF7B7F81120FEF7A4F8EF
:1031D000002211463920FEF7AFF83920FEF79CF89F
:1031E000002202213A20FEF7A7F83A20FEF794F8D1
:1031F000002211463B20FEF79FF83B20FEF78CF89B
:1032000008BD00000010024000B585B0002001900C
:1032100002900390049000BF3A48806940F020007B
:10322000384988610846806900F02000009000BF9E
:1032300000BF00BF0846806940F00400886108466E
:10324000806900F00400009000BF00BF00BF084686
:10325000806940F0100088610846806900F0100025
:10326000009000BF00BF00BF0846806940F0080022
:1032700088610846806900F00800009000BF00BF28
:10328000002240F63C012048FDF7A8FF0122C021A2
:103290001D48FDF7A3FF012230211C48FDF79EFFCA
:1032A000012202211A48FDF799FF00220421184843
:1032B000FDF794FF40F6FC000190012002900020F1
:1032C00003900220049001A90F48FDF7DDFD302096
:1032D000019001200290002003900220049001A997
:1032E0000A48FDF7D1FD0620019001200290002040
:1032F00003900220049001A90548FDF7C5FD05B023
:1033000000BD000000100240000801400010014014
:10331000000C014000B58DB0002009900A900B9080
:103320000C90079008901C216846FDF730F84FF08C
:1033300080401E4908604720486000211B4881608A
:10334000C160016180218161FEF74CFC08B1FDF78D
:1033500006F94FF48050099009A91448FEF75CFE65
:1033600008B1FDF7FCF81148FFF7D4F908B1FDF7F3
:10337000F6F800200790089007A90C48FEF7A2FB7A
:1033800008B1FDF7ECF86020009000200190029059
:103390000490042269460548FFF73AF908B1FDF7A1
:1033A000DEF80248FEF79CFF0DB000BD540200207D
:1033B00000B58DB0002009900A900B900C900790FA
:1033C00008901C216846FCF7E2FF2048204908606D
:1033D0000020486000211E4881604FF6FF71C160E7
:1033E0000021016180218161FEF7FCFB08B1FDF73E
:1033F000B6F84FF48050099009A91548FEF70CFE65
:1034000008B1FDF7ACF81248FFF784F908B1FDF7F1
:10341000A6F800200790089007A90D48FEF752FB78
:1034200008B1FDF79CF86020009000200190029008
:103430000490082269460648FFF7EAF808B1FDF74C
:103440008EF80348FEF74CFF0DB000BD00040040AD
:103450000803002000B58DB0002009900A900B9061
:103460000C90079008901C216846FCF790FF2048BC
:10347000204908600020486000211E4881604FF606
:10348000FF71C160002101618161FEF7ABFB08B1F2
:10349000FDF765F84FF48050099009A91548FEF72B
:1034A000BBFD08B1FDF75BF81248FFF733F908B12F
:1034B000FDF755F800200790089007A90D48FEF782
:1034C00001FB08B1FDF74BF860200090002001904F
:1034D00002900490002269460648FFF799F808B167
:1034E000FDF73DF80348FEF7FBFE0DB000BD000000
:1034F00000080040BC03002000B58DB000200990FA
:103500000A900B900C90079008901C216846FCF7DD
:103510003EFF2048204908600020486000211E48E6
:1035200081604FF6FF71C160002101618161FEF78A
:1035300059FB08B1FDF713F84FF48050099009A921
:103540001548FEF769FD08B1FDF709F81248FFF7C5
:10355000E1F808B1FDF703F800200790089007A9EB
:103560000D48FEF7AFFA08B1FCF7F9FF60200090B4
:103570000020019002900490042269460648FFF75B
:1035800047F808B1FCF7EBFF0348FEF7A9FE0DB0C2
:1035900000BD0000000C0040700400201CB500209D
:1035A000009001900E480F490860472048600021B4
:1035B0000C4881604FF47A71C16000218161FEF78F
:1035C00011FB08B1FCF7CBFF002000900190694689
:1035D0000448FEF777FA08B1FCF7C1FF1CBD0000F4
:1035E000001000402405002010B50B480B4908606E
:1035F0004FF4E1304860002108488160C1600161FA
:103600000C21416100218161C161FFF719FB08B103
:10361000FCF7A5FF10BD0000004C0040E8060020AC
:1036200010B50B480B4908604FF4E13048600021A9
:1036300008488160C16001610C2141610021816104
:10364000C161FFF7FDFA08B1FCF789FF10BD00006A
:10365000003801406007002000BFFEE700BFFEE722
:103660007047000008B508490968C9084FF47A7224
:10367000B1FBF2F14143009100BF00BF00994A1E27
:1036800000920029F9D108BD0C000020704710B548
:103690000446237A04F1090202EBC3118022206858
:1036A000FFF70DF984F812012068C06B006800680C
:1036B00020F004002168C96B0968086010BD10B5CE
:1036C000FDF798FD10BD00B58FB0282105A8FCF7C7
:1036D0005EFE14216846FCF75AFE092005904FF45F
:1036E0008030069000200790012009900B90022066
:1036F0000C90C1030D914FF4E0110E9105A8FDF758
:1037000091FF08B1FCF72BFF0F20009002200190E1
:10371000002002904FF4806003900020049002216A
:103720006846FDF75BFE08B1FCF719FF0FB000BD5E
:103730007047000010B50248FEF7F7FC10BD00000E
:103740002405002010B50268204B98420ED0204B73
:1037500098420BD0B0F1804F08D01E4B984205D054
:103760001D4B984202D01D4B984203D122F07002AB
:103770004B681A43154B98420ED0154B98420BD00C
:10378000B0F1804F08D0134B984205D0124B9842AD
:1037900002D0124B984203D122F44072CB681A43F4
:1037A00022F080034C6943EA040202608B68C36222
:1037B0000B688362054B984202D0054B984201D1B9
:1037C0000B6903630123436110BD0000002C01401D
:1037D000003401400004004000080040000C00409C
:1037E00030B501F01F05012404FA05F3046A9C4377
:1037F0000462046A01F01F0502FA05F52C43046215
:1038000030BD30B50C46816821F47F4142EA032582
:1038100025432943816030BD0A46816821F070014B
:1038200042F00703194381607047000030B5026A17
:10383000056A25F0010505624368846924F0700477
:1038400024F003040D682C4322F002028D682A4301
:10385000104DA84200D103E00F4DA84206D100BF91
:1038600022F00802CD682A4322F00402094DA84242
:1038700002D0094DA84207D123F4807323F40073CA
:103880004D692B438D692B43436084614D684563CB
:10389000026230BD002C01400034014030B5026AA4
:1038A000056A25F0100505624368846924F4E04444
:1038B00024F440740D6844EA052422F020028D6847
:1038C00042EA0512124DA84200D103E0114DA84270
:1038D00007D100BF22F08002CD6842EA051222F033
:1038E00040020B4DA84202D00A4DA84209D123F450
:1038F000806323F400634D6943EA85038D6943EADD
:103900008503436084614D688563026230BD0000B9
:10391000002C01400034014030B5026A056A25F4EC
:10392000807505624368C46924F0700424F00304C0
:103930000D682C4322F400728D6842EA0522124D74
:10394000A84200D103E0114DA84207D100BF22F4E4
:103950000062CD6842EA052222F480620A4DA84244
:1039600002D00A4DA84209D123F4805323F4005316
:103970004D6943EA05138D6943EA05134360C46149
:103980004D68C563026230BD002C01400034014027
:1039900030B5036A056A25F4805505624468C2693A
:1039A00022F4E04222F440720D6842EA052223F438
:1039B00000538D6843EA0533084DA84202D0084DF4
:1039C000A84204D124F480444D6944EA851444603B
:1039D000C2614D680564036230BD0000002C0140E7
:1039E0000034014070B505462846FFF71DFB04462C
:1039F000044850F8240020B1024951F8240000F096
:103A000062F870BD207C00200E4940F8801F0E49EE
:103A100041600E4981600E49C1600E4901610E4945
:103A200041610E4981610E49C1610E4901620E4931
:103A300041620E4981620E49C1620E4901638038BC
:103A4000704700009327000895270008BB2800084E
:103A5000BD2800082721000829210008712400083A
:103A60008F2700089127000825210008BF1A0008A9
:103A7000C11A0008BD1A000830B50B461446026A88
:103A8000056A25F001050562816921F0F00141EA2E
:103A9000041122F00A021A438161026230BD30B57E
:103AA0000B461446026A056A25F010050562816915
:103AB00021F4704141EA043122F0A00242EA0312EB
:103AC0008161026230BD10B50446606808B160686B
:103AD000804710BD10B50248FEF740FF10BD000042
:103AE000E806002070B505466C6A0020E085E08499
:103AF0002046A16D884770BD70B5054600266C6AEA
:103B000020684069C0F3C01694F84100212805D10F
:103B100026B10020E084204600F0FBF820684069D0
:103B2000C0F3801694F84200222805D126B1002067
:103B3000E085204600F0A7F8606C40F0100060645B
:103B40002046A16D884770BD70B505466C6A28682F
:103B5000006800F02000002842D1E08500BF00BFCF
:103B600021680C3151E8001F21F4807021680C316C
:103B700041E80002002AF3D100BF00BF00BF216866
:103B8000143151E8001F21F001002168143141E88F
:103B90000002002AF3D100BF00BF00BF216814312A
:103BA00051E8001F21F040002168143141E8000273
:103BB000002AF3D100BF202084F84200206B0128A6
:103BC0000ED100BF00BF21680C3151E8001F21F069
:103BD000100021680C3141E80002002AF3D100BF37
:103BE00000206063206B012804D1A18D2046E26E85
:103BF000904702E02046616D884770BD70B505466C
:103C00006C6A01206063206B012805D1A08D4108FA
:103C10002046E26E904702E02046216D884770BD45
:103C200070B505466C6A2868006800F02000F8B995
:103C30000020E08400BF00BF2168143151E8001F5C
:103C400021F080002168143141E80002002AF3D1FC
:103C500000BF00BF00BF21680C3151E8001F41F0D8
:103C6000400021680C3141E80002002AF3D102E053
:103C70002046E16C884770BD70B50446656A2846E9
:103C8000A96C884770BD00BF00BF02680C3252E8C3
:103C9000002F22F4907102680C3242E80013002BCE
:103CA000F3D100BF00BF00BF0268143252E8002FFA
:103CB00022F001010268143242E80013002BF3D114
:103CC00000BF016B01290ED100BF00BF02680C329A
:103CD00052E8002F22F0100102680C3242E8001373
:103CE000002BF3D100BF202180F842100021016396
:103CF000704710B504462068C06820F04000216875
:103D0000C860202084F841002046E16C88470020EC
:103D100010BD00BF00BF02680C3252E8002F22F035
:103D2000C00102680C3242E80013002BF3D100BF3F
:103D3000202180F841107047094981640949C16414
:103D40000949016509494165094981650949C16513
:103D500009490166094941660949C1667047000081
:103D60002330000821300008932F0008912F00080D
:103D700039290008332900083729000835290008A7
:103D800031290008F8B5044694F84200222875D17C
:103D9000A068B0F5805F0CD1206950B90025A66AF3
:103DA00020684068C0F308003080A06A801CA062D0
:103DB00015E0A56A0026A068B0F5805F03D0A06872
:103DC00028B9206918B920684068287004E0206884
:103DD000406800F07F002870A06A401CA062E08D5F
:103DE000401E80B2E085002846D12068C06820F0DF
:103DF00020002168C8602068C06820F480702168B5
:103E0000C8602068406920F00100216848612020D6
:103E100084F8420000206063206B012826D1002036
:103E2000206300BF00BF21680C3151E8001F21F062
:103E3000100021680C3141E80002002AF3D100BFD4
:103E40002068006800F0100010280AD100BF002090
:103E5000009020680068009020684068009000BFD3
:103E600000BFA18D2046E26E904702E02046616DC2
:103E700088470020F8BD01E00020FBE70220F9E7B9
:103E800070B504462168096921F44051E268114384
:103E9000226811612269A1681143626941EA020541
:103EA0002168C96841F20C62914329432268D160BC
:103EB0002168496921F44071A26911432268516166
:103EC0002D4A2168914202D1FDF764FB01E0FDF724
:103ED00051FB00EBC00101EB001162689200B1FBE5
:103EE000F2F100EBC00202EB001263689B00B2FB30
:103EF000F3F26423B2FBF3F202EBC20303EB021210
:103F0000A1EB8201322202EB01116422B1FBF2F13A
:103F100001F0F00100EBC00202EB001263689B00AD
:103F2000B2FBF3F26423B2FBF3F201EB021200EBFB
:103F3000C00101EB001163689B00B1FBF3F100EBE2
:103F4000C00303EB00136668B600B3FBF6F3642608
:103F5000B3FBF6F303EBC30606EB0313A1EB8301FC
:103F6000322303EB01116423B1FBF3F101F00F01E4
:103F700011442268916070BD0038014077B581B06E
:103F8000044615460298A062A585002060642220A0
:103F900084F842002848E16B88622848E16BC862D7
:103FA0002748E16B08630020E16B486302AE32688A
:103FB0002368191D2B46E06BFCF759FE00BF00205B
:103FC000009020680068009020684068009000BF62
:103FD00000BF206970B100BF00BF21680C3151E8FB
:103FE000001F41F4807021680C3141E80002002A72
:103FF000F3D100BF00BF00BF2168143151E8001F9A
:1040000041F001002168143141E80002002AF3D197
:1040100000BF00BF00BF2168143151E8001F41F00C
:1040200040002168143141E80002002AF3D100BFAA
:10403000002004B070BD0000493B0008FD3B0008B3
:10404000F93A0008014691F84100212828D18868F2
:10405000B0F5805F0BD1086948B90A6A1088C0F3CF
:1040600008000B685860086A801C086205E00B6A4B
:10407000581C086218780B685860C88C401E80B2C3
:10408000C88458B90868C06820F080000B68D86000
:104090000868C06840F040000B68D8600020704796
:1040A0000220FCE710B50248FEF758FC10BD0000E6
:1040B0006007002070B504460D46207A08B901203B
:1040C00000E000202072A4F81051606858B1E9B2F5
:1040D000237A0BB9012600E0002604F1090303EB63
:1040E000C610626890472046FFF7D1FAFDF77CF8CA
:1040F000C4F80C0170BD00BFFEE700000248006874
:10410000C0F30220704700000CED00E010B500285D
:1041100004DB0A07130E054A135406E00A07140EBF
:10412000034A00F00F031B1FD45410BD00E400E04D
:1041300018ED00E02DE9F04781460C4615461F4674
:104140000CB105B117B90120BDE8F0872078F72838
:1041500002DC6078042801D00120F5E7A088FD2862
:1041600001DD0420F0E7002622783146761C6A54EF
:1041700062783146761C6A54A088002807DDA28840
:10418000A819A11DFCF762F8A088304486B2314618
:104190002846FCF771F980463046711C8EB205F84E
:1041A00000804FEA18223046711C8EB22A543E809D
:1041B0000020C9E770B588B005A800F0FBF89DF8AD
:1041C000140088B90120264908700020487000BFFB
:1041D00008E00DF1150101EB40010988214A22F8A0
:1041E0001010401C0428F4DB9DF81400012835D180
:1041F00000201B4908709DF81D0001282ED10024C5
:104200002AE0214601A800F0CBF80025002634B1B1
:10421000012C07D0022C08D0032C0CD108E0124D41
:10422000402608E0104D802605E0104D102602E0E3
:104230000E4D202600BF00BF9DF80600012805D1C5
:10424000002231462846FCF7C9FF04E0012231462E
:104250002846FCF7C3FF641C042CD2DB08B070BDF9
:10426000200000201800002000080140001001403C
:1042700010B500F085F9054A0549064800F0A4F894
:104280004FF47A7004490880488010BD9D420008B0
:1042900024050020240000201800002010B5FFF79E
:1042A00089FF1C48007801282AD11A48407830B18B
:1042B00001280AD002280FD003281FD112E001F0F4
:1042C000C9FB01201349487019E001F00FFB10B938
:1042D00002201049487012E001F000FC03200D4953
:1042E00048700CE0002406E00B4A32F81410E0B2EB
:1042F00000F072F9641C042CF6DB00E000BF08E05B
:10430000002404E0E0B2002100F066F9641C042CF3
:10431000F8DB10BD20000020180000202DE9F0413E
:1043200014461D4606460F4601F015FD00F070408C
:10433000B0F1005F0FD0201C18BF0120284320F0EF
:104340000040C0F17F6000F1E040C00F02BF204696
:104350002946BDE8F08130463946BDE8F0812DE9B7
:10436000F04114461D4606460F4601F0F4FC00F0ED
:104370007040B0F1004F0FD0201C18BF012028431F
:1043800020F00040C0F17F6000F1E040C00F02BFAC
:1043900020462946BDE8F08130463946BDE8F08127
:1043A00030B5034A02EB01153CCD80E83C0030BD3E
:1043B000F408002003490A6802604A6842600989DB
:1043C00001817047E808002070B504460D46164686
:1043D000256066602846FEF727FE064941F8204022
:1043E000054A0E212846FEF7D6F92846FDF7CCFDF2
:1043F00070BD0000207C0020E5390008FCF706FFB6
:10440000FFF761F9FEF700FFFEF79EFEFEF782FF61
:10441000FEF7CEFFFFF71EF8FFF76EF8FFF7BEF8C6
:10442000FFF7E2F8FFF7FCF8FFF722FF02E00120B8
:10443000FCF76CFCFBE7014609B90020704791F8D6
:104440002001012800D1F9E70020F7E770B5044604
:104450000CB9012070BDFCF7C7FE054694F8200199
:10446000012810D1D4F82401281AD4F81C1188424C
:1044700009D9032084F82001D4F83803401CC4F87B
:1044800038030220E6E70020E4E710B5044674B1E3
:10449000002084F820014FF4827104F59470FBF73A
:1044A00054FF4FF4827104F50B70FBF74EFF10BD03
:1044B0002DE9F047ADF5027D04460D4617469846B6
:1044C0008A9E5CB1042F09D145B1F72D06DC2EB1CF
:1044D0007D2E03DC2046FFF7AEFF20B101200DF555
:1044E000027DBDE8F0874FF4827141A8FBF74FFFD2
:1044F0008DF804518DF805710420ADF808014FEADC
:1045000018208DF80A018DF80B81310A41A801723B
:1045100046726B4601AA41A92046FFF70BFE814671
:10452000B9F1000F01D04846D9E7BDF8002001A934
:10453000D4F81401FEF72EFD8246BAF1000F09D01F
:10454000D4F83803401CC4F83803042084F8200150
:104550000520C4E74FF4827241A904F59470FBF77B
:1045600075FE012084F82001FCF73EFEC4F824010A
:10457000D4F83003401CC4F830030020AFE700003B
:1045800008B504200F4B02460F490090002000F0B0
:10459000EDFA08200B4B02460C490090012000F078
:1045A000E5FA1020074B002209490090022000F094
:1045B000DDFA2020034B042206490090032000F07E
:1045C000D5FA08BD0008014054020020080300206D
:1045D000BC0300207004002070B505460C46002C7A
:1045E00001DA002005E041F27070844200DD00E055
:1045F000204604462146284600F0CAFE21462846A9
:1046000000F06CFE70BD000010B50446042C00DB09
:1046100010BD40F2E36262430F4B03EB820241F6AE
:1046200078331A44928991B240F2E36262430A4BB2
:1046300003EB820241F678331A4490680022FCF7BB
:10464000CDFD002140F2E3606043034A02EB8000AD
:10465000816000BFDCE70000B80D002070B50546A2
:1046600001200C490860002410E040F2E360604340
:10467000094901EB800641F678308059006AA8426A
:1046800002D1204600F0FEFF601CC4B2042CECDB1B
:1046900070BD000050000020B80D00202DE9F84F3B
:1046A00006462A480068401C28490860002548E062
:1046B00040F2E3606843264901EB800441F678301C
:1046C0000059006AB0423BD141F68830005DB0BB72
:1046D000022041F688312144487004211D48FCF72E
:1046E00073FD0120607041F6783109590968C96A83
:1046F00088B202F009FA81464FF07E5102F068F864
:10470000074641F6783109590968886A02F0FCF9D0
:104710004FF07E51009002F05BF8834659460E48F8
:1047200002F0C4F882460D4902F0C0F881460C49F7
:1047300002F032FA8046394602F0B8F8A06002E092
:104740006D1C042DB4DB00BFBDE8F88F4C000020C9
:10475000B80D0020000C01404054894C0000C845B1
:10476000000070422DE9F04707468A469046994678
:1047700004214048FCF728FD3F480068401C3E49A2
:104780000860042F05DABAF1000F02D0B8F1000F6B
:1047900002D10120BDE8F08740F2E3607843374959
:1047A00001EB800641F6783085592C6A0CB901205E
:1047B000F0E741F67830304441682846FDF7D4FEF2
:1047C0002046FBF7CFFE2868C06820F48070296877
:1047D000C860B9F1010F01D1202100E00021A161E1
:1047E0000021A1608021E1604900216189006161AF
:1047F00010206060224A00212046FCF70BFA214A73
:1048000002212046FCF706FA002141F67830805953
:10481000006841622046FCF7B7F908B10120B9E70A
:104820002868C06840F480702968C8602846FDF791
:1048300069FB286800F12C02434651462046FCF7EC
:1048400016FA08B10120A5E741F6783030444168F6
:104850002846FDF70FFE08B101209BE741F688309E
:1048600000F80690012041F688313144487000205C
:1048700090E70000000C014048000020B80D002027
:104880009D4600085D46000810B50446042C00DB78
:1048900010BD40F2E36262430B4B03EB820241F630
:1048A00078331A44928991B240F2E3626243064B34
:1048B00003EB820241F678331A4490680122FCF738
:1048C0008DFC00BFE4E70000B80D00202DE9F04F9B
:1048D0008BB08146884640F2E36009FB00F09849BE
:1048E00001EB8004A4F81080404602F00DF98346E5
:1048F000944902F051F90A90608A099041F65831C2
:1049000004F11600FBF721FD8F490A9802F044F9E3
:104910000690099802F0F8F84FF07E51029001F0ED
:1049200057FF01460390894801F0C0FF8849049071
:1049300002F032F90590069901F0B8FF83464FF076
:104940007E5102F0E9FA8246504601F015FFCDE9AA
:10495000020100F00BFFCDE9040101F0CBFB089050
:10496000089802F0B9F88346514602F043FA0790DE
:104970007849079802F010F9834601F0FDFECDE971
:10498000020100F0F3FECDE9040101F0B3FB06469D
:10499000304601F0DEFB02460B46CDE90001002067
:1049A0006D49FFF7DCFC02460B46CDE90201002011
:1049B0006A49FFF7B3FCCDE9040101F09BFB064611
:1049C000002005E0664A089942F82010411CC8B250
:1049D0000728F7DB002512E0002E07DD604850F8BD
:1049E0002500401C5E4941F8250006E05C4850F86F
:1049F0002500401E5A4941F82500681CC5B2301EEA
:104A000001DB014600E04142A942E5DC00201FE055
:104A1000534951F82010642901DA64210BE0504910
:104A200051F82010B1F5803F02DB4FF6FF7102E034
:104A30004B4951F820104A4A42F82010114631F8EB
:104A400020108AB204F1160121F81020411CC8B2CE
:104A50000728DDDB0027BB4655E004F1160131F8DD
:104A60001B0002F051F84FF07E51049001F0B0FEAF
:104A70000690099802F048F84FF07E51019001F03D
:104A8000A7FE01460290314801F010FF2E49039025
:104A900001F00CFF2E49049002F07EF80590069973
:104AA00001F004FF2F4941F82B0004F1160131F801
:104AB0001B0002F029F84FF07E51039001F088FEB0
:104AC0000590099802F020F84FF07E51009001F017
:104AD0007FFE014601901D4801F0E8FE1A49029050
:104AE00001F0E4FE1A49039002F056F8049005998B
:104AF00001F0DCFE3946069001F06AFE07460BF134
:104B0000010000F0FF0BBBF1070FA6DB114938468F
:104B100001F0CCFE0746A7600721A18241F678305C
:104B200000590068C06A10490860A28A012304F194
:104B300016014846FFF716FE0BB0BDE8F08F0000E7
:104B4000B80D0020CDCCCC3D0000C8454054894C68
:104B5000000070420000E04000001C4000001CC04B
:104B6000047C0020E87B0020440000202DE9F04177
:104B700004460D4616461F46DDF8188040F2E360F5
:104B800060432F4901F82040002140F2E360604378
:104B90002B4A02EB8000417040F2E360604302EB7D
:104BA0008000816040F2E361614302EB810101F129
:104BB000160041F65831FBF7C8FB002140F2E360D4
:104BC00060431F4A02EB8000018240F2E3606043D1
:104BD000114601EB800000F58050C0F8785B40F290
:104BE000E360604301EB800041F6783108444660A1
:104BF00040F2E3606043114601EB800041F67831FA
:104C00000844876040F2E3606043114601EB800096
:104C100041F678310844C0F80C80002140F2E3608E
:104C2000604302EB8000C16040F2E360604302EB4E
:104C300080000171204600F025FDBDE8F0810000F4
:104C4000B80D00200FB599B0FE480068401CFD4922
:104C500008601A9801F058FFFB49099001F09CFF89
:104C600018901B9801F050FFF749099001F094FF4C
:104C7000179040F2E36119984843F44901EB800032
:104C8000169016991B9808821698408A15901598C8
:104C900001F03AFF4FF07E51079001F099FD014677
:104CA0000890EB4801F002FE4FF08F41099001F0AF
:104CB000FDFDE8490860E849189801F06DFFE749F3
:104CC000099001F0F3FD1490E349179801F064FF97
:104CD000E249099001F0EAFD1390DDE9130102F0C9
:104CE0001BF912900021179801F0A2FE04D1199827
:104CF000FFF78AFC1DB000BD0021129802F018F8E1
:104D000001D2012001E04FF0FF301190119801F025
:104D1000E3FE09901C9901F03FFF1090129801F0FA
:104D20002BFD21F000414FF06042CD4BCDE9040155
:104D300001F088F8CDE9060100F002FF099000F0CB
:104D4000BEFD0F904FF080400F9901F025FF0E90AF
:104D50000F99084601F020FF4FF07C510890109801
:104D600001F01AFF0790089901F016FF09901499B5
:104D700001F02EFD0D90B74801680D9801F0D8FEA6
:104D800002D2B44800680D9014980C9000200B904B
:104D90000A9041F6583116981630FBF7D6FAAD480E
:104DA00001680C9801F0C4FE7ED2AA480C990068F4
:104DB00002F0B2F84FF08041019001F0EDFE029058
:104DC0001C9901F073FD039001F0D6FCCDE90401BC
:104DD00000F04FFDCDE9060100F0B2FE0990A149B7
:104DE000099801F0A5FE01D29E4800E009980990BB
:104DF000984800680C90159801F086FE4FF07E519F
:104E0000029001F0E5FC01460390914801F04EFD4F
:104E100004900C9901F04AFD4FF07E51059002F08C
:104E20007BF84FF07E51069001F082FE02D24FF0E7
:104E30007E5032E0159801F067FE4FF07E510290EF
:104E400001F0C6FC01460390814801F02FFD04905B
:104E50000C9901F02BFD4FF07E51059002F05CF8AB
:104E60008149069001F064FF01D27F4815E0159852
:104E700001F04AFE4FF07E51039001F0A9FC01467B
:104E80000490734801F012FD05900C9901F00EFD9D
:104E90004FF07E51069002F03FF8079001F0FCFDC4
:104EA00081B208910A9A00E00AE0501C80B2089989
:104EB0000A901698163020F8121009980B9000BF2F
:104EC00072E14FF07E500C9901F0F0FC09900999C5
:104ED0000B9801F07DFC0B900F990B9801F028FEC8
:104EE00013D20B99084601F057FE4FF07C51059004
:104EF000109801F051FE0490059901F04DFE0690C6
:104F0000149901F065FC0C9030E0DDE90F1001F020
:104F100043FE03900F9901F03FFE05904FF0804053
:104F2000109901F039FE00900F9901F035FE0190C3
:104F30000B9901F031FE03904FF03F40109901F0C2
:104F40002BFE00900B9901F027FE01900B9901F0C8
:104F500023FE0290039901F03BFC0490059901F0B7
:104F6000DBFF0690149901F033FC0C90394801687E
:104F70000C9801F0DDFD02D2364800680C901598BF
:104F800001F0C2FD4FF07E51019001F021FC01467D
:104F900002902F4801F08AFC03900C9901F086FCE6
:104FA0004FF07E51049001F0B7FF4FF07E51059015
:104FB00001F0BEFD02D24FF07E5032E0159801F0B4
:104FC000A3FD4FF07E51019001F002FC01460290DA
:104FD0001F4801F06BFC03900C9901F067FC4FF047
:104FE0007E51049001F098FF1F49059001F0A0FE4A
:104FF00001D21D4815E0159801F086FD4FF07E5155
:10500000029001F0E5FB01460390114801F04EFCCF
:1050100004900C9901F04AFC4FF07E51059001F08C
:105020007BFF069001F038FD81B208910A9A501C6E
:1050300080B208990A901698163020F81210089835
:1050400014E0000040000020CDCCCC3DB80D002085
:105050004054894C3C0000200000C84500007042CC
:10506000FF697841BD37863500FF7F4701F04CFD71
:105070004FF07E51049001F0ABFB0690159801F0C3
:1050800043FD4FF07E51019001F0A2FB01460290DA
:105090008C4801F00BFC8C49039001F007FC8B4914
:1050A000049001F079FD0590069901F0FFFB07904F
:1050B0001799079801F030FF039001F05DFB21F094
:1050C00000414FF02042824BCDE9040101F058F835
:1050D00069D20F990B9801F02BFE64D8159801F056
:1050E00013FD4FF07E51009001F072FB01460190DC
:1050F000744801F0DBFB0290139901F0D7FB4FF0ED
:105100007E51039001F008FF4FF07E51049001F0B2
:105110000FFD02D24FF07E5032E0159801F0F4FC02
:105120004FF07E51009001F053FB0146019065481D
:1051300001F0BCFB0290139901F0B8FB4FF07E51D7
:10514000039001F0E9FE6349049001F0F1FD01D202
:10515000604815E0159801F0D7FC4FF07E510190A2
:1051600001F036FB01460290564801F09FFB039088
:10517000139901F09BFB4FF07E51049001F0CCFE9F
:10518000059000F03DFB069001F086FC5249088036
:10519000084602880A99481C80B20A901698163070
:1051A00020F811200BE000BF40F6AC510A9888426D
:1051B00005DA0E990B9801F0BBFCFFF482AE00BF3C
:1051C0004FF080400F9901F0E7FC09900B9901F036
:1051D000AFFC63D8159801F097FC4FF07E51039017
:1051E00001F0F6FA01460490364801F05FFB0590A5
:1051F000139901F05BFB4FF07E51069001F08CFE9D
:105200004FF07E51079001F093FC02D24FF07E5098
:1052100032E0159801F078FC4FF07E51039001F0D8
:10522000D7FA01460490274801F040FB05901399F6
:1052300001F03CFB4FF07E51069001F06DFE2549D8
:10524000079001F075FD01D2224815E0159801F094
:105250005BFC4FF07E51049001F0BAFA01460590D4
:10526000184801F023FB0690139901F01FFB4FF043
:105270007E51079001F050FE089000F0C1FA0990AD
:1052800001F00AFC14490880084602880A99481C63
:1052900080B20A901698163020F81120169800F562
:1052A00080500B99C0F8741B0A99169881820023CC
:1052B000169800F116010A9A1998FFF753FA00BFE1
:1052C00018E500004054894C0000C84500007042B9
:1052D0009999B93F00FF7F47300000202DE9F04742
:1052E00006460F46042E01DBBDE8F08740F2E3607E
:1052F0007043234901EB8004384601F005FC8046E9
:10530000204901F049FC05462079E178884202D025
:10531000304600F0B7F9E0782071E07828B93046DF
:10532000FFF772F90020E060DEE73046FFF7ACFAE5
:105330002946E06801F07CFB10D01349A06801F019
:105340002BFC814601F0A8FB1FFA80F80F4B3A4670
:1053500041463046FFF776FCE5600CE060780128B6
:1053600009D1E078032806D1A078022803D1394674
:105370003046FFF7ABFA6078A07000BFB4E70000DA
:10538000B80D0020CDCCCC3D00002041FF4FC34BD9
:105390002DE9F04F8BB005460E4640F2E3606843BE
:1053A000A84901EB8004304601F0AEFB0746A64950
:1053B00001F0F2FB814641F6783109590968C96A62
:1053C00088B201F0A1FB82464FF07E5101F000FA55
:1053D000074641F6783109590968886A01F094FB5B
:1053E0004FF07E51099001F0F3F901460A90974879
:1053F00001F05CFA8346964901F058FA82469549D5
:1054000001F0CAFB8046394601F050FA9249086023
:1054100041F6783000590068C06A904908608C49AC
:10542000484601F0B9FB0490608A01F06DFB4FF033
:105430007E51019001F0CCF901460290834801F0C1
:1054400035FA8449039001F0A7FB8346049901F0E3
:105450002DFA4FF07E51059001F05EFD824601F07D
:105460001BFB1FFA80F8404601F04EFB4FF07E51C7
:10547000069001F051FD07464FF07E5101F0A8F96A
:105480000890608A01F040FB83464FF07E5101F0A6
:105490009FF9804641466D4801F008FA82466C4902
:1054A00001F004FA07466B4901F076FB0790089972
:1054B00001F0FCF966490A90484601F06DFB059041
:1054C000608A01F021FB4FF07E51029001F080F9DB
:1054D000014603905D4801F0E9F983465D4901F01A
:1054E0005BFB0490059901F0E1F94FF07E510690C5
:1054F00001F012FD079001F0CFFA1FFA80FA504632
:1055000001F002FB80464FF07E5101F061F9074641
:10551000608A01F0F9FA4FF07E51079001F058F9D6
:1055200083465946494801F0C1F98246484901F08D
:10553000BDF98046474901F02FFB3946089001F03C
:10554000B5F909900A9901F0E7FC45490860494618
:10555000A06801F03DF90746424901F0E9FA02D29C
:10556000002060702AE04946A06801F0D5FC824620
:1055700001F002F921F0004107464FF000523A4B8A
:1055800000F0FEFD05D8E078032802D1012060700C
:1055900014E04946A06801F0BFFC824601F0ECF837
:1055A00021F0004107464FF02042304B00F078FEDA
:1055B00002D80220607001E001206070002148469E
:1055C00001F036FA01D0607810B90020E07035E0C3
:1055D0004946002001F0ACFA0BD2484601F0CCF865
:1055E0000746234A234B00F0CBFD02D20120E07096
:1055F00024E0484601F0C0F807461D4A1D4B00F064
:105600004FFE0BD8484601F0B7F807461A4A1B4B25
:1056100000F0B6FD02D20220E0700FE0484601F033
:10562000ABF80746144A154B00F03AFE06D8144969
:10563000484601F07DFA01D80320E0700BB0BDE8C8
:10564000F08F0000B80D0020CDCCCC3D4054894CEB
:105650000000C845000070422C00002034000020EB
:10566000380000200AD7233CAE47E13F9999B93F63
:105670009A99999999193240CDCCCCCCCC3C7040B8
:1056800000001644F0B587B0064604213548FBF704
:105690009BFD40F2E3607043334901EB800541F626
:1056A000783044592844476800BF2068006A41F2B6
:1056B0001111084050B92068006A8910084028B9C3
:1056C0002068006820F001002168086000BF3946AA
:1056D0002046FCF749FF206A40B1206AFAF742FFF2
:1056E0002068C06820F480702168C860E8780128CC
:1056F00002D1CD20688209E0E878022804D0E87859
:10570000032801D0E87808B9002068822046FCF719
:1057100027FA688A60600021A1604FF6FF71E1609E
:1057200000212161A1612046FCF75CFA1C2168463A
:10573000FAF72DFE60200090688A18B94FF47A704D
:10574000019001E0962001900020029004903A46DA
:1057500069462046FCF754FE00202168486207B0E5
:10576000F0BD0000000C0140B80D00202DE9F04D07
:1057700007460E4600F0CAFD04460D463A4633463B
:1057800000F01EFEDFF86CA0DFF86CB01B4B074684
:10579000884616F0004F4FF000020AD000F0F0FCEF
:1057A0000AD900225B463846414600F079FD1BD2FB
:1057B00012E000F0E5FC08D20022534620462946BC
:1057C00000F0F0FE04460D460EE000225B4638462F
:1057D000414600F065FD07D8002253462046294681
:1057E00000F0E0F904460D463146204665F31E01FF
:1057F000BDE8F08D0000F03F0000E03F0000E0BF9A
:1058000070B5054601F0C6FA04460146284601F087
:1058100083FB15F0004F4FF07F410ED0B0F13F4FAA
:1058200028BFB1EB400F0ED2B0F17C5F1DDDB1EBB4
:10583000400F1AD313E0044617E0B0F13F4F08D9E8
:10584000B1EB400F05D34FF07E51204601F064FBD1
:10585000F1E7B0F17C5F08DBB1EB400F05D34FF00F
:105860007E51204600F0B4FFE5E7284664F31E00B1
:1058700070BD2DE9F04106460F4600F0ADFD041E57
:105880000D4618BF0120284320F00040C0F17F6082
:1058900000F1E040C00F0ED0301C18BF012038438B
:1058A00020F00040C0F17F6000F1E040C00F04BF75
:1058B0000120FAF79BFD20462946BDE8F08170B52E
:1058C000054601F0A1FA044620F00040C0F1FF4077
:1058D000C00F08D025F00040C0F1FF40C00F04BF4A
:1058E0000120FAF783FD204670BD000038B553480B
:1058F000007808B9002038BD5148FEF7A7FD0446DE
:10590000022C3ED14F4850490978405C042816DCEF
:105910004C494D4A1278895C4C4A02EB011101F165
:105920000C00FF220421FAF708FD01204549464AF0
:105930001278895C454A02EB0111C87008E0FF2229
:1059400008214348FAF7F9FC012041490C398870D5
:105950003B48FEF79AFD39480078401E3A490978DD
:10596000884203D1002038490870C4E736480078DF
:10597000401C3249097890FBF1F201FB12003249D8
:1059800008702F4890F8200102282CD12D482E496C
:105990000978405C042809DC00212A482A4A127848
:1059A000805C2A4A02EB0010C17003E00020284905
:1059B0000C3988702248FEF768FD20480078401EA8
:1059C00021490978884203D100201F49087092E7D5
:1059D0001D480078401C1949097890FBF1F201FB41
:1059E0001200194908701648FEF725FD18BB154826
:1059F00015490978455C042D10DC02201149124A32
:105A00001278895C114A02EB0111C870002304224C
:105A1000294600900A48FEF74BFD0BE002200C4996
:105A20000C3988700420002302462946009004485F
:105A3000FEF73EFD00BF02205DE7000016000020DB
:105A4000680900201100002010000020F408002048
:105A50004009002000201C4908701C4800210160FA
:105A6000017100201A49087000BF17E0194901EBC5
:105A70000011497861B9174901EB00110978134AFF
:105A8000114B1B78D15410490978491C0E4A1170EA
:105A9000104901EB00110022CA60401C0428E5DB1C
:105AA0000D48407850B90C4801780848064A1278E9
:105AB000815405480078401C0349087006480021BD
:105AC000C160016170470000160000201100002035
:105AD00010000020F40800203409002010B55A20DE
